:020000040800F2
:10000000380900209D010008231A00088117000804
:10001000211A0008A902000835210008000000008C
:10002000000000000000000000000000271A000887
:100030008103000800000000251A0008291A0008A2
:10004000B7010008B7010008B7010008B7010008B0
:10005000B7010008B7010008B7010008B7010008A0
:10006000B7010008B7010008B7010008B701000890
:10007000AD020008B7010008B7010008B701000889
:10008000B9020008B7010008B7010008B70100086D
:10009000B7010008B7010008B7010008B701000860
:1000A000B7010008B7010008B7010008B701000850
:1000B000B7010008B7010008DD1A0008B701000801
:1000C000B7010008B7010008B7010008B701000830
:1000D000B70100085D1F0008851F0008AD1F00085C
:1000E000B7010008B7010008B7010008B701000810
:1000F000B7010008B7010008B7010008B701000800
:10010000B7010008B7010008B7010008B7010008EF
:10011000B7010008B7010008B7010008B7010008DF
:10012000B7010008C5020008D1020008B7010008A5
:10013000B70100080000000000000000B70100083F
:10014000B7010008B7010008B7010008B7010008AF
:10015000B7010008B7010008B7010008D51F000863
:10016000B7010008B7010008B7010008B70100088F
:10017000B7010008B70100080000000000000000FF
:10018000B7010008B7010008DFF80CD000F07AF8DA
:1001900000480047752100083809002006488047BC
:1001A00006480047FEE7FEE7FEE7FEE7FEE7FEE75C
:1001B000FEE7FEE7FEE7FEE7C11A00088901000836
:1001C0002DE9F05F0546002092469B46884606468C
:1001D000814640241BE0284641464746224600F01F
:1001E00041F853465A46C01A914110D31146184659
:1001F000224600F028F82D1A67EB01084F462246E8
:100200000120002100F01FF817EB00094E41201ECD
:10021000A4F10104DFDC484631462A464346BDE8E6
:10022000F09FD2B201E000F8012B491EFBD27047CB
:100230000022F6E710B513460A4604461946FFF7B2
:10024000F0FF204610BD202A04DB203A00FA02F11C
:10025000002070479140C2F1200320FA03F31943B4
:1002600090407047202A04DB203A21FA02F0002156
:10027000704721FA02F3D040C2F1200291400843B6
:1002800019467047064C074D06E0E06840F0010350
:1002900094E8070098471034AC42F6D3FFF778FF94
:1002A0003C2200085C220008FEE70000014800F044
:1002B0007DB8000068020020014800F077B8000017
:1002C00008020020014800F071B80000C8020020B8
:1002D000014800F06BB80000A80100200168182355
:1002E000CAB2103AB2FBF3F2054B6FF30901032ACD
:1002F0009B5CC36500D9091D8165084670470000F5
:100300001C22000810B5014600208B698A6A4FF054
:10031000C07453B1B3F5005F15D072B1012A0CD08F
:10032000022A0AD0032A09D104E01AB1012A06D010
:10033000022A03D1C96AC90100D5012010BDC96ACA
:10034000A142FAD010BD002AF7D0012AF2D0022A29
:10035000F3D0032AF3D010BD30B50468256825F426
:1003600080252560046863608368402B036803D0A0
:1003700099600068C26030BD9A600068C16030BD9D
:10038000704772B6FEE790F83510022903D080213D
:10039000416501207047052180F83510006801682B
:1003A00021F0010101600020704700002DE9F843B1
:1003B00004464FF00009CDF8009063484FF4165101
:1003C000A56D0068B0FBF1F72E6894F85C20082159
:1003D00001FA02F030420FD02068026852070BD5B4
:1003E000026822F00402026094F85C008140A96077
:1003F000606D40F00100606594F85C104FF00108FA
:1004000008FA01F0304208D021684969090604D58C
:10041000A860606D40F00200606594F85C100420F4
:100420008840304208D021680968890704D5A8604F
:10043000606D40F00400606594F85C101020884006
:10044000304218D021680968090714D5A8602068CF
:100450000168490304D50068000308D5A16C07E0D2
:100460000168C90503D4016821F008010160216C0D
:1004700009B12046884794F85C102020884030421B
:1004800031D021680968C9062DD5A86094F83500D7
:1004900005282068016806D0490347D50068000395
:1004A0001DD4616C1CE021F01601016020684169D7
:1004B00021F080014161206C08B9A06C20B1206856
:1004C000016821F00801016094F85C103F20884029
:1004D000A86084F8349084F83580216D1FE0E16BCA
:1004E00009B120468847606D00282BD0606DC00799
:1004F00014D0052084F835002068016821F001013E
:1005000001600098401C0090B84203D82068006841
:10051000C007F6D184F8349084F83580E16C002966
:1005200010D001B02046BDE8F04308470168C90576
:10053000D5D4016821F01001016084F8349084F86A
:100540003580CCE7BDE8F883380000202DE9F04184
:10055000044600F07DF905465CB1002684F834605D
:10056000022084F835002068016821F00101016053
:100570000DE00120BDE8F08100F06AF9401B05287C
:1005800005D920206065032084F83500F2E7206853
:100590000068C007F0D121680A6820480240D4E909
:1005A00001031843D4E903352B4318436369184307
:1005B000A3691843E3691843236A18431043626A26
:1005C000042A03D1D4E90B231A431043086020689E
:1005D0004069656A20F0070128460D430127042879
:1005E0000CD1A06A0543E06A40B12046FFF78AFEBD
:1005F00020B14020606584F83570BAE72068456115
:100600002046FFF76BFE94F85C203F21914081600B
:10061000666584F835700020ACE700003F8010F07C
:100620002DE9F0410446866D90F83400002501283C
:100630000DD0012084F8340094F835700020012F8B
:1006400007D084F8340002252846BDE8F081022056
:10065000FBE7022784F8357060652046FFF77CFED3
:1006600094F85C103F208840B0602068016841F039
:1006700016010160206C20B12068016841F008017A
:1006800001602068016841F001010160DCE70000C1
:100690002DE9F84FDFF880B100224FF003094FF049
:1006A0000F0A0BF1040E01250B6895402B40AB425D
:1006B00072D14C68012C05D0022C03D0112C01D032
:1006C000122C10D18668540009FA04F7BE43CF6893
:1006D000A7403743876046680C79AE43C4F30014E3
:1006E000944034434460C468570009FA07F58E68A3
:1006F000AC43BE402643C6604C68022C01D0122C8D
:1007000012D1D40800EB840CDCF820605407E40E0E
:100710000AFA04F826EA0806D1F8108008FA04F864
:1007200048EA0608CCF820800468AC430D7905F04F
:100730000305BD40254305604C68E40065D5374C92
:10074000256845F480452560246822F0030504F4FB
:1007500080440094324C2E19D6F808789407250F5F
:100760000AFA05F4A7432F4CA04201D1002424E04B
:100770002D4CA04201D101241FE02C4CA04201D1FC
:1007800002241AE02A4CA04201D1032415E0294C8E
:10079000A04202D1042410E037E0274CA04201D14E
:1007A00005240AE0254CA04201D1062405E0244C92
:1007B000A04201D1072400E00824AC403C43C6F825
:1007C0000848DBF800405D464E689C43F60300D5C0
:1007D0001C432C60DEF8004075464E689C43B6030F
:1007E00000D51C432C600C4D08352C684E689C438A
:1007F000F60200D51C432C60074D0C352C684E6862
:100800009C43B60200D51C432C60521C102AFFF4F6
:100810004AAFBDE8F88F0000003C01404438024078
:100820000030014000000240000402400008024085
:10083000000C024000100240001402400018024068
:10084000001C02400AB1816170470904FBE7000007
:1008500001488068704700002C0000200248816831
:1008600002781144816070472C0000200B4810B5BD
:10087000016841F400710160016841F48061016028
:10088000016841F480710160032000F06FF80020DE
:1008900000F006F800F024F8002010BD003C0240F3
:1008A00070B50D4D04464FF47A712878B1FBF0F025
:1008B0000A490968B1FBF0F000F0F8FA48B9102CC9
:1008C00007D200222146501E00F030F800206C6054
:1008D00070BD012070BD00002C00002038000020F9
:1008E0000A4808B5016841F480410160006800F4DD
:1008F000804000900548001F016841F08051016070
:10090000006800F08050009008BD000044380240AC
:10091000002809DB00F01F020121914040098000FE
:1009200000F1E020C0F8001170470000F0B40E4B59
:100930001B68C3F30223C3F10704042C00D9042469
:100940001D1D072D01D2002300E0DB1E012606FA43
:1009500004F56D1E0D409D409E40761E164045EAF2
:100960000601F0BC01F0E7BB0CED00E0064A00F028
:10097000070110684FF6FF03184040EA01200349C1
:1009800008431060704700000CED00E00000FA051D
:100990002DE9F0470D46040065D0DFF81491D9F831
:1009A0000000EFB200F00F00A84207D289F80070F3
:1009B000D9F8000000F00F00A84254D120683D4E45
:1009C000810712D5400703D5306840F4E05030600D
:1009D0002078000703D5306840F46040306030680C
:1009E000A16820F0F000084330602078C0072DD0C7
:1009F000304960680839012812D0022813D0032832
:100A000011D00968890700292DDA316821F0030126
:100A100001433160FFF71CFF804641F2883A0EE047
:100A200009688903EFE709688901ECE7FFF710FF20
:100A3000A0EB0801514502D90320BDE8F0873068DA
:100A4000616800F00C00B0EB810FEFD1D9F8001015
:100A5000484601F00F01A94207D90770006800F06D
:100A60000F00A84201D00120E7E72078400705D514
:100A70003068E16820F4E0500843306020780007D7
:100A800006D53068216920F4604040EAC10030603A
:100A900000F038F83168084AC1F30311515CC840CE
:100AA0000649086006480068FFF7FAFE0020C4E720
:100AB000003C024008380240242200083800002090
:100AC000300000200448054900680968044AC1F361
:100AD0008221515CC840704738000020083802402D
:100AE000342200080448054900680968044AC1F333
:100AF0004231515CC840704738000020083802403D
:100B000034220008154810B5006810F00C01144894
:100B100013D0431004290FD008290ED10F4C241FE5
:100B2000216801F03F022168490207D52068C0F31F
:100B30008810A0FB030106E0184610BD2168C1F330
:100B40008811A1FB00010023FFF73AFB2168C1F3E4
:100B50000141491C4900B0FBF1F010BD08380240CA
:100B60000024F4002DE9F84F040075D02078DFF858
:100B700028A3C007AAF1040548D00AF104000168BF
:100B8000C1F38101012908D00068C0F38100022867
:100B90000AD1DAF80000400206D52868800335D56E
:100BA00060680028E1D031E06068B0F5803F10D087
:100BB000B0F5A02F286810D020F480302860286875
:100BC00020F4802028606068A0B1FFF741FE06464F
:100BD0000CE0286840F48030F4E740F4802028607E
:100BE000F7E7FFF735FE801B642871D8286880037B
:100BF000F7D50BE0FFF72CFE064604E0FFF728FED2
:100C0000801B6428F1D828688003F7D42078DFF8A7
:100C10008C9280074FF0000B3DD59F48001D016866
:100C200011F00C0F08D00068C0F3810002280AD12F
:100C3000DAF80000400206D42868800715D5E0687D
:100C4000012809D111E0E068B8B10121C9F800100C
:100C5000FFF7FEFD064605E01AE1FFF7F9FD801BF0
:100C60000228C2D828688007F7D52868216920F0B3
:100C7000F80040EAC10028600DE0C9F800B0FFF7B5
:100C8000E7FD064604E0FFF7E3FD801B02281FD8BE
:100C900028688007F7D42078000722D57E4F804847
:100CA0006169703771B101210160FFF7D1FD06461E
:100CB00004E0FFF7CDFD801B022809D838688007C3
:100CC000F7D50EE0C0F800B0FFF7C2FD064605E01C
:100CD00082E0FFF7BDFD801B02287DD838688007C1
:100CE000F7D42078400765D56B484FF000083C30BA
:100CF0000068C0000BD468483C30016841F0805166
:100D0000016000684FF0010800F080500090654FCE
:100D10003868C0050FD4386840F480703860FFF739
:100D200097FD064604E0FFF793FD801B022853D889
:100D30003868C005F7D5584FA0686C3701280FD028
:100D40000528386810D020F001003860386820F09D
:100D500004003860A068B0B1FFF77AFD06460EE0E7
:100D6000386840F00100F4E740F004003860F7E72D
:100D7000FFF76EFD811B41F28830814263D83868ED
:100D80008007F5D50DE0FFF763FD064606E0FFF7A7
:100D90005FFD811B41F28830814254D8386880075A
:100DA000F5D4B8F1000F05D03B483C30016821F084
:100DB00080510160A069B8B33749091D0968C1F3C2
:100DC0008101022946D00228584606D0C9F86000A1
:100DD000FFF73EFD044639E035E04F46C9F86000B4
:100DE000FFF736FD064604E0FFF732FD801B0228C0
:100DF00029D828688001F7D4D4E907010843A16AFB
:100E0000294A490802EB0141626A41EA821108431A
:100E100094F82C1040EA0161CAF8001001203866ED
:100E2000FFF716FD044605E034E0FFF711FD001B57
:100E3000022808D828688001F7D52BE0FFF708FDC5
:100E4000001B022802D90320BDE8F88F2868800122
:100E5000F4D41FE00128F7D0DAF80000E26900F4CA
:100E60008001914214D1226A00F03F0191420FD1DA
:100E700047F6C071626A0140914209D1A26A00F44A
:100E80004031914204D1E16A00F07060884201D0A3
:100E90000120D9E70020D7E704380240000047428C
:100EA000800E4742007000400000FFFF10B5401E5A
:100EB000B0F1807F01D3012010BD4FF0E0246061CC
:100EC0000F21601701F037F90020A0610720206191
:100ED000002010BD7047704770B590F83C20012A83
:100EE00032D0012580F83C50022280F83D20026873
:100EF0005368946823F070060B6833435360134BB8
:100F000002689A4214D0B2F1804F11D0104B9A422D
:100F10000ED0104B9A420BD00F4B9A4208D00F4B79
:100F20009A4205D00E4B9A4202D00E4B9A4204D1FF
:100F3000496824F080031943916080F83D500021F6
:100F400080F83C10084670BD022070BD00000140D2
:100F50000004004000080040000C00400004014074
:100F6000004001400018004010B5040003D094F880
:100F70003D0010B107E0012010BD002084F83C00C6
:100F8000204600F00DF8022084F83D00211D206865
:100F900000F0B6FD012084F83D00002010BD0000E7
:100FA00008B500680B49884212D10B48016841F02E
:100FB000040101600068002200F004000090114666
:100FC0001E20FFF7B3FCBDE808401E20FFF7A0BCC1
:100FD00008BD000000080040403802400168CA68AF
:100FE00042F00102CA600068816801F00701062929
:100FF00003D0016841F0010101600020704770B525
:10100000044690F83C00012817D0012584F83C5094
:10101000022084F83D002068826822F0770222F4E2
:101020007F4282600868502830D00DDC20284DD0E7
:1010300005DC98B310283BD148E0022070BD302871
:1010400044D0402834D139E0602828D0702806D018
:10105000B0F5805F2CD0B0F5005F29D10AE0CB68F5
:10106000D1E90121206800F0AFFD2068816841F0DE
:10107000770109E0CB68D1E90121206800F0A4FDE7
:101080002068816841F48041816011E0CA68496844
:10109000206800F0ABFD5021206807E016E0CA6828
:1010A0004968206800F0B3FD6021206800F096FDDB
:1010B00084F83D50002084F83C0070BDCA6849683F
:1010C000206800F093FD40212068EFE72268014688
:1010D0001046EBE7704770B50446006801694FF0B1
:1010E0000005C943890715D4C168C943890711D4CC
:1010F000E91E016101202077206880698007204671
:1011000002D0FFF7E7FF04E000F098F8204600F077
:1011100096F8257720680169C943490717D4C16843
:10112000C943490713D46FF00401016102202077FD
:101130002068806910F4407F204602D0FFF7CAFF84
:1011400004E000F07BF8204600F079F8257720686D
:101150000169C943090716D4C168C943090712D4F4
:101160006FF008010161042020772068C0698007C2
:10117000204602D0FFF7AEFF04E000F05FF8204603
:1011800000F05DF8257720680169C943C90617D4C6
:10119000C168C943C90613D46FF01001016108206A
:1011A00020772068C06910F4407F204602D0FFF706
:1011B00091FF04E000F042F8204600F040F8257767
:1011C00020680169C943C90708D1C168C943C90773
:1011D00004D1891E0161204600F032F820680169BF
:1011E000C943090609D4C168C943090605D46FF08B
:1011F000800101612046FFF76DFE20680169C94347
:10120000490609D4C168C943490605D46FF04001B5
:101210000161204600F015F820680169C94389067C
:101220000BD4C168C943890607D46FF0200101615E
:101230002046BDE87040FFF74EBE70BD7047704756
:10124000704770477047000070B502680446106828
:10125000D168536910F00F0F53D003F0010501F46A
:1012600090762E435FD0C20705D0CA0503D5E26B46
:1012700042F00102E263420705D5DA0703D0E26BD0
:1012800042F00202E263820705D5DA0703D0E26B7F
:1012900042F00402E263020707D501F020022A436C
:1012A00003D0E26B42F00802E263E26B002A34D022
:1012B000800604D5880602D5204600F03DFD206852
:1012C0004069E16BC0F3801001F008010143204642
:1012D00024D000F01AFD2068416949061AD54169F9
:1012E00021F040014161606BA0B11B490165606B59
:1012F000FFF749F8002810D0606B016DBDE8704021
:10130000084783060FD58B060DD52046BDE87040F3
:1013100000F012BD2046FFF795FF70BDFFF792FF6A
:101320000020E06370BD030606D50B0604D52046F9
:10133000BDE8704000F0E0BD4006F3D54806F1D5A9
:10134000D168204621F04001D160202184F8391075
:1013500000F014FA70BD0000331C000870B50400E2
:1013600004D094F83900002510B106E0012070BDCA
:1013700084F83850204600F023F8242084F83900FF
:101380002068C16821F40051C160204600F020FDB2
:101390002068016921F4904101612068416921F0D0
:1013A0002A0141612068C16841F40051C160E563D0
:1013B000202084F8390084F83A00002070BD000035
:1013C0002DE9F04F87B0044614216846FEF730FF40
:1013D0009948DFF8608214380221D4F800C0002553
:1013E000DFF854A203220723DFF850B28F06061558
:1013F000C44542D1DAF8008048F01008CAF80080ED
:10140000DAF800C00CF0100CCDF814C0D0F800C011
:101410004CF0010CC0F800C0006800F0010005901D
:1014200050028DE8230069465846CDE90323FFF7B3
:101430002FF9DFF8108282494046C8F80010C0E951
:101440000175C0E90356C8F81450C8F81850C8F818
:101450001C50C8F82050C8F82450FFF777F808B19E
:10146000FEF78FFFC4F83480002211462520C8F80B
:101470003840FFF75BFA25204BE0DFF8CC81DFF83E
:10148000B891C445A9F1040948D1D9F8008048F4BD
:101490000038C9F80080D9F800C00CF4003CCDF841
:1014A00014C0D0F800C04CF0010CC0F800C00068B7
:1014B00000F0010005900C208DE823006946584695
:1014C000CDE90323FFF7E4F8DFF878815F4908F1FD
:1014D00060084046C8F80010C0E90175C0E903562D
:1014E000C8F814504FF44031C8F81850C8E90751F3
:1014F000C8F82450FFF72AF808B1FEF742FFC4F8F5
:101500003480002201212620C8F83840FFF70EFA67
:101510002620FFF7FDF907B0BDE8F08FDFF8308136
:10152000DFF830B1C44546D1D9F8008048F48028AE
:10153000C9F80080D9F800C00CF4802CCDF814C094
:10154000D0F800C04CF0040CC0F800C0006800F0F7
:10155000040005904FF440608DE82300694658462A
:10156000CDE90323FFF794F8DFF8D880374908F175
:10157000C00860394046C8F80010C0E90175C0E9EC
:101580000356C8F81450C8F81850C8F81C50C8F8CA
:101590002050C8F82450FEF7D9FF08B1FEF7F1FE3D
:1015A000C4F83480002211462720C8F83840FFF7DD
:1015B000BDF92720ADE7284B9C45ACD1DAF8007087
:1015C00047F02007CAF80070DAF8003003F0200373
:1015D0000593036843F004030360006800F004000F
:1015E0000590C0208DE823000820CDE9032069463E
:1015F0005846FFF74DF81248184F183838608005E4
:10160000C7E90105C7E903567D614FF40030BD61AC
:10161000C7E9075038467D62FEF798FF08B1FEF72C
:10162000B0FE6763002211464720BC63FFF77EF9D6
:1016300047206EE70010014044380240000002409D
:1016400040640240A801002000440040886002403D
:10165000004800400008024000140140C802002079
:1016600037B5044690F83A0082B0134620283AD1A4
:10167000039AAAB3A3B394F83800012833D0012009
:1016800084F83800A262A3850025E563222084F84F
:101690003A00616B1548C863616B15480864616B5B
:1016A0001448C864606B05652168606B091DFEF70E
:1016B000B7FF206801684168009184F83850C1681C
:1016C00041F48071C1602068416941F001014161CC
:1016D0002068416941F040014161002005B030BD02
:1016E000FFE70120FAE70220F8E700008D1C000860
:1016F000C91C0008431C000870477047F7B5044632
:1017000090F83900202831D1019969B362B394F877
:10171000380001282AD0012084F838002162A284F0
:10172000E2840025E563212084F83900236B10480A
:10173000D863236B0F481864236B0F48D864206B61
:10174000134605652668206B321DFEF769FF216888
:101750006FF04000086084F838502068416941F01B
:10176000800141610020FEBD0120FEBD0220FEBDC2
:10177000D31C0008011D0008431C00087047704777
:10178000FEE70000194808B5016841F480010160D6
:10179000016801F480010091016841F400110160C9
:1017A0000068002200F40010009011460C20FFF7A2
:1017B000BDF80C20FFF7ACF8002201211020FFF744
:1017C000B5F81020FFF7A4F8002211463920FFF7E2
:1017D000ADF83920FFF79CF8002211463A20FFF7B8
:1017E000A5F8BDE808403A20FFF792B8303802402B
:1017F0002DE9F04186B014216846FEF719FD28480E
:101800000025016841F004010160016801F0040154
:101810000591016841F080010160016801F08001DB
:101820000591016841F00101016000681D4F00F061
:10183000010046F203040590002221463846FFF7D6
:1018400001F8DFF864804FF400460022314640463C
:10185000FEF7F8FF00940124694638460194CDE96B
:101860000245FEF715FF8020CDE900056946029488
:101870004046FEF70DFF4FF44070CDE90005694684
:1018800002943846FEF704FFCDE9006469464046FD
:10189000CDE90245FEF7FCFE06B0BDE8F081000090
:1018A00030380240000802400000024010B586B007
:1018B000002417480094019402940394049413495B
:1018C000059401605321C0E9011442F20F71C0E98F
:1018D000031480218161FFF747FB08B1FEF751FD3A
:1018E0004FF48050009069460948FFF788FB08B123
:1018F000FEF747FD049404A905480594FFF7ECFAA8
:10190000002801D0FEF73DFD06B010BD00080040E4
:10191000440000200C4810B50A4901604FF41651EC
:101920004160002181600C22C160C0E90412816124
:10193000C161FFF713FD002803D0BDE81040FEF79A
:1019400020BD10BD00100140A80000200C4810B5BB
:101950000A4901604FF416514160002181600C2258
:10196000C160C0E904128161C161FFF7F7FC002882
:1019700003D0BDE81040FEF704BD10BD0044004098
:10198000E80000200C4810B50A4901604FF41651D8
:101990004160002181600C22C160C0E904128161B4
:1019A000C161FFF7DBFC002803D0BDE81040FEF763
:1019B000E8BC10BD00480040280100200D4810B5CB
:1019C0000B4901604FF4E13141604FF48051816077
:1019D00000210C22C160C0E904128161C161FFF7DE
:1019E000BDFC002803D0BDE81040FEF7CABC10BD06
:1019F0000014014068010020084902780A7042780A
:101A00004A7082788A70C278CA7002790A71427903
:101A10004A7182798A71C079C871704704000020C8
:101A2000FEE7FEE770477047FEF718BF30B593B08A
:101A300030216846FEF7FCFB14210CA8FEF7F8FBEA
:101A40001D480025016841F080510160006800F0E8
:101A5000805011901948016841F48041016000688C
:101A6000022400F4804011900120009000040190B5
:101A70008001CDE9064008AA0420A82182E81300CD
:101A80000B906846FFF76EF808B172B6FEE70CA936
:101A90000F2081E831004FF4A0500F904FF4805098
:101AA000109005210CA8FEF773FF002801D072B634
:101AB000FEE713B030BD0000403802400070004027
:101AC0000548016841F47001016003494FF000606E
:101AD000803908607047000088ED00E010B50A22E8
:101AE00004490548FFF70AFEBDE810400348FFF728
:101AF000F2BA000024000020680100204400002009
:101B0000F0B50268254D264E264FDFF89CC0274BC6
:101B10004FF0804EA84209D0704507D0B04205D0A2
:101B2000B84203D0604501D0984203D122F070043E
:101B30004A682243A8421BD0704519D0B04217D042
:101B4000B84215D0604513D0984211D0184CA0422D
:101B50000ED0184CA0420BD0174CA04208D0174C06
:101B6000A04205D0164CA04202D0164CA04203D190
:101B700022F44074CA6822434C6922F08002224356
:101B800002608A68C2620A688262A84201D09842F2
:101B900001D10969016301214161F0BD00000140EB
:101BA0000004004000080040000C00400004014018
:101BB000004001400044014000480140001800403E
:101BC000001C00400020004010B5846842EA032257
:101BD00024F47F440A432243826010BD826822F0CD
:101BE00070020A4342F007018160704710B5046A31
:101BF000036A23F001030362836923F0F00343EADD
:101C0000021324F00A020A438361026210BD10B578
:101C1000036A23F0100303628469036A24F47044A6
:101C200044EA023223F0A00343EA01118261016217
:101C300010BD10B5806B0021C185C184FFF702FB88
:101C400010BD70B5846B2068406994F83910C0F3FA
:101C5000C0100025212904D118B1E584204600F0E8
:101C600062F82068406994F83A10C0F38010222985
:101C700004D118B1E585204600F047F8E06B40F04C
:101C80001000E0632046FFF7DDFA70BD10B5014695
:101C9000806B09680968C90513D40021C1850168F2
:101CA000CA6822F48072CA6001684A6922F001029F
:101CB0004A6101684A6922F040024A61202180F8A5
:101CC0003A10FFF719FD10BD10B5806BFFF715FD39
:101CD00010BD10B50146806B09680968C9050CD4B0
:101CE0000021C18401684A6922F080024A610068CB
:101CF000C16841F04001C16010BDFFF73FFD10BD5C
:101D000010B5806BFFF73BFD10BD0168CA6822F477
:101D10009072CA6001684A6922F001024A6120217A
:101D200080F83A1070470168CA6822F0C002CA60A1
:101D3000202180F83910704710B590F83A10222908
:101D400001D0022010BD8168B1F5805F11D001691A
:101D5000002901681FD0496801F07F03816A4A1C8D
:101D600082620B70C18D491E0904090CC18518D00F
:101D70002BE00269816A002A0268526805D0D2B25B
:101D80000A80816A491C8162ECE7C2F308020A807A
:101D9000816A891CF7E74A68816A4B1C83620A7072
:101DA000E0E70168CA6822F02002CA600168CA68D8
:101DB00022F48072CA6001684A6922F001024A6115
:101DC000202180F83A10FFF797FC002010BD00009A
:101DD0002DE9F041044600680169E26821F44051B0
:101DE00011430161A1682069E26901436069104300
:101DF00001432068C26849F20C639A430A43C260F7
:101E000020684169A26921F4407111434161E06990
:101E1000192764253226B0F5004F354A3549206828
:101E20004FF0000806D0884201D0904236D1FEF72C
:101E300059FE35E0884201D0904202D1FEF752FEB1
:101E400001E0FEF73FFE61684A18A0FB070148EB7E
:101E50000803FEF7B5F90146B0FBF5F00201B1FB4E
:101E6000F5F06FF01803584301EB800006EBC0005B
:101E7000B0FBF5F000F0F80002EB4002B1FBF5F02A
:101E8000584301EB800006EBC000B0FBF5F000F01A
:101E90000700216810448860BDE8F081FEF712FE5B
:101EA00001466068830F8200A1FB0701FEF788F9F5
:101EB0000146B0FBF5F06FF01802504301EB8000D3
:101EC00006EB0010B0FBF5F000F0F002B1FBF5F00E
:101ED00002EB0012B1FBF5F06FF01803584301EB71
:101EE000800006EB0010B0FBF5F000F00F00D0E72B
:101EF000001401400010014090F83910212901D050
:101F0000022070478168B1F5805F016A0BD04A1CDE
:101F10000262026809785160C18C491E0904090CEB
:101F2000C1840ED017E009880268C1F3080151602E
:101F300001690029016A02D0491C0162ECE7891C91
:101F4000FBE70168CA6822F08002CA600068C168C5
:101F500041F04001C16000207047000010B5082228
:101F600006490748FFF77CFB0121044800F0D8F838
:101F7000BDE810400248FFF767B9000014000020D8
:101F8000A800002010B5082206490748FFF768FBA3
:101F90000121044800F0C4F8BDE810400248FFF7F2
:101FA00053B900000C000020E800002010B5082202
:101FB00006490748FFF754FB0221044800F0B0F837
:101FC000BDE810400248FFF73FB900001C000020A8
:101FD0002801002008B500200090054B054A06495D
:101FE000064800F067F8BDE808400448FFF72CB940
:101FF000F919000828030020C80200206801002009
:1020000010B5082000F0D4F80B4C2060082000F038
:10201000CFF86060082204F164002168FFF720FB1C
:10202000002020720820608104F164000068C1680B
:1020300041F01001C16010BD8400002010B50820DF
:1020400000F0B6F80B4C2060082000F0B1F860609A
:1020500004F198000068C16841F01001C1600820D7
:102060006081024604F198002168BDE81040FFF746
:10207000F7BA00009000002010B5082000F098F892
:102080000B4C2060082000F093F8606004F10C0015
:102090000068C16841F01001C1600520608104F151
:1020A0000C002168BDE810400822FFF7D9BA0000F3
:1020B0009C000020F8B5144602681D461268D24301
:1020C000D2062BD40A68136823F001031360026858
:1020D0000023166852680092096862894968511A9B
:1020E000CEB2217A51B123722168FFF7B9FA608923
:1020F000B04213D1002D11D060680AE00121217295
:102100006168FFF7ADFA6089B04207D1002D05D0B4
:10211000206801B0AC46BDE8F0406047F8BD000063
:1021200081884ABA02494A80807948707047000025
:1021300000000020FEE70907090E002804DB00F17B
:10214000E02080F80014704700F00F0000F1E0205C
:1021500080F8141D704702E008C8121F08C1002A49
:10216000FAD170477047002001E001C1121F002A18
:10217000FBD17047FEF77AFBFFF758FCFFF738FBFF
:10218000FFF700FBFFF71AFCFFF7E0FBFFF7FAFB96
:10219000FFF78CFBFFF7BEFB0448FEF71FFFFFF7BE
:1021A0006BFFFFF74BFFFFF72BFFFEE7440000201C
:1021B000F0B50B30154D20F007010024144A0FE054
:1021C00003688B420BD38B4205D95E1A43184768CC
:1021D000C3E9006700E04368136002C004E0021D29
:1021E00010680028ECD12046002802D1286808B1E8
:1021F0000020F0BD064A07481060074A121A22F074
:102200000702C0E9002401202860D7E74000002031
:102210003C0000203C03002038050020000610167A
:102220000006101600000000000000000102030478
:102230000607080900000000010203045C220008F0
:10224000000000204400000056210008A0220008E1
:1022500044000020F408000066210008000000008F
:10226000000000000000000000000000000000006E
:10227000000000000000000000000000000000005E
:102280000001020304000000010000001000000033
:10229000000000000024F400000000000000000026
:040000050800018965
:00000001FF
