:020000040800F2
:10000000F00D00209D0100082F2E00088329000814
:100010000D2E00084D090008853A00080000000078
:100020000000000000000000000000009531000802
:10003000F10A000800000000F13000081F3200083B
:10004000B7010008B7010008B7010008B7010008B0
:10005000B7010008B7010008F50A0008B701000859
:10006000B7010008B7010008B7010008B701000890
:10007000F9090008B7010008050A0008B7010008DF
:10008000110A00081D0A0008B7010008B70100089E
:1000900051090008B7010008B7010008B7010008BE
:1000A000B7010008B7010008B7010008B701000850
:1000B000C5320008D132000809330008B701000832
:1000C000B7010008B7010008B7010008B701000830
:1000D000B7010008113800083938000861380008F5
:1000E000B7010008B7010008B7010008B701000810
:1000F000B7010008B7010008B7010008B701000800
:10010000B7010008B7010008B7010008B7010008EF
:10011000B7010008B7010008B7010008B7010008DF
:10012000B7010008290A0008350A0008B7010008CD
:10013000B70100080000000000000000B509000839
:1001400085090008B7010008B7010008B7010008D9
:10015000B7010008410A0008B70100088938000803
:10016000B7010008B7010008B7010008B70100088F
:10017000B7010008B70100080000000000000000FF
:10018000B7010008B7010008DFF80CD000F078FBD9
:1001900000480047554A0008F00D002006488047F7
:1001A00006480047FEE7FEE7FEE7FEE7FEE7FEE75C
:1001B000FEE7FEE7FEE7FEE7A93200088901000836
:1001C0002DE9F05F0546002092469B46884606468C
:1001D000814640241BE0284641464746224600F01F
:1001E00048FA53465A46C01A914110D31146184650
:1001F000224600F02FFA2D1A67EB01084F462246DF
:100200000120002100F026FA17EB00094E41201EC4
:10021000A4F10104DFDC484631462A464346BDE8E6
:10022000F09F00000649074A0868504343F239022C
:10023000104408604008704701490860704700009A
:10024000940000206D4EC641D2B201E000F8012BAF
:10025000491EFBD270470022F6E710B513460A4646
:1002600004461946FFF7F0FF204610BD2DE9FE4F6A
:10027000804681EA0300C00F0C46009021F0004147
:1002800023F00045B8EB0200A94105D240462146C3
:1002900090461C460B46024623F00040104347D0D0
:1002A000270DC7F30A00C3F30A510290401A0190C8
:1002B00040286BDAC3F3130040F4801B0098924689
:1002C00020B10023D2EB030A63EB0B0B01985946D4
:1002D000C0F14002504600F0BDF906460D465046BA
:1002E0005946019A00F0D5F910EB0800614100244D
:1002F00087EA115284EAE7731A4340D0009A62B346
:10030000019A012A4FEA075215DC001B61EB02013A
:100310004FF0004202EA0752CDE90042001C41F5CD
:10032000801132462B4600F00CFA03B0BDE8F08F86
:1003300040462146F9E7001B61EB0201001C41F534
:10034000801300185B412018A2F5001747EB03014A
:1003500040EAD570B6196D4111E06D084FEA3606D6
:1003600045EAC0754FEA0752001B61EB0201001C11
:1003700041F5801149084FEA3000001951413246D9
:100380002B4603B0BDE8F04F00F0CCB90098012235
:1003900040000023D0EB020263EBE073009821469B
:1003A0004FEAE074B8EB000061EB0401E9E783F089
:1003B00000435BE781F0004158E72DE9FE4F81EAF9
:1003C000030404F0004421F0004100944FF0000BBE
:1003D00023F0004350EA01045ED052EA03045BD0EC
:1003E000C3F30A54C1F30A552C44A4F2F334019424
:1003F000A0FB0254C1F3130141F48011C3F31303B2
:1004000043F4801301FB024400FB034E840A970A65
:1004100044EA815447EA8357A4FB076802958D0A92
:1004200005FB07854FEA932C04FB0C542705029D1E
:100430004FEA065847EA1637B5EB08056EEB070C8E
:10044000870E920E47EA811742EA8312A7FB020148
:10045000B6EB0B0164EB00042B0D43EA0C335E1882
:1004600044EB1C50DA465146E7FB0201C5F3130486
:100470004FEA0B3343EA14534FEA0432019C43EA38
:100480000603A4F10C040294009CCDE900B400F032
:1004900058F903B0BDE8F08F00200146F9E72DE9D7
:1004A000F04D81EA030404F0004B21F000451446AE
:1004B0004FF0000A23F0004150EA050220D054EA30
:1004C00001021DD0C5F30A570246C5F31303C1F359
:1004D0001300C1F30A5640F4801543F48013A7EBD0
:1004E0000608101BD64608F2FD3873EB050002D350
:1004F00008F1010801E092185B41B8F1000F03DA3E
:1005000000200146BDE8F08D00204FF48011064622
:1005100084460EE0171B73EB050705D3121B63EB34
:10052000050306434CEA010C49084FEA30009218D3
:100530005B4150EA0107EDD152EA030012D082EA92
:10054000040083EA0501084305D0101BAB4106D225
:100550000122002306E000224FF0004302E06FF08A
:10056000010253101AEB06004CEB085110EB0A0085
:1005700041EB0B01BDE8F04D00F0D4B80EB5C10F52
:1005800080EAE0700844CA07002140F233438DE856
:100590000E000A460B4600F0D4F803B000BD0EB5BD
:1005A00040F2334102910021CDE900110A460B4689
:1005B00000F0C7F803B000BD70B5C1F30A5201F0F6
:1005C00000450024C1F3130140F2FF3341F48011D0
:1005D0009A4201DA002070BD40F233439A42A2F2FF
:1005E000334203DC524200F044F800E090402C43D8
:1005F000F1D0404270BD00F0004230F000400AD01F
:10060000C10D01F56071C0F3160042EA0151C20844
:1006100040071143704700200146704701F0004336
:1006200030B421F0004150EA010206D00A0DA2F5D3
:100630006072C1F31301002A02DC30BC0020704755
:10064000440F44EAC104C100E01830BC00EBC250C2
:1006500000F031B8202A04DB203A00FA02F1002031
:1006600070479140C2F1200320FA03F319439040F0
:100670007047202A04DB203A21FA02F0002170475B
:1006800021FA02F3D040C2F12002914008431946FA
:100690007047202A06DBCB17203A41FA02F043EAE2
:1006A000E07306E041FA02F3D040C2F1200291402B
:1006B0000843194670470029A8BF7047401C4900ED
:1006C00008BF20F00100704710B4B0FA80FC00FAB7
:1006D0000CF050EA010404BF10BC704749B1CCF1E2
:1006E000200421FA04F411FA0CF118BF012121436E
:1006F0000843A3EB0C01CB1D4FEA00614FEA102029
:1007000042BF002010BC704700EBC35010440029CA
:10071000A4BF10BC7047401C490008BF20F0010076
:1007200010BC704710B5141E73F1000408DA401CA9
:1007300041F1000192185B411A4301D120F0010000
:1007400010BD2DE9F04D92469B4611B1B1FA81F2F0
:1007500002E0B0FA80F220329046FFF77BFF0446B9
:100760000F4640EA0A0041EA0B0153465A46084345
:1007700013D0114653EA010019D0C8F14002504687
:10078000FFF777FF05460E46504659464246FFF7AB
:1007900061FF084305D0012004E020463946BDE84A
:1007A000F08D0020054346EAE0762C4337430A9853
:1007B0006305E40AA0EB08000022FD0A44EA47545E
:1007C0000A3002D500200146E9E701051019694108
:1007D000DDE9084500196941BDE8F04DA2E72DE9C2
:1007E000F04D00231A461B1A8A4103DB0020014604
:1007F000BDE8F08DC1F30A52C1F3130141F4801535
:100800004FF0000BD10702D100186D41521E002796
:10081000044640F2FF11384601EB620A3E4680462C
:10082000024600204FF48011FFF723FFC2197141E7
:10083000BB1846EB0100B4EB030C75EB000C04D3C2
:10084000E41A65EB000517460E46241908F101006D
:100850006D4180463428E3DDF91946EB0600091B9B
:10086000A84103D24FF0FF32134601E000221346A5
:100870001BEB070046EB0A51BDE8F04DFFF752BFF6
:10088000064C074D06E0E06840F0010394E80700DD
:1008900098471034AC42F6D3FFF77AFC784D000845
:1008A000984D0008DFED273A9FED244ADFED244AFA
:1008B0009FED255A00B50146B0EE443AF0EE642AA9
:1008C000B0EE632AF0EE451AB0EE631AF0EE630A5A
:1008D000B2EE0E0A083002F033FB002081F83C0033
:1008E00001F14002B0EE443AF0EE642AB0EE632A21
:1008F000F0EE451AB0EE631AF0EE630AB2EE0E0A9D
:1009000001F1480002F01CFB012082F83C0080311C
:10091000B0EE443AF0EE642AB0EE632AF0EE451AE7
:10092000B0EE631AF0EE630AB2EE0E0A01F10800AF
:1009300002F006FB022081F83C0000BD0000FA45F1
:1009400000803B45000000000000FA44FEE7000084
:100950000A4B10B51C4603F108020021084800F0BC
:1009600000FA0648214608300268A0F5967002F0A9
:100970004EFABDE81040024800F07DBAA4070020FE
:10098000D0010020094B10B51C4603F138020021AC
:10099000074800F0E6F9054838300168204603F0C2
:1009A0000BFFBDE81040024800F065BA9C0700202C
:1009B000F8010020014800F05EBA0000F8010020B4
:1009C00000B50C4A00218BB0904202D105910991EB
:1009D00002E00E2205920992012201910291CDE9D5
:1009E00006120391009104910892694600F032F9D1
:1009F0000BB000BDD0010020014800F097BC000002
:100A000000050020014800F091BC000060050020B6
:100A1000014800F08BBC000040040020014800F0B9
:100A200085BC0000A0040020014800F07FBC00004D
:100A3000C0050020014800F079BC0000E003002060
:100A4000014800F073BC0000200600200168182354
:100A5000CAB2103AB2FBF3F2054B6FF30901032A55
:100A60009B5CC36500D9091D81650846704700007D
:100A7000344C000810B5014600208B698A6A4FF09B
:100A8000C07453B1B3F5005F15D072B1012A0CD018
:100A9000022A0AD0032A09D104E01AB1012A06D099
:100AA000022A03D1C96AC90100D5012010BDC96A53
:100AB000A142FAD010BD002AF7D0012AF2D0022AB2
:100AC000F3D0032AF3D010BD30B50468256825F4AF
:100AD00080252560046863608368402B036803D029
:100AE00099600068C26030BD9A600068C16030BD26
:100AF0007047000010B5012000F08AFD0149012077
:100B0000086010BD5C0000207047000010B5064C66
:100B100001220221204600F061FE20460022BDE8AD
:100B20001040012100F05ABE0008024010B50C4CE4
:100B300000220121204600F051FE0A48642100688D
:100B4000B0FBF1F201FB12000A2801D8012200E0FB
:100B500000222046BDE81040022100F03FBE000008
:100B6000000802405800002090F82020012A07D0F9
:100B7000022A05D0416A41F4802141620120704778
:100B8000006842690A43426100207047F0B590F85E
:100B900020500468A468012D05D0022D03D0416ABD
:100BA00041F4802153E014F0406F01D1E5004BD5B2
:100BB000C4F30164022C03D9416A41F4000146E008
:100BC0000125A5401D608B684FF4C0759BB1CE68B0
:100BD00033434E6843EAC603066805EB0417F35136
:100BE0004FF4C273076803EB04130E69FE50097DCE
:100BF000012905D009E00E88CB6843EA4653EBE7AC
:100C00000168CE5846F48076CE501179D2F805307E
:100C10004FF4C67641EA0323016806EB04168B51B4
:100C20001178D2F801204FF4C47341EA022102681E
:100C300003EB0413D150006805EB0411425842F055
:100C4000010242500020F0BD416A41F400114162AE
:100C50000120F0BD10B590F82020012A07D0022A0B
:100C600005D0416A41F480214162012010BD3B481A
:100C7000D0F8002242F00102C0F80022D0F8002291
:100C800022F47C52C0F80022D0F800224B6A42EADB
:100C90000322C0F800220A7D02F01F0301229A40BD
:100CA000D0F81C329343C0F81C32CB69B3B9D0F8EA
:100CB0000C329343C0F80C328C894B6864F31F43A9
:100CC0004C6900EBC404C4F840320C890B6864F32F
:100CD0001F434C6900EBC404C4F84432CB69012BB8
:100CE00016D1D0F80C321343C0F80C320C884B6884
:100CF00064F31F434C6900EBC404C4F840320C8910
:100D0000CB6864F31F434C6900EBC404C4F844325D
:100D10008B69002BD0F804320ED01343C0F8043294
:100D20000B69002BD0F8143208D01343C0F81432EA
:100D3000096A012904D008E09343EFE79343F5E7FC
:100D4000D0F81C121143C0F81C12D0F8001221F088
:100D50000101C0F80012002010BD00000064004036
:100D6000704730B590F82040012C05D0022C03D0FC
:100D7000416A41F480215DE00468002955D024696E
:100D8000A40754D04FF4D874056804EB01142D590E
:100D900015F00405956005682D594ED0ED08556095
:100DA00005682C5904F00204D4604FF4DA74056825
:100DB00004EB01142D5905F00F05156105682D5937
:100DC000C5F30725956105682C59240C54614FF42F
:100DD000DC72046802EB0112A4581C700468A45869
:100DE000240A5C700468A458240C9C700468A258FF
:100DF000120EDA704FF4DE72046802EB0112A4588E
:100E00001C710468A458240A5C710468A458240C5A
:100E10009C710468A258120EDA71006881B10169F0
:100E200041F020010161002030BDE468A8E7416A7B
:100E300041F400114162012030BD6D0D1560AFE736
:100E4000C16841F02001C160EDE70246002092F840
:100E50002010012901D002290CD111688A685201A1
:100E600000D501208A68120100D5401C8968C9009C
:100E700000D5401C70472DE9F05F0546006800244E
:100E80004669D0F804908768D0F80CB0D0F810A06C
:100E9000D0F81880F10748D0F90714D001218160FB
:100EA000B80703D5284600F028FA0CE0780702D5E9
:100EB0004FF4006407E0380702D54FF4805402E095
:100EC000284600F019FAF80516D529684FF4807005
:100ED0008860B80503D5284600F011FA0CE07805C3
:100EE00002D544F4005407E0380502D544F48044A8
:100EF00002E0284600F002FAF80316D529684FF4FC
:100F000080308860B80303D5284600F0FAF90CE079
:100F1000780302D544F4004407E0380302D544F4D2
:100F2000803402E0284600F0EBF9300707D55FEA8D
:100F3000CB6004D52968102044F40074C8607007A1
:100F40004FF0080707D55FEA0B7004D52868C76023
:100F5000284600F0A1F9B00706D52868C0688007C8
:100F600002D0284600F099F9700607D55FEACA60FA
:100F700004D52968102044F480640861B00607D5C0
:100F80005FEA0A7004D528680761284600F086F9F0
:100F9000F00606D528680069800702D0284600F0D0
:100FA0007EF9B00308D55FEAC96005D5296810202D
:100FB0004860284600F074F9F00307D55FEA09702D
:100FC00004D528684760284600F09CF9300446D5CF
:100FD0005FEA497040D5F00504D55FEAC87001D0DA
:100FE00044F00104B00504D55FEA887001D544F0EF
:100FF0000204700504D55FEA487001D544F004048A
:10100000300529D518F0700F26D008F07000402860
:1010100015D006DC102809D020280AD0302816D197
:101020000AE050280ED0602811D10EE044F00804E8
:101030000DE044F010040AE044F0200407E044F01E
:10104000400404E044F0800401E044F48074286823
:10105000816921F070018161296804204860002CB9
:1010600005D0686A204368622846FFF779FEBDE82C
:10107000F09F70B5040003D094F8200010B104E094
:10108000012070BD204600F081F82068016821F041
:101090000201016000F0A8FB0546052604E000F00F
:1010A000A3FB401B0A2811D8206840688007F6D4AB
:1010B0002068016841F00101016000F095FB0546E0
:1010C0000BE000F091FB401B0A2806D9606A40F44F
:1010D0000030606284F82060D2E720684068C00772
:1010E000EFD0207E0128206801683DD021F08001EA
:1010F0000160607E01282068016838D021F040013D
:101100000160A07E01282068016833D021F0200111
:101110000160E07E0128206801682ED041F01001B6
:101120000160207F01282068016829D021F0080192
:101130000160607F01282068016824D021F004014B
:101140000160D4E902010843D4E9041211430843C1
:101150006168491E08432168C8610020606201205F
:1011600084F82000002070BD41F08001C0E741F00C
:101170004001C5E741F02001CAE721F01001CFE7A7
:1011800041F00801D4E741F00401D9E7F0B587B098
:10119000044614216846FFF75EF83A493A4ADFF8F8
:1011A000E0E00868D4F800C0374B02240325092684
:1011B00010320027401CF44523D10860012807D1D4
:1011C000106840F000701060106800F0007005902A
:1011D000186840F0010018601868694600F00100C6
:1011E00005904FF4C0508DE89100CDE90356274893
:1011F00000F01AFA00221146142000F063FB1420BC
:1012000039E0DFF88CE0F44537D1D2F800C04CF07B
:10121000806CC2F800C0D2F800C001280CF0806CCD
:10122000CDF814C0086007D1106840F0007010605D
:10123000106800F000700590186840F00200186017
:101240001868694600F00200059060208DE8910062
:10125000CDE903560F4800F0E7F9002211463F2080
:1012600000F030FB3F2000F01FFB00221146402021
:1012700000F028FB402000F017FB07B0F0BD000095
:10128000006400406000002030380240000002404E
:101290000068004000040240704770477047704784
:1012A000704770B5044690F82000012804D0606AA9
:1012B00040F40020606217E0022084F820002068DB
:1012C000016821F00101016000F08EFA05460DE091
:1012D00000F08AFA401B0A2808D9606A40F40030FE
:1012E0006062052084F82000012070BD20684068FD
:1012F000C007EDD1606270BD70477047704770479E
:1013000070477047704790F83510022903D080214C
:10131000416501207047052180F83510006801689B
:1013200021F0010101600020704700002DE9F84321
:1013300004464FF00009CDF8009063484FF4165171
:10134000A56D0068B0FBF1F72E6894F85C200821C9
:1013500001FA02F030420FD02068026852070BD524
:10136000026822F00402026094F85C008140A960E7
:10137000606D40F00100606594F85C104FF001086A
:1013800008FA01F0304208D021684969090604D5FD
:10139000A860606D40F00200606594F85C10042065
:1013A0008840304208D021680968890704D5A860C0
:1013B000606D40F00400606594F85C101020884077
:1013C000304218D021680968090714D5A860206840
:1013D0000168490304D50068000308D5A16C07E043
:1013E0000168C90503D4016821F008010160216C7E
:1013F00009B12046884794F85C102020884030428C
:1014000031D021680968C9062DD5A86094F8350047
:1014100005282068016806D0490347D50068000305
:101420001DD4616C1CE021F0160101602068416947
:1014300021F080014161206C08B9A06C20B12068C6
:10144000016821F00801016094F85C103F20884099
:10145000A86084F8349084F83580216D1FE0E16B3A
:1014600009B120468847606D00282BD0606DC00709
:1014700014D0052084F835002068016821F00101AE
:1014800001600098401C0090B84203D820680068B2
:10149000C007F6D184F8349084F83580E16C0029D7
:1014A00010D001B02046BDE8F04308470168C905E7
:1014B000D5D4016821F01001016084F8349084F8DB
:1014C0003580CCE7BDE8F883900000202DE9F0419D
:1014D000044600F089F905465CB1002684F83460C2
:1014E000022084F835002068016821F001010160C4
:1014F0000DE00120BDE8F08100F076F9401B0528E1
:1015000005D920206065032084F83500F2E72068C3
:101510000068C007F0D121680A6820480240D4E979
:1015200001031843D4E903352B4318436369184377
:10153000A3691843E3691843236A18431043626A96
:10154000042A03D1D4E90B231A431043086020680E
:101550004069656A20F0070128460D4301270428E9
:101560000CD1A06A0543E06A40B12046FFF782FA39
:1015700020B14020606584F83570BAE72068456185
:101580002046FFF763FA94F85C203F219140816088
:10159000666584F835700020ACE700003F8010F0ED
:1015A0002DE9F0410446866D90F8340000250128AD
:1015B0000DD0012084F8340094F835700020012FFC
:1015C00007D084F8340002252846BDE8F0810220C7
:1015D000FBE7022784F8357060652046FFF774FA50
:1015E00094F85C103F208840B0602068016841F0AA
:1015F00016010160206C20B12068016841F00801EB
:1016000001602068016841F001010160DCE770477A
:10161000044910B50A68024202D00860FFF7F7FFDC
:1016200010BD0000143C01402DE9F84FDFF880B1F7
:1016300000224FF003094FF00F0A0BF1040E0125B1
:101640000B6895402B40AB4272D14C68012C05D001
:10165000022C03D0112C01D0122C10D1866854001A
:1016600009FA04F7BE43CF68A7403743876046684E
:101670000C79AE43C4F30014944034434460C4680E
:10168000570009FA07F58E68AC43BE402643C66092
:101690004C68022C01D0122C12D1D40800EB840C1F
:1016A000DCF820605407E40E0AFA04F826EA08067B
:1016B000D1F8108008FA04F848EA0608CCF820802F
:1016C0000468AC430D7905F00305BD402543056072
:1016D0004C68E40065D5374C256845F480452560A5
:1016E000246822F0030504F480440094324C2E193F
:1016F000D6F808789407250F0AFA05F4A7432F4C6B
:10170000A04201D1002424E02D4CA04201D10124AB
:101710001FE02C4CA04201D102241AE02A4CA04226
:1017200001D1032415E0294CA04202D1042410E089
:1017300037E0274CA04201D105240AE0254CA04205
:1017400001D1062405E0244CA04201D1072400E089
:101750000824AC403C43C6F80848DBF800405D462E
:101760004E689C43F60300D51C432C60DEF8004015
:1017700075464E689C43B60300D51C432C600C4D47
:1017800008352C684E689C43F60200D51C432C603B
:10179000074D0C352C684E689C43B60200D51C439F
:1017A0002C60521C102AFFF44AAFBDE8F88F0000ED
:1017B000003C01404438024000300140000002403B
:1017C0000004024000080240000C024000100240E9
:1017D0000014024000180240001C02400AB181615E
:1017E00070470904FBE7000001488068704700006B
:1017F00084000020024881680278114481607047AB
:10180000840000200B4810B5016841F400710160AC
:10181000016841F480610160016841F480710160F8
:10182000032000F06FF8002000F006F800F024F824
:10183000002010BD003C024070B50D4D04464FF431
:101840007A712878B1FBF0F00A490968B1FBF0F031
:1018500000F0F8FA48B9102C07D200222146501E99
:1018600000F030F800206C6070BD012070BD0000F9
:1018700084000020900000200A4808B5016841F467
:1018800080410160006800F4804000900548001F1E
:10189000016841F080510160006800F080500090C4
:1018A00008BD000044380240002809DB00F01F0298
:1018B000012191404009800000F1E020C0F80011B2
:1018C00070470000F0B40E4B1B68C3F30223C3F152
:1018D0000704042C00D904241D1D072D01D2002368
:1018E00000E0DB1E012606FA04F56D1E0D409D404A
:1018F0009E40761E164045EA0601F0BC02F038B95B
:101900000CED00E0064A00F0070110684FF6FF03F7
:10191000184040EA01200349084310607047000066
:101920000CED00E00000FA052DE9F0470D4604003B
:1019300065D0DFF81491D9F80000EFB200F00F0085
:10194000A84207D289F80070D9F8000000F00F0013
:10195000A84254D120683D4E810712D5400703D5D7
:10196000306840F4E05030602078000703D53068DC
:1019700040F4604030603068A16820F0F000084317
:1019800030602078C0072DD03049606808390128C0
:1019900012D0022813D0032811D009688907002922
:1019A0002DDA316821F0030101433160FFF71CFF9C
:1019B000804641F2883A0EE009688903EFE709683A
:1019C0008901ECE7FFF710FFA0EB0801514502D9B0
:1019D0000320BDE8F0873068616800F00C00B0EBD0
:1019E000810FEFD1D9F80010484601F00F01A9424C
:1019F00007D90770006800F00F00A84201D001204D
:101A0000E7E72078400705D53068E16820F4E0502A
:101A1000084330602078000706D53068216920F43B
:101A2000604040EAC100306000F038F83168084A90
:101A3000C1F30311515CC8400649086006480068BC
:101A4000FFF7FAFE0020C4E7003C024008380240DD
:101A50003C4C000890000020880000200448054904
:101A600000680968044AC1F38221515CC84070478C
:101A700090000020083802404C4C000804480549FA
:101A800000680968044AC1F34231515CC84070479C
:101A900090000020083802404C4C0008154810B552
:101AA000006810F00C01144813D0431004290FD023
:101AB00008290ED10F4C241F216801F03F02216834
:101AC000490207D52068C0F38810A0FB030106E097
:101AD000184610BD2168C1F38811A1FB0001002345
:101AE000FEF76EFB2168C1F30141491C4900B0FBC0
:101AF000F1F010BD083802400024F4002DE9F84F41
:101B0000040075D02078DFF828A3C007AAF10405E7
:101B100048D00AF104000168C1F38101012908D00D
:101B20000068C0F3810002280AD1DAF80000400200
:101B300006D52868800335D560680028E1D031E0FB
:101B40006068B0F5803F10D0B0F5A02F286810D0A5
:101B500020F480302860286820F4802028606068A5
:101B6000A0B1FFF741FE06460CE0286840F4803043
:101B7000F4E740F480202860F7E7FFF735FE801B8C
:101B8000642871D828688003F7D50BE0FFF72CFE96
:101B9000064604E0FFF728FE801B6428F1D8286879
:101BA0008003F7D42078DFF88C9280074FF0000B89
:101BB0003DD59F48001D016811F00C0F08D000684A
:101BC000C0F3810002280AD1DAF80000400206D4EE
:101BD0002868800715D5E068012809D111E0E06880
:101BE000B8B10121C9F80010FFF7FEFD064605E077
:101BF0001AE1FFF7F9FD801B0228C2D82868800788
:101C0000F7D52868216920F0F80040EAC100286073
:101C10000DE0C9F800B0FFF7E7FD064604E0FFF766
:101C2000E3FD801B02281FD828688007F7D420789E
:101C3000000722D57E4F80486169703771B101215C
:101C40000160FFF7D1FD064604E0FFF7CDFD801BE4
:101C5000022809D838688007F7D50EE0C0F800B030
:101C6000FFF7C2FD064605E082E0FFF7BDFD801BE1
:101C700002287DD838688007F7D42078400765D5DA
:101C80006B484FF000083C300068C0000BD4684837
:101C90003C30016841F08051016000684FF001085C
:101CA00000F080500090654F3868C0050FD4386848
:101CB00040F480703860FFF797FD064604E0FFF7B8
:101CC00093FD801B022853D83868C005F7D5584FBC
:101CD000A0686C3701280FD00528386810D020F094
:101CE00001003860386820F004003860A068B0B1A6
:101CF000FFF77AFD06460EE0386840F00100F4E791
:101D000040F004003860F7E7FFF76EFD811B41F2F9
:101D10008830814263D838688007F5D50DE0FFF739
:101D200063FD064606E0FFF75FFD811B41F2883048
:101D3000814254D838688007F5D4B8F1000F05D037
:101D40003B483C30016821F080510160A069B8B384
:101D50003749091D0968C1F38101022946D00228CB
:101D6000584606D0C9F86000FFF73EFD044639E04A
:101D700035E04F46C9F86000FFF736FD064604E03F
:101D8000FFF732FD801B022829D828688001F7D48C
:101D9000D4E907010843A16A294A490802EB014135
:101DA000626A41EA8211084394F82C1040EA01610A
:101DB000CAF8001001203866FFF716FD044605E05A
:101DC00034E0FFF711FD001B022808D828688001C5
:101DD000F7D52BE0FFF708FD001B022802D90320EE
:101DE000BDE8F88F28688001F4D41FE00128F7D0FF
:101DF000DAF80000E26900F48001914214D1226A0D
:101E000000F03F0191420FD147F6C071626A014074
:101E1000914209D1A26A00F44031914204D1E16AB1
:101E200000F07060884201D00120D9E70020D7E798
:101E30000438024000004742800E474200700040D4
:101E40000000FFFF10B5401EB0F1807F01D30120DC
:101E500010BD4FF0E02460610F21601701F088FE93
:101E60000020A06107202061002010BD704770474E
:101E700070B590F83C20012A32D0012580F83C5002
:101E8000022280F83D2002685368946823F07006AF
:101E90000B6833435360134B02689A4214D0B2F17B
:101EA000804F11D0104B9A420ED0104B9A420BD05B
:101EB0000F4B9A4208D00F4B9A4205D00E4B9A42D4
:101EC00002D00E4B9A4204D1496824F08003194392
:101ED000916080F83D50002180F83C10084670BDAC
:101EE000022070BD000001400004004000080040D6
:101EF000000C004000040140004001400018004078
:101F000010B5040003D094F83D0010B107E00120A3
:101F100010BD002084F83C00204600F00DF802209F
:101F200084F83D00211D206801F0F8F9012084F8B3
:101F30003D00002010BD0000F0B587B0044614211C
:101F40006846FEF788F9314B266800252F49103B7B
:101F5000012202242E48B6F1804F25D02D4FBE42DB
:101F600041D10E6846F002060E60096801F00201D8
:101F70000591196841F0010119601968CDE9022540
:101F800001F001010591C021CDE9001469460494D6
:101F9000FFF74AFB002211461D20FFF793FC1D208E
:101FA000FFF782FC07B0F0BD0E6846F001060E6038
:101FB000096801F001010591196841F001011960FA
:101FC0001968CDE9002401F00101CDE90421CDE932
:101FD00002256946FFF728FB002211461C20FFF767
:101FE00071FC1C20DCE70C488642DBD1086840F01D
:101FF000040008600868002200F004000590114603
:102000001E20FFF75FFC1E20CAE700004038024098
:102010000000024000040040000800400168CA6857
:1020200042F00102CA600068816801F007010629D8
:1020300003D0016841F0010101600020704770B5D4
:10204000044690F83C00012817D0012584F83C5044
:10205000022084F83D002068826822F0770222F492
:102060007F4282600868502830D00DDC20284DD097
:1020700005DC98B310283BD148E0022070BD302821
:1020800044D0402834D139E0602828D0702806D0C8
:10209000B0F5805F2CD0B0F5005F29D10AE0CB68A5
:1020A000D1E90121206801F0AAF92068816841F096
:1020B000770109E0CB68D1E90121206801F09FF99F
:1020C0002068816841F48041816011E0CA684968F4
:1020D000206801F0A6F95021206807E016E0CA68E0
:1020E0004968206801F0EEF96021206801F091F95B
:1020F00084F83D50002084F83C0070BDCA684968EF
:10210000206801F08EF940212068EFE7226801463F
:102110001046EBE770472DE9F041044690F83C008B
:102120000D4601283CD0012684F83C60022084F84A
:102130003D00A2B3042A45D02068082A54D0D5E92E
:102140000027E968036A23F480530362D0F81CC0B7
:10215000036A2CF4407C4CEA07274FF6FF7C27F4F7
:1021600070470CEA013139434FF4204723F42043F0
:1021700007EA02321A43C16102622068C16921F490
:102180004061C1612068C169AA6841EA0221C16158
:1021900084F83D60002084F83C00BDE8F08101E057
:1021A0000220FAE7D5E90012EB68206801F04AF94D
:1021B0002068816921F00C01816120688169AA6829
:1021C00011430FE0D5E90012EB68206801F08CF9AB
:1021D0002068816921F44061816120688169AA6871
:1021E00041EA02218161D3E7D5E9002C2F7B016A06
:1021F00021F480710162C169036A21F0030141EA9F
:102200000C0121F0F00C39074FF420674CEA116102
:1022100023F4206307EA02221A43C16102622068A4
:10222000C16921F00C01C1612068C169AA6811432C
:10223000ADE710B5040003D094F83D0010B107E0FD
:10224000012010BD002084F83C00204600F00CF86E
:10225000022084F83D00211D206801F05FF8012074
:1022600084F83D00002010BD704710B50268044698
:1022700031B1042908D008291AD00C2908D11BE053
:10228000D06840F0020002E0D06840F00400D06066
:102290000122206801F0A6F82068816801F007019A
:1022A000062903D0016841F001010160002010BD42
:1022B000D06840F00800EAE7D06840F01000E6E798
:1022C00070B50446006801694FF00005C9438907ED
:1022D00015D4C168C943890711D4E91E01610120E1
:1022E0002077206880698007204602D0FFF712FF20
:1022F00004E000F098F8204600F096F82577206872
:102300000169C943490717D4C168C943490713D4B0
:102310006FF004010161022020772068806910F4C9
:10232000407F204602D0FFF7F5FE04E000F07BF886
:10233000204600F079F8257720680169C94309072C
:1023400016D4C168C943090712D46FF008010161AE
:10235000042020772068C0698007204602D0FFF75C
:10236000D9FE04E000F05FF8204600F05DF8257724
:1023700020680169C943C90617D4C168C943C906A1
:1023800013D46FF010010161082020772068C06924
:1023900010F4407F204602D0FFF7BCFE04E000F0BE
:1023A00042F8204600F040F8257720680169C943CB
:1023B000C90708D1C168C943C90704D1891E016191
:1023C000204600F032F820680169C943090609D4A3
:1023D000C168C943090605D46FF080010161204638
:1023E000FFF744FD20680169C943490609D4C16863
:1023F000C943490605D46FF040010161204600F051
:1024000015F820680169C94389060BD4C168C9431E
:10241000890607D46FF0200101612046BDE87040B5
:10242000FFF725BD70BD7047704770477047704714
:1024300070B5026804461068D168536910F00F0F38
:1024400053D003F0010501F490762E435FD0C2070C
:1024500005D0CA0503D5E26B42F00102E2634207F0
:1024600005D5DA0703D0E26B42F00202E26382078D
:1024700005D5DA0703D0E26B42F00402E2630207FB
:1024800007D501F020022A4303D0E26B42F0080294
:10249000E263E26B002A34D0800604D5880602D5B8
:1024A000204601F0A3F820684069E16BC0F380107A
:1024B00001F008010143204624D001F080F8206893
:1024C000416949061AD5416921F040014161606BBB
:1024D000A0B11B490165606BFEF715FF002810D005
:1024E000606B016DBDE87040084783060FD58B0611
:1024F0000DD52046BDE8704001F078B82046FFF7C2
:1025000096FF70BDFFF793FF0020E06370BD0306E8
:1025100006D50B0604D52046BDE8704001F046B94B
:102520004006F3D54806F1D5D168204621F0400198
:10253000D160202184F8391000F022FA70BD00002B
:102540001F35000870B5040004D094F83900002548
:1025500010B106E0012070BD84F83850204600F02C
:1025600023F8242084F839002068C16821F4005140
:10257000C160204601F086F82068016921F490418D
:1025800001612068416921F02A0141612068C16828
:1025900041F40051C160E563202084F8390084F8DB
:1025A0003A00002070BD00002DE9F04F87B00446CE
:1025B00014216846FDF74FFEBF48DFF8F882143853
:1025C0000221D4F800C0DFF8F0A203220723DFF8CD
:1025D000ECE28F0600250615C44542D1DAF80080EA
:1025E00048F01008CAF80080DAF800C00CF0100CAF
:1025F000CDF814C0D0F800C04CF0010CC0F800C0F9
:10260000006800F00100059050028DE82300694643
:102610007046CDE90323FFF707F8DFF8A882A84941
:102620004046C8F80010C0E90175C0E90356C8F873
:1026300014504FF44031C8F81850C8E90751C8F891
:102640002450FEF743FF08B1FEF75EFAC4F8348069
:10265000002211462520C8F83840FFF733F925201D
:102660006BE0DFF86482DFF850B24FF04009ABF165
:10267000040BC44566D1DBF8008048F40038CBF881
:102680000080DBF800C00CF4003CCDF814C0D0F89A
:1026900000C04CF0010CC0F800C0006800F0010060
:1026A00005900C208DE8230069467046CDE9032390
:1026B000FEF7BAFFDFF80C82844908F16008404653
:1026C000C8F80010C0E90175C0E90356C8F81450F5
:1026D000C8F81850C8F81C50C8F82050C8F8245042
:1026E000FEF7F4FE08B1FEF70FFAC4F83480C8F81C
:1026F0003840DFF8D081754908F1C00840461831EC
:10270000C0E90356C8F81450C8F81850C8F81C504F
:10271000C8F8205088E88202C8F82450FEF7D6FE98
:1027200008B1FEF7F1F9C4F83080002211462620E6
:10273000C8F83840FFF7C6F82620FFF7B5F807B00D
:10274000BDE8F08FDFF88881DFF888E1C4455DD10E
:10275000DBF80080AA4648F48028CBF80080DBF83C
:1027600000C00CF4802CCDF814C0D0F800C04CF0A0
:10277000040CC0F800C0006800F0040005904FF49D
:1027800040608DE8230069467046CDE90323FEF7DB
:102790004BFF4E49DFF8408160394046C8F80010D1
:1027A000C0E90175C0E90356C8F814504FF4003B66
:1027B000C8F81850C8E9075BC8F82450FEF786FE31
:1027C00008B1FEF7A1F9444D4048C4F834806035A3
:1027D0003038C8F8384085E88102C5E903A6C5F855
:1027E00014A0C5F818A0C5E907AB2846C5F824A071
:1027F000FEF76CFE08B1FEF787F92563002211464B
:102800002720AC63FFF75EF8272096E7334B9C4503
:1028100095D1DAF8007047F02007CAF80070DAF8AE
:10282000003003F020030593036843F004030360C2
:10283000006800F004000590C0208DE82300082007
:10284000CDE9032069467046FEF7EEFE224F1C4894
:10285000C037183838604FF02068C7E90185C7E9EC
:1028600003567D61BD61FD613D6238467D62FEF7C4
:102870002DFE08B1FEF748F96763BC63184F104896
:10288000C7E903567D61BD61FD613D6260307D62D7
:1028900087E801033846FEF719FE08B1FEF734F960
:1028A0002763002211464720BC63FFF70BF847203F
:1028B00043E700000010014044380240000002409D
:1028C00040640240E0030020004400408860024071
:1028D00000480040000802400005002000140140AC
:1028E0002006002037B5044690F83A0082B013461F
:1028F00020283AD1039AAAB3A3B394F83800012848
:1029000033D0012084F83800A262A3850025E56356
:10291000222084F83A00616B1548C863616B154842
:102920000864616B1448C864606B05652168606B5E
:10293000091DFEF735FE206801684168009184F8A2
:102940003850C16841F48071C1602068416941F02C
:10295000010141612068416941F04001416100206D
:1029600005B030BDFFE70120FAE70220F8E70000DC
:1029700079350008B53500082F35000870477047D5
:102980007047FEE7012203210148FEF727BF000040
:102990000008024038B1012807D0022807D00328D8
:1029A00007D1FEF7C3B8FFF7EDBFFEF7AFB800F0F1
:1029B000A1BB70470F4810B50D490160032141606C
:1029C00000214FF4C0228160C0E903124FF4A0023D
:1029D0004261017641768176C17601774177FEF7D3
:1029E00048FB002803D0BDE81040FEF78DB810BDAD
:1029F00000640040D00100200F4810B50D4901606F
:102A00000321416000214FF4C0228160C0E903121C
:102A10004FF4A0024261017641768176C17601775A
:102A20004177FEF726FB002803D0BDE81040FEF7F3
:102A30006BB810BD00680040F8010020254808B5BB
:102A4000016841F400110160016801F40011009176
:102A5000016841F4800101600068002200F48000F8
:102A6000009011460C20FEF72DFF0C20FEF71CFFF6
:102A7000002211460E20FEF725FF0E20FEF714FF60
:102A8000002211461020FEF71DFF1020FEF70CFF5C
:102A9000002211461120FEF715FF1120FEF704FF5A
:102AA000002211463920FEF70DFF3920FEF7FCFE0B
:102AB000002211463A20FEF705FF3A20FEF7F4FE09
:102AC000002211464520FEF7FDFEBDE808404520E6
:102AD000FEF7EABE3038024070B586B01421684671
:102AE000FDF7B9FB21480025016841F08001016034
:102AF000016801F080010591016841F00401016065
:102B0000016801F004010591016841F001010160D3
:102B1000016801F001010591016841F002010160C5
:102B20000068134E00F00200059001220321304698
:102B3000FEF754FE01240320CDE900046946304627
:102B4000CDE90245FEF770FD0A486946CDE900402F
:102B500002950948FEF768FD002211460620FEF79F
:102B6000B1FE0620FEF7A0FE06B070BD3038024070
:102B700000080240000011100004024010B58AB0A5
:102B80000024224804940594069407940894099418
:102B90000094019402944FF080410394016053210A
:102BA000C0E901144FF6FF71C0E903148461FFF717
:102BB000A7F908B1FDF7A8FF4FF48050049004A9CD
:102BC0001248FFF73CFA08B1FDF79EFF0F48FFF7E8
:102BD00030FB08B1FDF798FF089408A90B48099449
:102BE000FFF746F908B1FDF78FFF0120CDE900405E
:102BF00002940022694605480394FFF78CFA0028E6
:102C000001D0FDF781FF0AB010BD000020020020B6
:102C100010B58AB0002427480494059406940794BC
:102C2000089409940094019402942149039401604A
:102C30005321C0E9011440F2E731C0E903148021B7
:102C40008161FFF75DF908B1FDF75EFF4FF4805039
:102C5000049004A91748FFF7F2F908B1FDF754FFF3
:102C60001448FFF7E6FA08B1FDF74EFF089408A9EB
:102C700010480994FFF7FCF808B1FDF745FF012063
:102C8000CDE900400294002269460A480394FFF708
:102C900042FA08B1FDF738FF042269460548FFF7FC
:102CA0003AFA002801D0FDF72FFF0AB010BD00004E
:102CB000000400406002002010B586B000241748D0
:102CC00000940194029403940494134905940160C0
:102CD0005321C0E9011440F2E731C0E903148461D3
:102CE000FFF70EF908B1FDF70FFF4FF48050009089
:102CF00069460A48FFF7A3F908B1FDF705FF0494F8
:102D000004A906480594FFF7B3F8002801D0FDF7A1
:102D1000FBFE06B010BD000000080040A00200202D
:102D20000E4810B50C4901600D4941604FF48051C7
:102D3000816000214FF48062C0E903120422C0E9DF
:102D40000521C161FFF7FEFB002803D0BDE810405C
:102D5000FDF7DABE10BD000000100140E0020020C7
:102D6000A08601000C4810B50A4901604FF41651C5
:102D70004160002181600C22C160C0E904128161C0
:102D8000C161FFF7DFFB002803D0BDE81040FDF76D
:102D9000BBBE10BD00440040200300200C4810B50D
:102DA0000A4901604FF416514160002181600C22F4
:102DB000C160C0E904128161C161FFF7C3FB002853
:102DC00003D0BDE81040FDF79FBE10BD0048004095
:102DD000600300200C4810B50A4901604FF41651F9
:102DE0004160002181600C22C160C0E90412816150
:102DF000C161FFF7A7FB002803D0BDE81040FDF735
:102E000083BE10BD00140140A0030020FEE7A2F520
:102E10000072013A04D0012A06D0022A06D180307D
:102E2000002803D000F0F2B94030F9E7704770474E
:102E300070EEC00AC0ED030A90ED050AF4EEC00A78
:102E4000F1EE10FA01DD80ED030AD0ED030AB1EED8
:102E5000400AF4EEC00AF1EE10FA01D280ED030A46
:102E6000D0ED030A9FED350AF5EEC00AF1EE10FA37
:102E700008DD90ED061AF4EEC10AF1EE10FA01D267
:102E800080ED030AD0ED030AF5EEC00AF1EE10FA68
:102E90000AD290ED061AB1EE411AF4EEC10AF1EE33
:102EA00010FA01DD80ED030AD0ED070A90ED030A68
:102EB00030EE801A80ED071AD0ED080AB4EEE01A61
:102EC000F1EE10FA01DDC0ED070A90ED071AF1EE00
:102ED000600AB4EEE01AF1EE10FA01D2C0ED070A72
:102EE000D0ED040A70EE600AC0ED090A80ED040A14
:102EF00090ED001AD0ED071A21EE000A90ED011AAC
:102F000001EE210A90ED021A01EE200A80ED0A0A74
:102F1000D0ED0B0AB4EEE00AF1EE10FA01DDC0EDDF
:102F20000A0A90ED0A1AB1EE600AB4EEC01AF1EE88
:102F300010FA01D280ED0A0A70470000000000007C
:102F4000C0ED051A80ED0B3A80ED062AC0ED082A87
:102F500080EC030A9FED060A80ED030A80ED040A67
:102F600080ED070A80ED090A80ED0A0A704700002B
:102F70000000000070B500F58A7104460D4600F0AF
:102F800013F804F14000294600F00EF804F1800027
:102F9000294600F009F82946BDE87040014800F0D4
:102FA000FAB80000D0010020B0F90020D0ED0E0AE0
:102FB00000EE102AB8EEC00A70EEC00AC0ED050A95
:102FC00090ED070AF4EEC00AF1EE10FA01DD80ED93
:102FD000050AD0ED050AB1EE400AF4EEC00AF1EEA2
:102FE00010FA01D280ED050AD0ED050A9FED3F0AE7
:102FF000F5EEC00AF1EE10FA08DD90ED081AF4EED5
:10300000C10AF1EE10FA01D280ED050AD0ED050AF1
:10301000F5EEC00AF1EE10FA08D290ED081AF4EEBF
:10302000C10AF1EE10FA01DD80ED050AD0ED090AC2
:1030300090ED050A30EE801A80ED091AD0ED0A0AEB
:10304000B4EEE01AF1EE10FA01DDC0ED090A90EDE0
:10305000091AF1EE600AB4EEE01AF1EE10FA01D2AC
:10306000C0ED090AD0ED060A70EE600AC0ED0B0A49
:1030700080ED060A90ED021AD0ED091A21EE000A41
:1030800090ED031A01EE210A90ED041A01EE200AD8
:1030900080ED0C0AD0ED0D0AB4EEE00AF1EE10FA64
:1030A00001DDC0ED0C0A90ED0C1AB1EE600AB4EE31
:1030B000C01AF1EE10FA02D3B0EE410A01E080ED41
:1030C0000C0ABDEEC00A10F83C3F10EE102A121296
:1030D00001F8132010ED030A0078BDEEC00A01EBE1
:1030E000400010EE102A42707047000000000000FF
:1030F0007047000010B5064C012211462046FEF72D
:103100006DFB20460022BDE810400221FEF766BBA1
:103110000008024000283AD00188C1F30A021C4985
:103120000A8042788378D20842EA4312C2F30A0244
:103130004A808278C378920942EA8302037942EA9C
:103140008322C2F30A028A8002794379520842EA52
:10315000C312C2F30A02CA80427992090A72427902
:10316000C2F301124A72C2884A8102898A81428965
:10317000CA81027B0A74427B4A74827BCA82C27B08
:103180000A83008AA1F84A00012081F84C007047A8
:1031900000000020704730B587B005460C4600207F
:1031A0004FF400710091039002908DF814000820F4
:1031B00004902846FDF749FE002805DD06AB2246AF
:1031C00069462846FDF7E2FC07B030BD30B587B050
:1031D000054600200092039002908DF814000C46E2
:1031E00028460493FDF731FE002807DD06AB224692
:1031F00069462846FDF7CAFC07B030BD01221146DA
:103200000148FEF7EBFAF7E7000802404A8852BA95
:1032100002808A8852BA8280897981707047FEF76D
:10322000E9BA000030B593B030216846FDF713F8D5
:1032300014210CA8FDF70FF819480025016841F08A
:1032400080510160006800F08050119015480168BD
:1032500041F4804101600068022400F48040119034
:1032600001200090000401908001CDE9064008AAE9
:103270000420A82182E813000B906846FEF73EFC6C
:103280000CA90F2081E831004FF4A0500F90E0020C
:10329000109005210CA8FEF747FB13B030BD0000CD
:1032A00040380240007000400548016841F4700158
:1032B000016003494FF000608039086070470000EA
:1032C00088ED00E00148FEF7FBBF0000200200206F
:1032D00010B50948FEF7F4FF0848094A0168491C7F
:1032E0000160914201D90021016006480078BDE8E3
:1032F0001040FFF74FBB0000600200205800002084
:1033000040420F006400002010B501F07DF9BDE8D7
:1033100010400148FEF7D4BFA0020020F0B50268BB
:10332000254D264E264FDFF89CC0274B4FF0804E90
:10333000A84209D0704507D0B04205D0B84203D0AA
:10334000604501D0984203D122F070044A682243BC
:10335000A8421BD0704519D0B04217D0B84215D042
:10336000604513D0984211D0184CA0420ED0184C92
:10337000A0420BD0174CA04208D0174CA04205D059
:10338000164CA04202D0164CA04203D122F4407445
:10339000CA6822434C6922F08002224302608A6894
:1033A000C2620A688262A84201D0984201D10969CA
:1033B000016301214161F0BD0000014000040040B3
:1033C00000080040000C00400004014000400140A3
:1033D000004401400048014000180040001C00402B
:1033E0000020004010B501F01F010123046A8B404A
:1033F0009C430462036A8A401343036210BD10B504
:10340000846842EA032224F47F440A432243826010
:1034100010BD826822F070020A4342F00701816009
:10342000704710B5046A036A23F0010303628369DD
:1034300023F0F00343EA021324F00A020A438361F3
:10344000026210BD70B5046A24F00104046284694C
:10345000056A154EB04214D0B0F1804F11D0134E12
:10346000B0420ED0124EB0420BD0124EB04208D035
:10347000114EB04205D0114EB04202D0104EB042B3
:1034800003D124F00304144301E044F001041A07BB
:1034900024F0F00444EA126225F00A0301F00A0164
:1034A00019438261016270BD0000014000040040C8
:1034B00000080040000C00400004014000400140B2
:1034C0000018004010B5036A23F0100303628469FA
:1034D000036A24F4704444EA023223F0A00343EA6E
:1034E00001118261016210BD30B5046A24F010043C
:1034F00004628569046A25F4407545EA022222F4D3
:1035000070454FF6FF7202EA033224F0A0032A430B
:10351000A02404EA011119438261016230BD10B593
:10352000806B0021C185C184FEF781FF10BD70B59D
:10353000846B2068406994F83910C0F3C0100025EE
:10354000212904D118B1E584204600F046F820680E
:10355000406994F83A10C0F38010222904D118B1C0
:10356000E585204600F02BF8E06B40F01000E063AA
:103570002046FEF75CFF70BD10B50146806B096800
:103580000968C90513D40021C1850168CA6822F4FD
:103590008072CA6001684A6922F001024A610168CA
:1035A0004A6922F040024A61202180F83A10FFF770
:1035B000E5F910BD10B5806BFFF7E1F910BD0168AA
:1035C000CA6822F49072CA6001684A6922F0010256
:1035D0004A61202180F83A1070470168CA6822F0D9
:1035E000C002CA60202180F83910704710B590F8E9
:1035F0003A10222901D0022010BD8168B1F5805F08
:1036000011D00169002901681FD0496801F07F03CA
:10361000816A4A1C82620B70C18D491E0904090C23
:10362000C18518D02BE00269816A002A02685268BD
:1036300005D0D2B20A80816A491C8162ECE7C2F3EC
:1036400008020A80816A891CF7E74A68816A4B1C74
:1036500083620A70E0E70168CA6822F02002CA604B
:103660000168CA6822F48072CA6001684A6922F05F
:1036700001024A61202180F83A10FFF77FF900200B
:1036800010BD00002DE9F041044600680169E268C0
:1036900021F4405111430161A1682069E2690143AD
:1036A0006069104301432068C26849F20C639A4381
:1036B0000A43C26020684169A26921F44071114344
:1036C0004161E069192764253226B0F5004F354A7B
:1036D000354920684FF0000806D0884201D090425A
:1036E00036D1FEF7CBF935E0884201D0904202D1C5
:1036F000FEF7C4F901E0FEF7B1F961684A18A0FBD2
:10370000070148EB0803FCF75BFD0146B0FBF5F051
:103710000201B1FBF5F06FF01803584301EB800094
:1037200006EBC000B0FBF5F000F0F80002EB400241
:10373000B1FBF5F0584301EB800006EBC000B0FB95
:10374000F5F000F00700216810448860BDE8F081C2
:10375000FEF784F901466068830F8200A1FB070130
:10376000FCF72EFD0146B0FBF5F06FF01802504358
:1037700001EB800006EB0010B0FBF5F000F0F0026A
:10378000B1FBF5F002EB0012B1FBF5F06FF018039E
:10379000584301EB800006EB0010B0FBF5F000F0A1
:1037A0000F00D0E7001401400010014090F83910DC
:1037B000212901D0022070478168B1F5805F016A3C
:1037C0000BD04A1C0262026809785160C18C491E04
:1037D0000904090CC1840ED017E009880268C1F3FE
:1037E0000801516001690029016A02D0491C016287
:1037F000ECE7891CFBE70168CA6822F08002CA6016
:103800000068C16841F04001C160002070470000BD
:1038100010B5054B054A0649064800F0E9F8BDE831
:1038200010400448FEF704BE15310008A80100202E
:10383000E0030020E002002010B5082206490748F6
:10384000FFF750F80121044800F008F9BDE81040E6
:103850000248FEF7EDBD00006500002020030020B7
:1038600010B5082206490748FFF73CF80221044832
:1038700000F0F4F8BDE810400248FEF7D9BD0000A2
:103880006D0000206003002010B50A22054906489B
:10389000FFF728F8034800F049F8BDE81040024857
:1038A000FEF7C6BDC8070020A003002010B50D20FC
:1038B00001F080F90B4C20600D2001F07BF9606075
:1038C00009480068C16841F01001C1600020207201
:1038D0000D2060812168BDE8104008220248FFF7F2
:1038E00001B80000900100202003002010B508203E
:1038F00001F060F90B4C2060082001F05BF960607A
:1039000009480068C16841F01001C16000202072C0
:103910000820608121680246BDE810400248FEF799
:10392000E1BF0000B40100206003002010B52DEDC0
:10393000028B01785A292FD14188194C49BA21604C
:10394000818849BAA160C08840BA00B2A082FCF761
:1039500015FE9FED141B53EC112BFCF72EFDFCF70D
:103960002BFEFCF70BFE41EC100B00F011F9B0EE52
:10397000408AF0EE608A2068FCF700FE53EC182BBA
:10398000FCF71BFDFCF718FEA08180B2BDEC028B9A
:10399000BDE8104000F0F6BFBDEC028B10BD00008A
:1039A0003401002055098BD9F4DC913F10B5082073
:1039B00001F000F90C4C2060082001F0FBF8606079
:1039C0000A480068C16841F01001C16000202072FF
:1039D00008206081A4F118000A220168BDE81040A7
:1039E0000248FEF77FBF0000B4010020A0030020C2
:1039F000F8B5144602681D461268D24392062BD4CD
:103A00000A68136823F00103136002680023166834
:103A100052680092096862894968511ACEB2217AC7
:103A200051B123722168FEF75DFF6089B04213D166
:103A3000002D11D060680AE0012121726168FEF753
:103A400051FF6089B04207D1002D05D0206801B038
:103A5000AC46BDE8F0406047F8BD000002290CD13B
:103A60008088DFED060A40BA00EE100A0448B8EE7E
:103A7000C00A20EE200A80ED010A704736CD933F40
:103A800034010020FEE7000010B5122001F092F88A
:103A90000B4C2060122001F08DF86060094800682E
:103AA000C16841F01001C1600020207212206081C5
:103AB00021680246BDE810400248FEF713BF00002F
:103AC000A8010020E002002070B51B4C2DED028BF8
:103AD000A068FCF790FD41EC100B00F059F8B0EE37
:103AE000408AF0EE608AB4F90600FCF747FD53EC1B
:103AF000182BFCF762FCFCF75FFD104DC5F80001C8
:103B0000A068FCF778FD41EC100B00F0A5F8B4F9C3
:103B10000600B0EE408AF0EE608A4042FCF72EFDCF
:103B200053EC182BFCF749FCFCF746FDC5F80401E3
:103B3000BDEC028B70BD0000C0010020800600209B
:103B400003B401984100009850EAC12018BF042036
:103B50004A0D18BF40F0010040F2FF72B2EB515F16
:103B600008BF40F00200012808BF052002B07047DE
:103B70000907090E002804DB00F1E02080F800149A
:103B8000704700F00F0000F1E02080F8141D70472E
:103B900010B52F499FED2C1B2DED020B84B005981D
:103BA00020F000408842D8BF9DED040B2DDD29494F
:103BB000884209D1049840B94FF0010000F014FD8B
:103BC00000F0E2FC06B010BD05DB9DED040B00F03B
:103BD000CFFC06B010BD68469DED040B00F0E0F888
:103BE00010F0030004BF9DED021B9DED000B0CD0F7
:103BF00001280ED09DED021B9DED000B022817D071
:103C0000012000F01DFC06B010BD00F0E5FA06B082
:103C100010BD9DED021B9DED000B012000F010FC7E
:103C200051EC100B81F0004106B041EC100B10BDBF
:103C300000F0D2FA51EC100B81F0004106B041ECDB
:103C4000100B10BD0000000000000000000000008C
:103C5000FB21E93F0000F07F10B52F499FED2C1BA1
:103C60002DED020B84B0059820F000408842DCBFA7
:103C700000209DED040B32DD2849884209D10498CB
:103C800040B94FF0010000F0AFFC00F07DFC06B041
:103C900010BD05DB9DED040B00F06AFC06B010BD05
:103CA00068469DED040B00F07BF810F0030011D086
:103CB000012818D09DED021B9DED000B02281AD0A3
:103CC00000F08AFA51EC100B81F0004106B041EC93
:103CD000100B10BD9DED021B9DED000B012000F0AF
:103CE000AFFB06B010BD9DED021B9DED000B00F07B
:103CF00073FA06B010BD012000F0A2FB51EC100BCE
:103D000081F0004106B041EC100B10BD0000000036
:103D10000000000000000000FB21E93F0000F07FF0
:103D200000B52DED048BB0EE409AF0EE609A83B0B2
:103D300051EC190BFCF753FD41EC180B18EE100A6F
:103D400018EE901A8DED008B002818BF0120084353
:103D500020F00040C0F17F6000F1E040C00F14D0BF
:103D600019EE101A19EE900A8DED009B002918BF6C
:103D70000121084320F00040C0F17F6000F1E040E5
:103D8000C00F04BF012000F02FFCB0EE480A03B0C2
:103D9000F0EE680ABDEC048B00BD000000000000DE
:103DA0002DE9F14F04462DED020B2DED088B8AB065
:103DB0009FEDE70B80ED020B139EE74826F00045D0
:103DC00085420ADC9DED120B002084ED000B0AB049
:103DD000BDEC088B03B0BDE8F08FE0489FEDE0AB91
:103DE0009FEDE1BBA84247DDE14F9FEDE39B9FEDD7
:103DF000E48B9DED120B53EC1A2B51EC100B002EA3
:103E00001CDDFCF7D4FA41EC100BBD4208D053EC9A
:103E10001B2B51EC100BFCF7CAFAC4E900010BE0B4
:103E200053EC192B51EC100BFCF7C1FA53EC182B87
:103E3000FCF7BDFAC4E900010120C8E7FCF716FA57
:103E400041EC100BBD4208D053EC1B2B51EC100B76
:103E5000FCF70CFAC4E900010BE053EC192B51EC10
:103E6000100BFCF703FA53EC182BFCF7FFF9C4E92D
:103E700000014FF0FF30AAE7C348A84279DB9DED6F
:103E8000120B51EC100B00F04BFD41EC180B9FEDA9
:103E9000C00B53EC102BFCF790FA9FEDBF1B53ECBB
:103EA000112BFCF7E3F9FCF787FB0746FCF766FBF1
:103EB00041EC190B53EC1A2BFCF77FFA53EC182B3F
:103EC000FCF778FA41EC180B53EC1B2B51EC190B57
:103ED000FCF773FADFF8C8A241EC100B4FEA155853
:103EE0000125FA4453EC102B51EC180BFCF75FFA48
:103EF000032DC4E900013DD0C1F30A5005EB451183
:103F0000A8EB00001139814234DA0AEB051BB0EE50
:103F100048AA9BED000BF0EE68AA53EC102B51EC75
:103F2000190BFCF74AFA41EC1B0B51EC1A0B53EC42
:103F30001B2BFCF73CFA41EC180B51EC1A0B53EC21
:103F4000182BFCF734FA53EC1B2BFCF730FA9BEDE3
:103F5000020B41EC1A0B53EC102B51EC190BFCF734
:103F60002CFA53EC1A2BFCF722FA41EC100B6D1CC7
:103F7000B8E70EE0002EA8BF3846BFF628AF94ED94
:103F8000000B51EC100B81F00041C4E900017842B4
:103F90001DE7C6F3130040F4801EC6F30A50A0F2DA
:103FA000F530471100F01F05C5F12000DDF848B0DD
:103FB00008900020069007900520EC467949002DD6
:103FC00007EB0002794408BF51F8221009D051F8DC
:103FD000223001EB8201AB404A68089922FA01F1D4
:103FE0001943A1FB0E26A1FB0B131A449A4234BFBE
:103FF0000123002303EB06080CEB8003D3E901A6A1
:104000000E448E4234BF0121002192448A4411B1F2
:10401000924502D903E0924501D2012100E000213E
:10402000C3E901A641444CF82010011EA0F1010093
:10403000C4DC029800F10050850F0298DDE90367A7
:104040008000DDF81480FCF799FA41EC1A0B304639
:10405000FCF7A5FA9FED541B53EC112BFCF7ADF9BF
:1040600041EC1B0B3846FCF79AFA9FED511B53ECC1
:10407000112BFCF7A2F941EC180B4046FCF78FFA24
:104080009FED4D1B53EC112BFCF797F941EC190BED
:1040900051EC180B53EC192BFCF7E8F853EC1B2BE5
:1040A000FCF7E4F853EC1A2BFCF7E0F8CDE9080133
:1040B000002008909DED080B53EC1A2B51EC100BCF
:1040C000FCF775F953EC1B2BFCF771F953EC182B2B
:1040D000FCF76DF953EC192BFCF76CF99FED381BCD
:1040E00053EC112BFCF769F99FED370B41EC180BE2
:1040F00053EC102B9DED080B51EC100BFCF75DF908
:1041000053EC182BFCF7B2F89FED310B41EC180B78
:1041100053EC102B9DED080B51EC100BFCF74DF9F7
:1041200053EC182BFCF7A2F841EC100B139810F08D
:10413000004F06D06D4251EC100B81F0004141EC74
:10414000100B284684ED000B41E600000000000043
:104150000000000000000000FB21E93F7CD9024084
:1041600000004054FB21F93F3163621A61B4D03D35
:10417000FB21F93F000000000000601A61B4D03D4F
:104180007370032E8A19A33BFB2139410000000004
:1041900083C8C96D305FE43F000000000000E03FCD
:1041A000A20D0000F00C0000000000000000103E16
:1041B000000000000000103C000000000000103A69
:1041C000182D4454FB21F93D3326A611460B113C12
:1041D00000000054FB21F93D10B52DED040B2DED31
:1041E000088B82B0B0EE419AF0EE619A0B9820F005
:1041F00000449FED4BABB4F1795F11DA9DED0A0BF2
:1042000051EC100BFCF7D8F9002801BFB0EE4A0AB8
:10421000F0EE6A0A02B0BDEC088B04BF04B010BD1A
:104220009DED0A0B53EC102B51EC100BFCF7C5F86D
:1042300041EC180B3C480621B0EE480AF0EE680A43
:10424000784400F081F853EC182B51EC100BFCF77C
:10425000B4F89DED0A0B41EC1B0B53EC192B51EC00
:10426000100BFCF7AAF841EC190B53EC1B2B51EC8B
:10427000180BFCF7A2F853EC192BFCF798F89FEDFC
:104280002C0B41EC190B53EC102B51EC180BFCF7D9
:1042900094F841EC100B2848844210DA53EC192BA7
:1042A00051EC100BFCF783F853EC1A2BFCF782F857
:1042B00041EC100B02B0BDEC088B04B010BD1F48E0
:1042C000A042BCBF9FED1E1B8DED001B06DBA4F5BD
:1042D00000100190002000909DED001B51EC100B90
:1042E00053EC112BFCF763F89DED000B41EC180B20
:1042F00053EC102B51EC1A0BFCF759F841EC1A0B4C
:1043000053EC192B51EC180BFCF751F853EC1A2B0A
:10431000FCF750F841EC100BCCE700000000000067
:10432000000000000000F03F140A00000000000040
:10433000000000000000E03F3333D33F0000E93FBE
:10434000000000000000D23F70B504462DED028B46
:104350004D1E00EBC500B0EE408AF0EE608A90ED95
:10436000000B35F0060017D053EC182B51EC100B56
:10437000FCF723F841EC100B6D1E04EBC50090ED2B
:10438000001B51EC100B53EC112BFBF76FFF41ECB2
:10439000100B35F00600E7D1022D36D0042D1CD0CD
:1043A000062D1CBFBDEC028B70BD53EC182B51ECDD
:1043B000100BFCF702F894ED0A1B53EC112BFBF7E2
:1043C00055FF53EC182BFBF7F8FF94ED081B53EC4B
:1043D000112BFBF74BFF41EC100B53EC182B51EC5E
:1043E000100BFBF7EAFF94ED061B53EC112BFBF7C8
:1043F0003DFF53EC182BFBF7E0FF94ED040B53EC5F
:10440000102BFBF733FF41EC100B53EC182B51EC46
:10441000100BFBF7D2FF94ED021B53EC112BFBF7B3
:1044200025FF53EC182BFBF7C8FF94ED001B53EC52
:10443000112BFBF71BFFBDEC028B41EC100B70BD89
:1044400031B504462DED040B2DED0A8BB0EE41BACB
:10445000F0EE61BA0B989DED0A0B20F00040B0F130
:10446000795F0DDA51EC100BFFF76AFB042808BFE7
:1044700000F09AF89DED0A0BBDEC0A8B05B030BD3B
:1044800053EC102B51EC100BFBF797FF41EC180B82
:104490009DED0A0B53EC182B51EC100BFBF78DFF25
:1044A00041EC190B2C48B0EE480AF0EE680A0521E1
:1044B0007844FFF749FF9FED2ACBB0EE40AAF0EE1B
:1044C00060AA9CB353EC1C2B51EC190BFBF775FF46
:1044D00041EC1C0B53EC1A2B51EC190BFBF76DFF45
:1044E0009FED210B41EC190B53EC102B51EC1B0BE6
:1044F000FBF763FF53EC192BFBF759FF53EC182B19
:10450000FBF75BFF53EC1B2BFBF751FF53EC1C2B12
:10451000FBF74DFF9DED0A1B53EC112BFBF74AFFF8
:10452000BDEC0A8B05B041EC100B30BDFFE753EC3E
:104530001A2B51EC180BFBF740FF53EC1C2BFBF72D
:1045400095FE53EC192BFBF738FF9DED0A1B53EC3E
:10455000112BFBF78BFEE3E79C0800000000000036
:10456000495555555555C5BF000000000000E03FB6
:1045700010B553EC102B51EC100BFBF777FE41EC10
:10458000100B10BD000000009FED050B10B553ECA3
:10459000102B51EC100BFBF782FF41EC100B10BD00
:1045A00000000000000000009FED050B10B553EC6B
:1045B000102B51EC100BFBF700FF41EC100B10BD62
:1045C000000000000000001002E008C8121F08C12F
:1045D000002AFAD170477047002001E001C1121F84
:1045E000002AFBD1704700000149086070470000B5
:1045F000A000002010B500F069F8BDE810400148A7
:10460000FEF7B8BC8006002070B5174CA08808B92A
:1046100000F01AF9A088012825D1144C01254FF487
:104620009671206820B101280CD0022816D10CE028
:1046300000224FF4617000F01DF8206801280DD1B0
:1046400065600BE00022642002E000224FF4FA7063
:1046500000F010F82068022800D1A560BDE8704085
:10466000034800F0DDBA70BDC00100204C010020FD
:104670009407002070B504460D46104600F034F94A
:10468000284600F011F9204600F0F4F80C480D4CD3
:1046900090ED030AD4E940012246FFF7ABFFB4F8DE
:1046A000400000280AD12088002807D1B4F8C000B3
:1046B000002803D104480168491C016070BD000056
:1046C000C0010020800600204C0100202DE9F041AF
:1046D00004462DED068BB0EE408A00EE104A1646D9
:1046E0009FED311AF8EEC00AB0EE480A084600EE17
:1046F000810A82ED0E0AFBF741FF9FED2CAB0F46BE
:10470000054647EC190BB0EE4A0AF0EE6A0AFFF7CD
:1047100007FB53EC192B51EC100BFBF74EFE53EC3F
:104720001A2BFBF7BCFE00EE904ADFED228AB0EEBA
:10473000480AF8EEE00A41EC190B00EEE80A10EE28
:10474000100AFBF758FF53EC192BFBF730FEFBF771
:1047500065FF47EC195BB0EE4A0AF0EE6A0AB067F3
:10476000FFF7DEFA53EC192B51EC100BFBF725FE8B
:1047700053EC1A2BFBF793FE00EE104A41EC190B99
:10478000B8EEC00A00EE688A18EE100AFBF733FF95
:1047900053EC192BFBF76AFDFBF740FFC6F8B80096
:1047A000BDEC068BBDE8F081ABAA2A3F00000000FB
:1047B00000000840ABAAAA3E70B5032934D1018895
:1047C0001B4C49BA0DB219494D80428852BAA28099
:1047D000828852BA16B2E680C08840BA00B2088019
:1047E000FBF7CCFE9FED131B53EC112BFBF7E5FD04
:1047F000FBF714FF00EE105A9FED101AA060F8EEC0
:10480000C00A4FF4FA50864280EE810ADFED0C0AAE
:1048100080EE201A84ED031A00DDE080B4F9061062
:104820000848814200DAE08070BD00007800002076
:10483000C00100207B14AE47E17A843F0000C8C26B
:10484000BC74933DC0E0FFFF10B5FFF73DF907488A
:10485000074A90ED030A064800F5807003C8FFF789
:1048600035FFBDE810400248FEF784BBC0010020C0
:10487000800600200A4900EE900A10B591ED010A69
:10488000F8EE600AA1F13000FEF7D2FA04483038A1
:1048900090ED0A0A0348BDEEC00A80ED400A10BD43
:1048A00034010020800600200D4910B5B1F90C102C
:1048B00000EE900A00EE101A0948F8EE600AB8EE11
:1048C000C00A6038FEF7B4FA0548603890ED0A0A6D
:1048D0000448B1EE400ABDEEC00A80ED410A10BDA9
:1048E00034010020800600200B4910B5B1F91410E6
:1048F00000EE900A00EE101A0748F8EE600AB8EED3
:10490000C00A9038FEF794FA0348903890ED0A0AEE
:10491000024880ED030A10BD34010020C0010020D0
:1049200082B0CDE9000121F0004001909DED000B27
:1049300002B051EC100B704710B5FBF773FCFBF79E
:104940001DFE9FED0A1B53EC112BFBF7A8FD9FEDFD
:10495000091B53EC112BFBF72AFD9FED081B53ECB1
:10496000112BFBF72AFD41EC100B10BD0000C0FF1E
:10497000FFFFDF41000000000000E03F00000000FA
:10498000000000402DE9F04104462DED088BDFEDDD
:104990002C9A9FED2C9AFFF7CFFF9FED2B8B51ECBC
:1049A000100B53EC182BFBF708FD41EC1A0B2046BB
:1049B000FBF7F5FD0E4646EC110B074653EC1A2BA0
:1049C00051EC110BFBF752FCFBF728FE204C0025A5
:1049D000F7EE00BAC4F8000094ED010A94ED00AAC5
:1049E00070EE29AA3AEE890A8AEE80BAFFF7A4FF90
:1049F00053EC182B51EC100BFBF7DFFC41EC100BC8
:104A000046EC117B53EC102B51EC110BFBF72EFCF9
:104A1000FBF704FE00EE900AB0EE4A0A6D1C70EE41
:104A2000CA0A142D0BEE200A7BEECB0A60EEAA0A0E
:104A300084EC020AD0DBBDEC088BBDE8F0810000FD
:104A4000BC74933C83C00A3FB81E85EB51B89E3FAF
:104A5000500000202DED048BFCF7D4FEDFED478ADB
:104A6000B0EE683A9FED469AF0EE492A9FED458AEE
:104A7000B0EE482ADFED449AB0EE481AF0EE480A4C
:104A8000F0EE691AB3EE090A4048FEF759FAB0EEA3
:104A9000683AF0EE492AB0EE482AF0EE691AB0EE14
:104AA000481AF0EE480AB2EE0E0A3948FEF748FA04
:104AB000B0EE683AF0EE492AB0EE482AF0EE691AF4
:104AC000B0EE481AF0EE480AB2EE0E0A3148FEF790
:104AD00037FAFEF7A7FB3048002141808180C18072
:104AE00080ED028AFDF7F8FFFDF7A8FFFDF762FFF2
:104AF000FEF78EF8FEF736F9FEF712F9FEF73EF8EC
:104B0000FEF7DAF8FEF74AF9FEF764F9FDF774FFED
:104B10002248FBF755FF2148FCF7C3FB02211F4841
:104B2000FCF722F81E48FBF74BFF1D48FCF7B9FBCA
:104B300002211B48FCF718F81A48FBF7B3FEFEF7F2
:104B4000A3FF1948FDF76AFA1848FDF767FA002134
:104B50001648FDF78AFB04211448FDF786FB14482C
:104B6000FDF75CFA00211248FDF77FFBFEF79EFE81
:104B7000FEF7BCFEFEF71AFFFEE7000000007A44D5
:104B80000000FA43000000000000FA44A4000020E6
:104B9000D400002004010020C0010020D00100202A
:104BA000F801002080060020A00200206002002002
:104BB00020020020F0B50B30154D20F00701002435
:104BC000144A0FE003688B420BD38B4205D95E1A5F
:104BD00043184768C3E9006700E04368136002C0F8
:104BE00004E0021D10680028ECD12046002802D104
:104BF000286808B10020F0BD064A07481060074A3F
:104C0000121A22F00702C0E9002401202860D7E729
:104C10009C00002098000020F4070020F0090020EC
:104C20000823032201490248FEF7D0BA9C0700205E
:104C3000F801002000061016000610160000000003
:104C4000000000000102030406070809000000003C
:104C500001020304000000004C5555555555A53F71
:104C60007751C1166CC156BF9015CB19A001FA3E01
:104C7000AD529C804F7E92BEC4B1B4BD9EEE213E2B
:104C8000D43888BEE9FAA8BD00004054FB21F93FA2
:104C90003163621A61B4D03D0000601A61B4D03D46
:104CA0007370032E8A19A33B0000002E8A19A33BC0
:104CB000C14920259A837B390000000000000000D4
:104CC0006E83F9A22915444ED15727FCC0DD34F577
:104CD000999562DB4190433CAB6351FE61C5BBDEFD
:104CE0003A6E24B7E0D24D42EA2E49061C92D10911
:104CF0001CEB1DFE3EA729B1F53582E88444BB2E8E
:104D000026709CE9417E5FB439D69139F4395383DA
:104D10008B5F849C3B28F9BDFF97F81F0F9805DE39
:104D20008B112FEF1F6D0A5ACF7E366DB709CB2737
:104D3000663F464F2DEA5F9EC7BA27757BF1E5EBCC
:104D4000F739073DEA92528AB15FFB6B085D8D1F10
:104D5000A6F810111111813FD561C119A0012ABF18
:104D60007DFEB157E31DC73EEB9C2B8AE6E55ABE9C
:104D70007CD5CF5A3AD9E53D984D00080000002077
:104D8000A4000000C84500083C4E0008A400002014
:104D90004C0D0000D8450008000400040004000485
:104DA00002020000000000000000000000000000FF
:104DB00000000000000000000000000000000000F3
:104DC00000000000000000000000000000000000E3
:104DD00000000000000000000000000000000000D3
:104DE0000000000400000000000000000AD7A33CFF
:104DF00000000000000000000000000000000000B3
:104E000000000000000000000000000000000000A2
:104E10000000000000000000000000000100000091
:104E200010000000000000000024F400000000005A
:0C4E300000000000000000000000000076
:040000050800018965
:00000001FF
