:020000040800F2
:10000000A80A00209D0100088B2B00083928000851
:10001000692B000851090008133700080000000090
:10002000000000000000000000000000552E000845
:10003000910A0008000000003D2D00089F2E0008D6
:10004000B7010008B7010008B7010008B7010008B0
:10005000B7010008B7010008950A0008B7010008B9
:10006000B7010008B7010008B7010008B701000890
:10007000B7010008B7010008B7010008B701000880
:10008000C9090008D5090008B7010008B701000830
:1000900055090008B7010008B7010008B7010008BA
:1000A000B7010008B7010008B7010008B701000850
:1000B000B5300008C1300008B7010008B7010008DA
:1000C000B7010008B7010008B7010008B701000830
:1000D000B70100085936000881360008B70100084A
:1000E000B7010008B7010008B7010008B701000810
:1000F000B7010008B7010008B7010008B701000800
:10010000B7010008B7010008B7010008B7010008EF
:10011000B7010008B7010008B7010008B7010008DF
:10012000B7010008B7010008E1090008B70100089D
:10013000B70100080000000000000000B70100083F
:10014000B7010008B7010008B7010008B7010008AF
:10015000B7010008B7010008B7010008B70100089F
:10016000B7010008B7010008B7010008B70100088F
:10017000B7010008B70100080000000000000000FF
:10018000B7010008B7010008DFF80CD000F076FBDB
:1001900000480047E1490008A80A002006488047B7
:1001A00006480047FEE7FEE7FEE7FEE7FEE7FEE75C
:1001B000FEE7FEE7FEE7FEE7993000088901000848
:1001C0002DE9F05F0546002092469B46884606468C
:1001D000814640241BE0284641464746224600F01F
:1001E00048FA53465A46C01A914110D31146184650
:1001F000224600F02FFA2D1A67EB01084F462246DF
:100200000120002100F026FA17EB00094E41201EC4
:10021000A4F10104DFDC484631462A464346BDE8E6
:10022000F09F00000649074A0868504343F239022C
:10023000104408604008704701490860704700009A
:10024000980000206D4EC641D2B201E000F8012BAB
:10025000491EFBD270470022F6E710B513460A4646
:1002600004461946FFF7F0FF204610BD2DE9FE4F6A
:10027000804681EA0300C00F0C46009021F0004147
:1002800023F00045B8EB0200A94105D240462146C3
:1002900090461C460B46024623F00040104347D0D0
:1002A000270DC7F30A00C3F30A510290401A0190C8
:1002B00040286BDAC3F3130040F4801B0098924689
:1002C00020B10023D2EB030A63EB0B0B01985946D4
:1002D000C0F14002504600F0BDF906460D465046BA
:1002E0005946019A00F0D5F910EB0800614100244D
:1002F00087EA115284EAE7731A4340D0009A62B346
:10030000019A012A4FEA075215DC001B61EB02013A
:100310004FF0004202EA0752CDE90042001C41F5CD
:10032000801132462B4600F00AFA03B0BDE8F08F88
:1003300040462146F9E7001B61EB0201001C41F534
:10034000801300185B412018A2F5001747EB03014A
:1003500040EAD570B6196D4111E06D084FEA3606D6
:1003600045EAC0754FEA0752001B61EB0201001C11
:1003700041F5801149084FEA3000001951413246D9
:100380002B4603B0BDE8F04F00F0CCB90098012235
:1003900040000023D0EB020263EBE073009821469B
:1003A0004FEAE074B8EB000061EB0401E9E783F089
:1003B00000435BE781F0004158E72DE9FE4F81EAF9
:1003C000030404F0004421F0004100944FF0000BBE
:1003D00023F0004350EA01045ED052EA03045BD0EC
:1003E000C3F30A54C1F30A552C44A4F2F334019424
:1003F000A0FB0254C1F3130141F48011C3F31303B2
:1004000043F4801301FB024400FB034E840A970A65
:1004100044EA815447EA8357A4FB076802958D0A92
:1004200005FB07854FEA932C04FB0C542705029D1E
:100430004FEA065847EA1637B5EB08056EEB070C8E
:10044000870E920E47EA811742EA8312A7FB020148
:10045000B6EB0B0164EB00042B0D43EA0C335E1882
:1004600044EB1C50DA465146E7FB0201C5F3130486
:100470004FEA0B3343EA14534FEA0432019C43EA38
:100480000603A4F10C040294009CCDE900B400F032
:1004900056F903B0BDE8F08F00200146F9E72DE9D9
:1004A000F04D81EA030404F0004B21F000451446AE
:1004B0004FF0000A23F0004150EA050220D054EA30
:1004C00001021DD0C5F30A570246C5F31303C1F359
:1004D0001300C1F30A5640F4801543F48013A7EBD0
:1004E0000608101BD64608F2FD3873EB050002D350
:1004F00008F1010801E092185B41B8F1000F03DA3E
:1005000000200146BDE8F08D00204FF48011064622
:1005100084460EE0171B73EB050705D3121B63EB34
:10052000050306434CEA010C49084FEA30009218D3
:100530005B4150EA0107EDD152EA030012D082EA92
:10054000040083EA0501084305D0101BAB4106D225
:100550000122002306E000224FF0004302E06FF08A
:10056000010253101AEB06004CEB085110EB0A0085
:1005700041EB0B01BDE8F04D00F0D4B80EB5C10F52
:1005800080EAE0700844CA07002140F233438DE856
:100590000E000A460B4600F0D2F803B000BD0EB5BF
:1005A00040F2334102910021CDE900110A460B4689
:1005B00000F0C5F803B000BD70B5C1F30A5201F0F8
:1005C00000450024C1F3130140F2FF3341F48011D0
:1005D0009A4201DA002070BD40F233439A42A2F2FF
:1005E000334203DC524200F044F800E090402C43D8
:1005F000F1D0404270BD00F0004230F000400AD01F
:10060000C10D01F56071C0F3160042EA0151C20844
:1006100040071143704700200146704701F0004336
:1006200030B421F0004150EA010206D00A0DA2F5D3
:100630006072C1F31301002A02DC30BC0020704755
:10064000440F44EAC104C100E01830BC00EBC250C2
:1006500000F031B8202A04DB203A00FA02F1002031
:1006600070479140C2F1200320FA03F319439040F0
:100670007047202A04DB203A21FA02F0002170475B
:1006800021FA02F3D040C2F12002914008431946FA
:100690007047202A06DBCB17203A41FA02F043EAE2
:1006A000E07306E041FA02F3D040C2F1200291402B
:1006B0000843194670470029A8BF7047401C4900ED
:1006C00008BF20F00100704710B4B0FA80FC00FAB7
:1006D0000CF050EA010404BF10BC704749B1CCF1E2
:1006E000200421FA04F411FA0CF118BF012121436E
:1006F0000843A3EB0C01CB1D4FEA00614FEA102029
:1007000042BF002010BC704700EBC35010440029CA
:10071000A4BF10BC7047401C490008BF20F0010076
:1007200010BC704710B5002B08DA401C41F10001E5
:1007300092185B411A4301D120F0010010BD2DE950
:10074000F04D92469B4611B1B1FA81F202E0B0FA47
:1007500080F220329046FFF77DFF04460F4640EAC4
:100760000A0041EA0B0153465A46084313D011468A
:1007700053EA010019D0C8F140025046FFF779FF53
:1007800005460E46504659464246FFF763FF08436A
:1007900005D0012004E020463946BDE8F08D002058
:1007A000054346EAE0762C4337430A986305E40A9A
:1007B000A0EB08000022FD0A44EA47540A3002D5A3
:1007C00000200146E9E7010510196941DDE9084506
:1007D00000196941BDE8F04DA4E72DE9F04D002373
:1007E0001A461B1A8A4103DB00200146BDE8F08D42
:1007F000C1F30A52C1F3130141F480154FF0000B0D
:10080000D10702D100186D41521E0027044640F264
:10081000FF11384601EB620A3E4680460246002040
:100820004FF48011FFF725FFC2197141BB1846EB49
:100830000100B4EB030C75EB000C04D3E41A65EB78
:10084000000517460E46241908F101006D41804647
:100850003428E3DDF91946EB0600091BA84103D251
:100860004FF0FF32134601E0002213461BEB070056
:1008700046EB0A51BDE8F04DFFF754BF064C074D5B
:1008800006E0E06840F0010394E807009847103460
:10089000AC42F6D3FFF77CFC184C0008384C00083B
:1008A000DFED283A9FED254ADFED254A9FED265AD8
:1008B000DFED265A00B50146B0EE443AF0EE642A68
:1008C000B0EE632AF0EE451AB0EE631AF0EE650A58
:1008D000B2EE0E0A083002F059F9002081F83C000F
:1008E00001F14002B0EE443AF0EE642AB0EE632A21
:1008F000F0EE451AB0EE631AF0EE650AB2EE0E0A9B
:1009000001F1480002F042F9012082F83C008031F8
:10091000B0EE443AF0EE642AB0EE632AF0EE451AE7
:10092000B0EE631AF0EE650AB2EE0E0A01F10800AD
:1009300002F02CF9022081F83C0000BD0000FA45CD
:1009400000803B450000000000A00C46CDCCCC3D13
:10095000FEE7000010B586B00D4800F05CFA0D4BC4
:1009600000211C4603F10802094800F0CAF90948B1
:10097000214608300268A0F5967002F0F6F89DF85E
:1009800014206946044801F015FF06B010BD0000B0
:100990000401002070040020EC01002000B58BB0A1
:1009A0000020012101900290089105900490CDE96A
:1009B00006010090039009906946024800F01AF978
:1009C0000BB000BD04010020014800F039BC00005C
:1009D0008C020020014800F033BC0000EC02002033
:1009E000014800F02DBC00002C02002001681823F3
:1009F000CAB2103AB2FBF3F2054B6FF30901032AB6
:100A00009B5CC36500D9091D8165084670470000DD
:100A1000D44A000810B5014600208B698A6A4FF05D
:100A2000C07453B1B3F5005F15D072B1012A0CD078
:100A3000022A0AD0032A09D104E01AB1012A06D0F9
:100A4000022A03D1C96AC90100D5012010BDC96AB3
:100A5000A142FAD010BD002AF7D0012AF2D0022A12
:100A6000F3D0032AF3D010BD30B50468256825F40F
:100A700080252560046863608368402B036803D089
:100A800099600068C26030BD9A600068C16030BD86
:100A90007047000010B5012000F044FD014901201D
:100AA000086010BD700000207047000010B5064CB3
:100AB00001220221204600F01DFE20460022BDE852
:100AC0001040012100F016BE0008024010B50C4C89
:100AD00000220121204600F00DFE0A486421006832
:100AE000B0FBF1F201FB12000A2801D8012200E05C
:100AF00000222046BDE81040022100F0FBBD0000AE
:100B0000000802406C00002090F82020012A07D045
:100B1000022A05D0416A41F48021416201207047D8
:100B2000006842690A43426100207047F0B590F8BE
:100B300020500468A468012D05D0022D03D0416A1D
:100B400041F4802153E014F0406F01D1E5004BD512
:100B5000C4F30164022C03D9416A41F4000146E068
:100B60000125A5401D608D684FF4C0739DB1CE680E
:100B700035434E6845EAC605066803EB0417F55190
:100B80004FF4C275076805EB04150E697E51097DA7
:100B9000012905D009E00E88CD6845EA4655EBE706
:100BA00001684E5946F480764E511179D2F80550BD
:100BB0004FF4C67641EA0525016806EB04168D510F
:100BC0001178D2F801204FF4C47541EA022102687D
:100BD00005EB04155151006803EB0411425842F033
:100BE000010242500020F0BD416A41F4001141620F
:100BF0000120F0BD10B590F82020012A07D0022A6C
:100C000005D0416A41F480214162012010BD3B487A
:100C1000D0F8002242F00102C0F80022D0F80022F1
:100C200022F47C52C0F80022D0F800224B6A42EA3B
:100C30000322C0F800220A7D02F01F0301229A401D
:100C4000D0F81C329343C0F81C32CB69B3B9D0F84A
:100C50000C329343C0F80C328C894B6864F31F4309
:100C60004C6900EBC404C4F840320C890B6864F38F
:100C70001F434C6900EBC404C4F84432CB69012B18
:100C800016D1D0F80C321343C0F80C320C884B68E4
:100C900064F31F434C6900EBC404C4F840320C8970
:100CA000CB6864F31F434C6900EBC404C4F84432BE
:100CB0008B69002BD0F804320ED01343C0F80432F5
:100CC0000B69002BD0F8143208D01343C0F814324B
:100CD000096A012904D008E09343EFE79343F5E75D
:100CE000D0F81C121143C0F81C12D0F8001221F0E9
:100CF0000101C0F80012002010BD00000064004097
:100D0000704730B590F82040012C05D0022C03D05C
:100D1000416A41F480215DE00468002955D02469CE
:100D2000A40754D04FF4D874056804EB01142D596E
:100D300015F00405956005682D594ED0ED085560F5
:100D400005682C5904F00204D4604FF4DA74056885
:100D500004EB01142D5905F00F05156105682D5997
:100D6000C5F30725956105682C59240C54614FF48F
:100D7000DC72046802EB0112A4581C700468A458C9
:100D8000240A5C700468A458240C9C700468A2585F
:100D9000120EDA704FF4DE72046802EB0112A458EE
:100DA0001C710468A458240A5C710468A458240CBB
:100DB0009C710468A258120EDA71006881B1016951
:100DC00041F020010161002030BDE468A8E7416ADC
:100DD00041F400114162012030BD6D0D1560AFE797
:100DE000C16841F02001C160EDE70246002092F8A1
:100DF0002010012901D002290CD111688A68520102
:100E000000D501208A68120100D5401C8968C900FC
:100E100000D5401C70472DE9F05F054600680024AE
:100E20004669D0F804908768D0F80CB0D0F810A0CC
:100E3000D0F81880F10748D0F90714D0012181605B
:100E4000B80703D5284600F0E2F90CE0780702D590
:100E50004FF4006407E0380702D54FF4805402E0F5
:100E6000284600F0D3F9F80516D529684FF48070AC
:100E70008860B80503D5284600F0CBF90CE078056A
:100E800002D544F4005407E0380502D544F4804408
:100E900002E0284600F0BCF9F80316D529684FF4A3
:100EA00080308860B80303D5284600F0B4F90CE020
:100EB000780302D544F4004407E0380302D544F433
:100EC000803402E0284600F0A5F9300707D55FEA34
:100ED000CB6004D52968102044F40074C860700702
:100EE0004FF0080707D55FEA0B7004D52868C76084
:100EF000284600F059F9B00706D52868C068800771
:100F000002D0284600F051F9700607D55FEACA60A2
:100F100004D52968102044F480640861B00607D520
:100F20005FEA0A7004D528680761284600F03EF998
:100F3000F00606D528680069800702D0284600F030
:100F400036F9B00308D55FEAC96005D529681020D5
:100F50004860284600F02CF9F00307D55FEA0970D5
:100F600004D528684760284600F056F9300446D575
:100F70005FEA497040D5F00504D55FEAC87001D03A
:100F800044F00104B00504D55FEA887001D544F04F
:100F90000204700504D55FEA487001D544F00404EA
:100FA000300529D518F0700F26D008F070004028C1
:100FB00015D006DC102809D020280AD0302816D1F8
:100FC0000AE050280ED0602811D10EE044F0080449
:100FD0000DE044F010040AE044F0200407E044F07F
:100FE000400404E044F0800401E044F48074286884
:100FF000816921F070018161296804204860002C1A
:1010000005D0686A204368622846FFF779FEBDE88C
:10101000F09F70B5040003D094F8200010B104E0F4
:10102000012070BD204600F081F82068016821F0A1
:101030000201016000F064FB0546052604E000F0B3
:101040005FFB401B0A2811D8206840688007F6D44F
:101050002068016841F00101016000F051FB054684
:101060000BE000F04DFB401B0A2806D9606A40F4F3
:101070000030606284F82060D2E720684068C007D2
:10108000EFD0207E0128206801683DD021F080014A
:101090000160607E01282068016838D021F040019D
:1010A0000160A07E01282068016833D021F0200172
:1010B0000160E07E0128206801682ED041F0100117
:1010C0000160207F01282068016829D021F00801F3
:1010D0000160607F01282068016824D021F00401AC
:1010E0000160D4E902010843D4E904121143084322
:1010F0006168491E08432168C861002060620120C0
:1011000084F82000002070BD41F08001C0E741F06C
:101110004001C5E741F02001CAE721F01001CFE707
:1011200041F00801D4E741F00401D9E710B586B0D9
:10113000044614216846FFF78EF818492068884253
:1011400029D117480021026842F00072026000684D
:1011500000F00070059012481038026842F0010259
:101160000260006800F0010005904FF4C05000904C
:101170000220CDE901010320039009200490694673
:10118000084800F0DBF900221146142000F026FB8D
:10119000142000F015FB06B010BD000000640040F4
:1011A0004038024000000240704770477047704767
:1011B0007047000070B5044690F82000012804D064
:1011C000606A40F40020606218E0022084F8200089
:1011D0002068016821F00101016000F091FA0546E4
:1011E0000EE000BF00F08CFA401B0A2808D9606AA4
:1011F00040F400306062052084F82000012070BDBA
:1012000020684068C007EDD1606270BD70477047CC
:101210007047704770477047704790F83510022943
:1012200003D08021416501207047052180F83510E9
:101230000068016821F00101016000207047000092
:101240002DE9F84304464FF00009CDF800906348BB
:101250004FF41651A56D0068B0FBF1F72E6894F8B5
:101260005C10082000FA01F131420FD021680A68B1
:1012700052070BD50A6822F004020A6094F85C1049
:101280008840A860606D40F00100606594F85C10D3
:101290004FF0010808FA01F0304208D0216849698E
:1012A000090604D5A860606D40F00200606594F8FE
:1012B0005C1004208840304208D021680968890702
:1012C00004D5A860606D40F00400606594F85C107F
:1012D00010208840304218D021680968090714D5C9
:1012E000A86020680168490304D50068000308D598
:1012F000A16C07E00168C90503D4016821F0080169
:101300000160216C09B12046884794F85C102020C8
:101310008840304231D021680968C9062DD5A860BF
:1013200094F8350005282068016806D0490347D5A0
:10133000006800031DD4616C1CE021F016010160FF
:101340002068416921F080014161206C08B9A06CDE
:1013500020B12068016821F00801016094F85C1058
:101360003F208840A86084F8349084F83580216D4F
:101370001FE0E16B09B120468847606D00282BD043
:10138000606DC00714D0052084F83500206801681E
:1013900021F0010101600098401C0090B84203D880
:1013A00020680068C007F6D184F8349084F835804E
:1013B000E16C002910D001B02046BDE8F043084799
:1013C0000168C905D5D4016821F01001016084F8D5
:1013D000349084F83580CCE7BDE8F8839400002091
:1013E0002DE9F041044600F08BF906465CB100257A
:1013F00084F83450022084F835002068016821F018
:10140000010101600DE00120BDE8F08100F078F9F4
:10141000801B052805D920206065032084F835004D
:10142000F2E720680068C007F0D122681168204800
:101430000140D4E901031843D4E903363343184388
:1014400063691843A3691843E3691843236A18437F
:101450000843616A042903D1D4E90B1319430843F3
:10146000106020684069666A20F0070130460E432C
:10147000012704280CD1A06A0643E06A40B1204647
:10148000FFF7C8FA20B14020606584F83570BAE7EC
:10149000206846612046FFF7A9FA94F85C203F21B6
:1014A00091408160656584F835700020ACE70000EC
:1014B0003F8010F02DE9F0410446866D90F834002D
:1014C000002501280DD0012084F8340094F83570EF
:1014D0000020012F07D084F8340002252846BDE8FB
:1014E000F0810220FBE7022784F835706065204612
:1014F000FFF7BAFA94F85C103F208840B06020688B
:10150000016841F016010160206C20B1206801687B
:1015100041F0080101602068016841F001010160AB
:10152000DCE77047044910B50A68024202D008603F
:10153000FFF7F7FF10BD0000143C01402DE9F84F04
:1015400000224FF0010803254FF00F0E0B6808FA38
:1015500002F42340A3426ED14E68012E05D0022E24
:1015600003D0112E01D0122E12D186684FEA420C00
:1015700005FA0CF7BE43CF6807FA0CF737438760CC
:101580004668A6430C79C4F3001494403443446085
:10159000C668570005FA07FC8C6826EA0C06BC40B2
:1015A0003443C4604C68022C01D0122C13D1D408EF
:1015B00000EB8404A346D4F8209054074FEAD46A81
:1015C0000EFA0AF629EA06090E6906FA0AF646EA4A
:1015D0000906CBF8206006680C7926EA0C0604F0B0
:1015E0000304BC40344304604C68E40065D5364CC9
:1015F000266846F480462660246822F0030604F438
:1016000080440094314C3444A446D4F808489607EA
:10161000370F0EFA07F6B4432D4EB04201D1002623
:1016200024E02C4EB04201D101261FE02A4EB042E8
:1016300002D102261AE040E0284EB04201D1032632
:1016400014E0274EB04201D104260FE0254EB042EF
:1016500001D105260AE0244EB04201D1062605E05C
:10166000224EB04201D1072600E00826BE402643A4
:10167000CCF808681E4E34684F689C43FF0300D5C1
:101680001C4334601A4C241D26684F689E43BF03D8
:1016900000D51E432660164E083634684F689C43BA
:1016A000FF0200D51C433460114E0C3634684F687D
:1016B0009C43BF0200D51C433460521C102AFFF427
:1016C00045AFBDE8F88F00004438024000300140CB
:1016D000000002400004024000080240000C0240EA
:1016E000001002400014024000180240001C02409A
:1016F000003C01400AB1816170470904FBE700002A
:101700000148806870470000880000200248816816
:101710000278114481607047880000200B4810B5A2
:10172000016841F400710160016841F48061016069
:10173000016841F480710160032000F06FF800201F
:1017400000F006F800F024F8002010BD003C024034
:1017500070B50D4D04464FF47A712878B1FBF0F066
:101760000A490968B1FBF0F000F002FB48B9102CFF
:1017700007D200222146501E00F030F800206C6095
:1017800070BD012070BD0000880000209400002082
:101790000A4808B5016841F480410160006800F41E
:1017A000804000900548001F016841F080510160B1
:1017B000006800F08050009008BD000044380240EE
:1017C000002809DB00F01F02012191404009800040
:1017D00000F1E020C0F8001170470000F0B40E4B9B
:1017E0001B680C46C3F30223C3F10705042D00D97F
:1017F0000425191D072901D2002300E0DB1E012664
:1018000006FA05F1491E214099409E40761E164079
:101810003143F0BC01F0CEBF0CED00E0064900F012
:10182000070208684FF6FF03184040EA0220034A07
:1018300010430860704700000CED00E00000FA055E
:101840002DE9F0470E46050065D0DFF81481D8F881
:101850000000F7B200F00F00B04207D288F8007025
:10186000D8F8000000F00F00B04254D128683D4C79
:10187000810712D5400703D5206840F4E05020606E
:101880002878000703D5206840F460402060206875
:10189000A96820F0F000084320602878C0072DD008
:1018A000304968680839012812D0022813D003286B
:1018B00011D00968890700292DDA216821F0030178
:1018C00001432160FFF71CFF814641F2883A0EE098
:1018D00009688903EFE709688901ECE7FFF710FF62
:1018E000A0EB0901514502D90320BDE8F08720682B
:1018F000696800F00C00B0EB810FEFD1D8F8001050
:10190000404601F00F01B14207D90770006800F0AE
:101910000F00B04201D00120E7E72878400705D545
:101920002068E96820F4E050084320602878000728
:1019300006D52068296920F4604040EAC100206093
:1019400000F038F82168084AC1F30311515CC8401F
:101950000649086006480068FFF7FAFE0020C4E761
:10196000003C024008380240DC4A00089400002095
:101970008C0000200448054900680968044AC1F346
:101980008221515CC8407047940000200838024012
:10199000EC4A00080448054900680968044AC1F394
:1019A0004231515CC8407047940000200838024022
:1019B000EC4A0008154810B5006810F00C021448F5
:1019C00013D04110042A0FD0082A0ED10F4C241F27
:1019D0002268236802F03F025B0207D52068C0F34B
:1019E0008810A0FB010106E0084610BD2168C1F384
:1019F0008811A1FB00010023FEF7E2FB2168C1F37F
:101A00000141491C4900B0FBF1F010BD083802400B
:101A10000024F4002DE9F84F04006ED02078DFF8A0
:101A20003C93C007A9F104054AD009F104000168FC
:101A3000C1F38101012908D00068C0F381000228A8
:101A40000AD1D9F80000400206D52868800337D5AE
:101A500060680028E1D033E06068B0F5803F10D0C6
:101A6000B0F5A02F286810D020F4803028602868B6
:101A700020F4802028606068A8B1FFF741FE064688
:101A80000DE0286840F48030F4E740F480202860BE
:101A9000F7E700BFFFF734FE801B642873D828687F
:101AA0008003F7D50CE0FFF72BFE064605E000BFEC
:101AB000FFF726FE801B6428F0D828688003F7D43F
:101AC0002078DFF89C8280074FF0000A3ED5A348BB
:101AD000001D016811F00C0F08D00068C0F38100F0
:101AE00002280BD1D9F80000400207D428688007EB
:101AF00016D5E068012800D112E02BE1E068B8B10A
:101B00000120C8F80000FFF7FBFD064605E000BF16
:101B1000FFF7F6FD801B0228C0D828688007F7D59C
:101B20002868216920F0F80040EAC10028600DE033
:101B3000C8F800A0FFF7E4FD064604E0FFF7E0FD6B
:101B4000801B02281FD828688007F7D42078000758
:101B500022D5824E83486169703671B101210160DE
:101B6000FFF7CEFD074604E0FFF7CAFDC01B0228C1
:101B700009D830688007F7D50EE0C0F800A0FFF75D
:101B8000BFFD074605E082E0FFF7BAFDC01B022853
:101B90007DD830688007F7D42078400768D5DFF813
:101BA000BCB100270BF13C0BDBF80000C0000BD4EC
:101BB000DBF8001041F08051CBF80010DBF800009A
:101BC000012700F080500090674E3068C00510D4A7
:101BD000306840F480703060FFF792FD009005E0BF
:101BE000FFF78EFD0099401A022850D83068C005D2
:101BF000F6D55A4EA0686C3601280FD005283068FB
:101C000010D020F001003060306820F00400306017
:101C1000A068B8B1FFF774FD00900FE0306840F0A5
:101C20000100F4E740F004003060F7E7FFF768FDDB
:101C30000099411A41F28830814266D830688007A5
:101C4000F4D50EE0FFF75CFD009007E0FFF758FDCC
:101C50000099411A41F28830814256D83068800795
:101C6000F4D42FB1DBF8001021F08051CBF8001034
:101C7000A069C8B33949091D0968C1F38101022966
:101C80004AD00228504607D0C8F8600000E03CE087
:101C9000FFF736FD04463BE04746C8F86000FFF713
:101CA0002FFD064605E000BFFFF72AFD801B022836
:101CB0002BD828688001F7D4D4E907010843A16A2A
:101CC0002A4A490802EB0141626A41EA821108434B
:101CD00094F82C1040EA0161C9F800100120386620
:101CE000FFF70EFD044606E036E000BFFFF708FDF3
:101CF000001B022809D828688001F7D52CE000BF16
:101D0000FFF7FEFC001B022802D90320BDE8F88F74
:101D100028688001F4D41FE00128F7D0D9F800002A
:101D2000E26900F48001914214D1226A00F03F017F
:101D300091420FD147F6C071626A0140914209D1C8
:101D4000A26A00F44031914204D1E16A00F070606F
:101D5000884201D00120D9E70020D7E704380240AB
:101D600000004742800E4742007000400000FFFF25
:101D700010B5401EB0F1807F01D3012010BD4FF09F
:101D8000E02460610F21601701F014FD0020A061C4
:101D900007202061002010BD7047704770B590F893
:101DA0003C20012A32D0012480F83C40022280F8F5
:101DB0003D2003685A689D6822F070060A68324325
:101DC0005A60134B02689A4214D0B2F1804F11D07E
:101DD000104B9A420ED0104B9A420BD00F4B9A42A6
:101DE00008D00F4B9A4205D00E4B9A4202D00E4BB0
:101DF0009A4204D1496825F080031943916080F824
:101E00003D40002180F83C10084670BD022070BDA6
:101E1000000001400004004000080040000C0040A9
:101E200000040140004001400018004010B50400CB
:101E300003D094F83D0010B107E0012010BD002050
:101E400084F83C00204600F00DF8022084F83D00A4
:101E5000211D206801F07CF9012084F83D0000205C
:101E600010BD0000F0B587B0044614216846FEF7A7
:101E7000F2F9284926680025264B10390122022450
:101E80002548B6F1804F25D0244FBE4220D11E6890
:101E900046F002061E601B6803F0020305930B6800
:101EA00043F001030B600968CDE9022501F001014F
:101EB0000591C021CDE9001469460494FFF73EFB6B
:101EC000002211461D20FFF789FC1D20FFF778FC3A
:101ED00007B0F0BD1E6846F001061E601B6803F0E7
:101EE000010305930B6843F001030B600968CDE91A
:101EF000002401F00101CDE90421CDE90225694664
:101F0000FFF71CFB002211461C20FFF767FC1C207A
:101F1000DCE70000403802400000024000040040BE
:101F20000168CA6842F00102CA600068816801F075
:101F30000701062903D0016841F00101016000207A
:101F4000704770B5044690F83C00012817D0012571
:101F500084F83C50022084F83D002068826822F01A
:101F6000770222F47F4282600868502830D00DDC6E
:101F700020284DD005DC98B310283BD148E0022042
:101F800070BD302844D0402834D139E0602828D0B2
:101F9000702806D0B0F5805F2CD0B0F5005F29D155
:101FA0000AE0CB68D1E90121206801F042F92068FC
:101FB000816841F0770109E0CB68D1E9012120680F
:101FC00001F037F92068816841F48041816011E0B7
:101FD000CA684968206801F03EF95021206807E08E
:101FE00016E0CA684968206801F086F96021206817
:101FF00001F029F984F83D50002084F83C0070BDC0
:10200000CA684968206801F026F940212068EFE796
:10201000226801461046EBE72DE9F04104460068CE
:102020002449884229D1244D002141F211162A78F1
:10203000B71022B32970204600F0E0F90A21686049
:10204000B0FBF1F080B2688002F060FC2068016AA9
:10205000314206D1016A394203D1016821F0010100
:1020600001602068016A21F00A0101622068016AAA
:102070000162016841F001010160BDE8F0810122C7
:102080002A70026A324206D1026A3A4203D10268D9
:1020900022F001020260206841622068016A21F09A
:1020A0000A0101622068016A41F0020101622068B0
:1020B000DFE7000000040040740000202DE9F0413B
:1020C000044690F83C000D4601283DD0012684F8D6
:1020D0003C60022084F83D00AAB3042A46D0206860
:1020E000082A55D0D5E90027E968036A23F480530C
:1020F0000362D0F81CC0036A2CF4407C4CEA07272A
:102100004FF6FF7C27F470470CEA013139434FF456
:10211000204723F4204307EA02321A43C1610262D6
:102120002068C16921F44061C1612068C169AA6861
:1021300041EA0221C0F81C1084F83D60002084F8B8
:102140003C00BDE8F08101E00220FAE7D5E9001289
:10215000EB68206801F090F82068816921F00C019B
:10216000816120688169AA6811430FE0D5E90012F6
:10217000EB68206801F0D2F82068816921F44061A1
:10218000816120688169AA6841EA02218161D3E7FF
:10219000D5E9002C2F7B016A21F480710162C169AD
:1021A000036A21F0030141EA0C0121F0F00C390728
:1021B0004FF420674CEA116123F4206307EA0222FE
:1021C0001A43C16102622068C16921F00C01C1613A
:1021D0002068C169AA681143ACE710B5040003D0B8
:1021E00094F83D0010B107E0012010BD002084F8F4
:1021F0003C00204600F00CF8022084F83D00211D30
:10220000206800F0A5FF012084F83D00002010BDEB
:10221000704710B50268044631B1042908D0082976
:102220001AD00C2908D11BE0D06840F0020002E06F
:10223000D06840F00400D0600122206800F0ECFF7C
:102240002068816801F00701062903D0016841F088
:1022500001010160002010BDD06840F00800EAE7ED
:10226000D06840F01000E6E770B5044600680169E8
:102270004FF00005C943890715D4C168C9438907D0
:1022800011D4E91E01610120207720688069800750
:10229000204602D0FFF7C0FE04E000F098F8204688
:1022A00000F096F8257720680169C943490717D4DB
:1022B000C168C943490713D46FF0040101610220CA
:1022C00020772068806910F4407F204602D0FFF715
:1022D000A3FE04E000F07BF8204600F079F82577B3
:1022E00020680169C943090716D4C168C9430907B1
:1022F00012D46FF008010161042020772068C069C2
:102300008007204602D0FFF787FE04E000F05FF868
:10231000204600F05DF8257720680169C943C906A9
:1023200017D4C168C943C90613D46FF01001016105
:10233000082020772068C06910F4407F204602D032
:10234000FFF76AFE04E000F042F8204600F040F893
:10235000257720680169C943C90708D1C168C94305
:10236000C90704D1891E0161204600F033F82068B6
:102370000169C943090609D4C168C943090605D4DE
:102380006FF0800101612046FFF706FD20680169BA
:10239000C943490609D4C168C943490605D46FF049
:1023A00040010161204600F03EF820680169C94300
:1023B00089060BD4C168C943890607D46FF0200190
:1023C00001612046BDE87040FFF7E7BC70BD704773
:1023D0007047000000680649884207D10548017827
:1023E000002903D0044A416811444160704700004D
:1023F000000400407400002040420F00024600200C
:1024000041B1042909D008290AD00C2901D110684A
:10241000006C70471068406B70471068806B7047A5
:102420001068C06B704770477047000070B5026855
:1024300004461068D168536910F00F0F53D003F0B1
:10244000010501F490762E435FD0C20705D0CA057E
:1024500003D5E26B42F00102E263420705D5DA07D9
:1024600003D0E26B42F00202E263820705D5DA078D
:1024700003D0E26B42F00402E263020707D501F0E9
:1024800020022A4303D0E26B42F00802E263E26BCF
:10249000002A34D0800604D5880602D5204600F0F4
:1024A000DBFF20684069E16BC0F3801001F0080198
:1024B0000143204624D000F0B8FF20684169490656
:1024C0001AD5416921F040014161606BA0B11B49FF
:1024D0000165606BFEF7A1FE002810D0606B016DF6
:1024E000BDE87040084783060FD58B060DD5204602
:1024F000BDE8704000F0B0BF2046FFF795FF70BD0B
:10250000FFF792FF0020E06370BD030606D50B06BF
:1025100004D52046BDE8704001F06CB84006F3D504
:102520004806F1D5D168204621F04001D160202134
:1025300084F8391000F07EF970BD000053330008B4
:1025400070B5040004D094F83900002510B106E0FD
:10255000012070BD84F83850204600F023F8242074
:1025600084F839002068C16821F40051C160204618
:1025700000F0BEFF2068016921F4904101612068EC
:10258000416921F02A0141612068C16841F400518C
:10259000C160E563202084F8390084F83A00002007
:1025A00070BD00002DE9F04387B00646142168464F
:1025B000FDF751FEDFF844C1022231685048032381
:1025C0000725DFF84081002497064FF480696145B4
:1025D00039D14B491431D1F800C04CF0100CC1F87E
:1025E00000C0096801F010010591016841F0010186
:1025F00001600068694600F00100059058028DE80E
:102600001500CDE903354046FEF798FF3F4D3E48A3
:102610002860C5E90174C5E903496C614FF4403095
:10262000AC61C5E9074028466C62FEF7D9FE08B1E7
:10263000FEF73AFA7563002211462520AE63FFF7D4
:10264000CDF8252054E0DFF8C8C0614552D12C49AF
:102650001031D1F800C04CF4003CC1F800C009684A
:1026600001F400310591016841F001010160006849
:10267000694600F0010005900C208DE81500CDE9B9
:1026800003354046FEF75AFF204D22486035B846D4
:102690002860C5E90174C5E903496C61AC61EC616E
:1026A0002C624F4628466C62FEF79AFE08B1FEF790
:1026B000FBF97563AE63154D1648C0351830E5E873
:1026C0000208402091C5114845F81449C030AC615A
:1026D000EC612C626C62FEF783FE08B1FEF7E4F950
:1026E0003563002211462620AE63FFF777F82620D7
:1026F000FFF766F807B0BDE8F08300000010014066
:102700003038024000000240406402402C020020A9
:102710000044004088600240F8B5044690F83A0052
:1027200020283CD1C1B3BAB394F83800012836D080
:10273000012084F83800A162A2850025E5632220EB
:1027400084F83A00636B1748D863636B16481864C3
:10275000636B1648D864606B134605650846666B64
:10276000216802463046091DFEF7A4FE2068016874
:102770004168009184F83850C16841F48071C160AB
:102780002068416941F0010141612068416941F0DF
:10279000400141610020F8BDFFE70120FBE7022076
:1027A000F9E70000AD330008E9330008633300089F
:1027B0007047704770B5044690F83900202830D132
:1027C00069B362B394F8380001282AD0012084F854
:1027D00038002162A284E2840025E563212084F888
:1027E0003900236B1048D863236B10481864236B9F
:1027F0000F48D864206B134605652668206B321D90
:10280000FEF758FE21686FF04000086084F83850E9
:102810002068416941F080014161002070BD0120C4
:1028200070BD022070BD0000F333000821340008A1
:102830006333000870477047FEE700000122032160
:102840000148FEF757BF00000008024038B10128D8
:1028500007D0022807D0032807D1FEF737B9FFF7C2
:10286000EDBFFEF723B900F06BBA70470F4810B503
:102870000D4901600321416000214FF4A0228160D5
:10288000C0E903124FF4C0024261017641768176BD
:10289000C17601774177FEF7BCFB002803D0BDE885
:1028A0001040FEF701B910BD006400400401002093
:1028B000154808B5016841F400110160016801F490
:1028C00000110091016841F480010160006800225C
:1028D00000F48000009011461020FEF77FFF1020CA
:1028E000FEF76EFF002211461120FEF777FF112040
:1028F000FEF766FF002211463A20FEF76FFFBDE8A3
:1029000008403A20FEF75CBF3038024070B586B010
:1029100014216846FDF79FFC21480025016841F01D
:1029200080010160016801F080010591016841F0BA
:1029300004010160016801F004010591016841F0A2
:1029400001010160016801F001010591016841F098
:10295000020101600068134E00F0020005900122A0
:1029600003213046FEF7C6FE01240320CDE9000412
:1029700069463046CDE90245FEF7E0FD0A48694662
:10298000CDE9004002950948FEF7D8FD0022114626
:102990000620FEF723FF0620FEF712FF06B070BDEB
:1029A00030380240000802400000111000040240CC
:1029B00010B58AB000242248049405940694079424
:1029C000089409940094019402944FF08041039478
:1029D00001605321C0E9011440F2E731C0E903145A
:1029E0008461FFF723FA08B1FEF75EF84FF48050D8
:1029F000049004A91248FFF7A4FA08B1FEF754F8AE
:102A00000F48FFF7EAFB08B1FEF74EF8089408A953
:102A10000B480994FFF7C2F908B1FEF745F8012009
:102A2000CDE9004002940022694605480394FFF76F
:102A300045FB002801D0FEF737F80AB010BD0000B2
:102A40002C01002010B58AB0002427480494059476
:102A500006940794089409940094019402942149DF
:102A6000039401605321C0E9011440F2E731C0E949
:102A7000031480218161FFF7D9F908B1FEF714F83A
:102A80004FF48050049004A91748FFF75AFA08B190
:102A9000FEF70AF81448FFF7A0FB08B1FEF704F8A8
:102AA000089408A910480994FFF778F908B1FDF7D0
:102AB000FBFF0120CDE900400294002269460A484C
:102AC0000394FFF7FBFA08B1FDF7EEFF0422694615
:102AD0000548FFF7F3FA002801D0FDF7E5FF0AB03B
:102AE00010BD0000000400406C0100200E4810B52D
:102AF0000C4901600D4941604FF480518160002113
:102B00004FF48062C0E903120422C0E90521C161CB
:102B1000FFF716FD002803D0BDE81040FDF7C4BF45
:102B200010BD000000100140AC010020A086010093
:102B30000C4810B50A4901604FF4E13141600021B1
:102B400081600C22C160C0E904128161C161FFF79C
:102B5000F7FC002803D0BDE81040FDF7A5BF10BD6D
:102B600000440040EC010020FEE7A2F50072013AAB
:102B700004D0012A06D0022A06D18030002803D0D2
:102B800000F084B94030F9E770477047C0ED051A8E
:102B900080ED0B3A80ED062AC0ED082A80EC030A8E
:102BA0009FED060A80ED030A80ED040A80ED070A16
:102BB00080ED090A80ED0A0A70470000000000005D
:102BC00070B500F58A7104460D4600F013F804F163
:102BD0004000294600F00EF804F18000294600F07C
:102BE00009F82946BDE87040014800F034B90000FA
:102BF00004010020B0F90020D0ED0E0A00EE102AEA
:102C0000B8EEC00A70EEC00AC0ED050A90ED070AE2
:102C1000F4EEC00AF1EE10FA01DD80ED050AD0ED08
:102C2000050AB1EE400AF4EEC00AF1EE10FA01D244
:102C300080ED050AD0ED050A9FED3F0AF5EEC00ACA
:102C4000F1EE10FA08DD90ED081AF4EEC10AF1EE8B
:102C500010FA01D280ED050AD0ED050AF5EEC00AA2
:102C6000F1EE10FA08D290ED081AF4EEC10AF1EE76
:102C700010FA01DD80ED050AD0ED090A90ED050A94
:102C800030EE801A80ED091AD0ED0A0AB4EEE01A8F
:102C9000F1EE10FA01DDC0ED090A90ED091AF1EE2E
:102CA000600AB4EEE01AF1EE10FA01D2C0ED090AA2
:102CB000D0ED060A70EE600AC0ED0B0A80ED060A40
:102CC00090ED021AD0ED091A21EE000A90ED031AD8
:102CD00001EE210A90ED041A01EE200A80ED0C0AA3
:102CE000D0ED0D0AB4EEE00AF1EE10FA01DDC0ED10
:102CF0000C0A90ED0C1AB1EE600AB4EEC01AF1EEB7
:102D000010FA02D3B0EE410A01E080ED0C0ABDEEEC
:102D1000C00A10F83C3F10EE102A121201F81320DE
:102D200010ED030A0078BDEEC00A01EB400010EE82
:102D3000102A427070470000000000007047000039
:102D400010B5064C012211462046FEF7D3FC204662
:102D50000022BDE810400221FEF7CCBC0008024072
:102D600000283AD00188C1F30A021C490A8042783F
:102D70008378D20842EA4312C2F30A024A80827878
:102D8000C378920942EA8302037942EA8322C2F3BA
:102D90000A028A8002794379520842EAC312C2F3D6
:102DA0000A02CA80427992090A724279C2F3011278
:102DB0004A72C2884A8102898A814289CA81027B19
:102DC0000A74427B4A74827BCA82C27B0A83008A6D
:102DD000A1F84A00012081F84C007047180000203B
:102DE00070B500282BD0164C01782170A52926D16A
:102DF0004178617041884ABA12494A80828852BA41
:102E0000A280C28852BA15B2E580008940BA00B2E9
:102E10000880FDF7B3FB9FED0C1B53EC112BFDF766
:102E2000CCFAFDF7FBFBA0604FF4FA50854200DDC1
:102E3000E080B4F906100648814200DAE08070BDF7
:102E4000F4000020660000207B14AE47E17A843F46
:102E5000C0E0FFFF704730B587B005460C46002044
:102E60004FF400710091039002908DF81400082037
:102E700004902846FDF7B9FF002805DD06AB224681
:102E800069462846FDF752FE07B030BD4A8852BA5F
:102E900002808A8852BA8280897981707047FEF7F1
:102EA00035BC000030B593B030216846FDF7D3F94A
:102EB00014210CA8FDF7CFF919480025016841F04D
:102EC00080510160006800F0805011901548016841
:102ED00041F4804101600068022400F480401190B8
:102EE00001200090000401908001CDE9064008AA6D
:102EF0000420A82182E813000B906846FEF78AFDA3
:102F00000CA90F2081E831004FF4A0500F90E0028F
:102F1000109005210CA8FEF793FC13B030BD000003
:102F200040380240007000402DE9F04386B0002791
:102F3000584C012630230A228DF814704FF02D09C9
:102F40006D46002806DA8DF800908DF81460C0F107
:102F5000000005E004D18DF800308DF8146033E0F6
:102F600090FBF4F616B39DF8148006F1300C06FBC6
:102F7000140005F808C09DF814C04FF001070CF1CB
:102F8000010C8DF814C0D8B994FBF2F00BE000BF2F
:102F90009DF8144090FBF2F02B559DF8144004F17D
:102FA00001048DF814400028F2D10DE047B19DF8DE
:102FB0001460AB559DF8146006F101068DF814609D
:102FC00094FBF2F4002CCBD19DF814004FF02004B8
:102FD0004FF000062C549DF81400002900F1010068
:102FE000C4B28DF8144042F210700ADA05F8049069
:102FF0009DF81440C1F1000104F101048DF8144062
:1030000008E007D12B559DF8140000F101008DF860
:1030100014002EE091FBF0F4ECB19DF814C004F123
:10302000300704FB101105F80C709DF814704FF078
:10303000010607F101078DF81470B1B990FBF2F0A9
:10304000B8B19DF814106B549DF8141001F10101F2
:103050008DF81410F2E746B19DF814402B559DF8F9
:10306000144004F101048DF8144090FBF2F00028A4
:10307000D0D19DF814104FF00D0068549DF8140045
:1030800000F10100C0B28DF814002A5406B0BDE86A
:10309000F083000040420F000548016841F47001D0
:1030A000016003494FF000608039086070470000FC
:1030B00088ED00E00148FFF7D7B800002C010020A0
:1030C00010B51C480024D0E90010814201D01A48F4
:1030D00004601A48017A022904D0012905D0032985
:1030E00014D015E001F09EF812E0407A012804D0D7
:1030F000022805D0032806D00AE001F0ADF807E069
:1031000001F09EFB04E001F0B5FB01E001F07EFB65
:103110000B48FFF7A9F80B480B4A0168491C0160EE
:10312000914200D9046009480078BDE81040FFF7DB
:103130008DBB000094040020000000201800002037
:103140006C0100206C00002040420F008400002031
:10315000F0B50268254C264D264E274F274B4FF0E1
:10316000804CA04209D0604507D0A84205D0B042AB
:1031700003D0B84201D0984204D122F0700E4A68C0
:1031800042EA0E02A0421BD0604519D0A84217D0D7
:10319000B04215D0B84213D0984211D0184DA84271
:1031A0000ED0184DA8420BD0174DA84208D0174D8D
:1031B000A84205D0164DA84202D0164DA84203D110
:1031C00022F44075CA682A434D6922F080022A43DE
:1031D00002608A68C2620A688262A04201D0984294
:1031E00001D10969016301214161F0BD0000014085
:1031F0000004004000080040000C004000040140B2
:1032000000400140004401400048014000180040D7
:10321000001C00400020004010B501F01F030121F8
:10322000046A99408C430462016A9A401143016226
:1032300010BD10B5846842EA032224F47F440A4397
:103240002243826010BD826822F070020A4342F07D
:1032500007018160704710B5036A046A24F0010415
:103260000462846924F0F00444EA021423F00A02A0
:103270000A438461026210BD70B5046A24F001043F
:1032800004628469056A154EB04214D0B0F1804FD3
:1032900011D0134EB0420ED0124EB0420BD0124E8F
:1032A000B04208D0114EB04205D0114EB04202D00B
:1032B000104EB04203D124F00304144301E044F063
:1032C00001041A0724F0F00444EA126225F00A030C
:1032D00001F00A0119438261016270BD00000140E2
:1032E0000004004000080040000C004000040140C1
:1032F000004001400018004010B5036A23F010039D
:1033000003628369046A23F4704343EA023224F0BF
:10331000A00343EA01118261016210BD30B5046A65
:1033200024F0100404628469056A24F4407444EAB9
:10333000022222F470444FF6FF7202EA0332224363
:10334000A02425F0A00304EA01111943826101625F
:1033500030BD10B5806B0021C185C184FFF764F8D2
:1033600010BD70B5846B2068406994F83910C0F3C3
:10337000C0100025212904D118B1E584204600F0B1
:1033800062F82068406994F83A10C0F3801022294E
:1033900004D118B1E585204600F047F8E06B40F015
:1033A0001000E0632046FFF73FF870BD10B50146FE
:1033B000806B09680968C90513D40021C1850168BB
:1033C000CA6822F48072CA6001684A6922F0010268
:1033D0004A6101684A6922F040024A61202180F86E
:1033E0003A10FFF7E5F910BD10B5806BFFF7E1F972
:1033F00010BD10B50146806B09680968C9050CD479
:103400000021C18401684A6922F080024A61006893
:10341000C16841F04001C16010BDFFF70BFA10BD5B
:1034200010B5806BFFF707FA10BD0168CA6822F477
:103430009072CA6001684A6922F001024A61202143
:1034400080F83A1070470168CA6822F0C002CA606A
:10345000202180F83910704710B590F83A102229D1
:1034600001D0022010BD8168B1F5805F11D00169E3
:10347000002901681FD0496801F07F03816A4A1C56
:1034800082620B70C18D491E0904090CC18518D0D8
:103490002BE00269816A002A0268526805D0D2B224
:1034A0000A80816A491C8162ECE7C2F308020A8043
:1034B000816A891CF7E74A68816A4B1C83620A703B
:1034C000E0E70168CA6822F02002CA600168CA68A1
:1034D00022F48072CA6001684A6922F001024A61DE
:1034E000202180F83A10FFF763F9002010BD00009A
:1034F0002DE9F041044600680169E26821F4405179
:10350000114301612169A068E269084361691143BF
:1035100022680843D16849F20C6399430143D160A2
:1035200020684169A26921F4407111434161E26957
:10353000192664253227B2F5004F2C482C49226801
:103540004FF000080CD08A4201D0824230D1FEF701
:1035500021FA01466068830F8200A1FB06012EE07C
:103560008A4201D0824202D1FEF714FA01E0FEF74E
:1035700001FA61684A18A0FB060148EB0803FCF752
:103580001FFEB0FBF5F213016FF018014A4300EB88
:10359000820007EBC000B0FBF5F000F0F80103EB90
:1035A000410100F00700084421688860BDE8F0810F
:1035B000FEF7E0F961688B0F8A00A0FB0601FCF7BB
:1035C000FFFD0146B0FBF5F06FF01802424301EB3E
:1035D000820107EB0111B1FBF5F101F0F00202EB02
:1035E000001001F00F010844DEE700000014014064
:1035F0000010014090F83910212901D002207047B5
:103600008168B1F5805F016A0BD04A1C02620268D2
:1036100009785160C18C491E0904090CC1840ED07F
:1036200017E009880268C1F30801516001690029A7
:10363000016A02D0491C0162ECE7891CFBE70168C2
:10364000CA6822F08002CA600068C16841F0400187
:10365000C16000207047000010B5054B054A0649BF
:10366000064800F021F8BDE810400448FEF7DEBE31
:10367000612D0008E80000202C020020AC01002091
:1036800010B5054B054A0649064800F00DF8BDE89F
:1036900010400448FEF7CABEE12D0008DC000020FF
:1036A0008C020020EC010020F8B5144602681D468B
:1036B0001268D24392062BD40A68136823F00103E0
:1036C00013600268002316685268009209686289D4
:1036D0004968511ACEB2217A51B123722168FFF79D
:1036E0001BF86089B04213D1002D11D060680AE048
:1036F000012121726168FFF70FF86089B04207D19C
:10370000002D05D0206801B0AC46BDE8F040604710
:10371000F8BDFEE770B50D2001F0A6F9164C20604B
:103720000D2001F0A1F9606014480068C16841F003
:103730001001C16000250D202572608102460F48EE
:103740002168FEF7E9FF122001F08EF90C342060A9
:10375000122001F089F9606009480068C16841F0F1
:103760001001C1601220257260812168BDE870409F
:1037700002460348FEF7D0BFDC000020EC01002029
:10378000AC01002003B401984100009850EAC12028
:1037900018BF04204A0D18BF40F0010040F2FF722C
:1037A000B2EB515F08BF40F00200012808BF0520BE
:1037B00002B070470907090E002804DB00F1E02081
:1037C00080F80014704700F00F0000F1E02080F84E
:1037D000141D70470000000010B533492DED020B99
:1037E0002DED028B84B09FED2E8B079820F00040CA
:1037F000B0EE481AF0EE681A8842D8BF9DED060B6D
:1038000036DD2A4988420CD1069858B94FF001009C
:1038100000F002FD53EC182B51EC180BFCF73FFEA7
:1038200034E008DB9DED060B53EC102B51EC100B34
:10383000FCF71CFD2AE068469DED060B00F0E4F85D
:1038400010F0030004BF9DED021B9DED000B0FD097
:10385000012810D09DED021B9DED000B022818D011
:10386000012000F021FC04B0BDEC028B02B010BDC1
:1038700000F0E6FAF7E79DED021B9DED000B01203D
:1038800000F012FC51EC100B81F0004141EC100BE8
:10389000E9E700F0D5FA51EC100B81F00041F5E7B3
:1038A0000000000000000000FB21E93F0000F07F65
:1038B00010B533492DED020B2DED028B84B09FED39
:1038C0002E8B079820F00040B0EE481AF0EE681AF0
:1038D0008842DCBF00209DED060B35DD294988427A
:1038E0000CD1069858B94FF0010000F095FC53EC4C
:1038F000182B51EC180BFCF7D2FD3AE008DB9DEDDC
:10390000060B53EC102B51EC100BFCF7AFFC30E026
:1039100068469DED060B00F077F810F003000ED01E
:10392000012818D09DED021B9DED000B022819D037
:1039300000F086FA51EC100B81F0004119E09DED8A
:10394000021B9DED000B012000F0AEFB04B0BDECAE
:10395000028B02B010BD9DED021B9DED000B00F02F
:103960006FFAF3E7012000F09FFB51EC100B81F0A0
:10397000004141EC100BE9E70000000000000000EE
:10398000FB21E93F0000F07F00B52DED048BB0EE88
:10399000409AF0EE609A83B051EC190BFCF71DFFD2
:1039A00041EC180B18EE100A18EE901A8DED008BF2
:1039B000002818BF0120084320F00040C0F17F60BC
:1039C00000F1E040C00F14D019EE101A19EE900A61
:1039D0008DED009B002918BF0121084320F0004015
:1039E000C0F17F6000F1E040C00F04BF012000F093
:1039F00013FCB0EE480A03B0F0EE680ABDEC048B8D
:103A000000BD0000000000002DE9F14F04462DED3F
:103A1000020B2DED088B96B09FEDE70B80ED020BAE
:103A20001F9EE74826F0004585420ADC9DED1E0BEF
:103A3000002084ED000B16B0BDEC088B03B0BDE890
:103A4000F08FE0489FEDE0AB9FEDE1BBA84247DD82
:103A5000E14F9FEDE38B9FEDE49B9DED1E0B53EC3F
:103A60001A2B51EC100B002E1CDDFCF7A0FC41ECD6
:103A7000100BBD4208D053EC1B2B51EC100BFCF784
:103A800096FCC4E900010BE053EC182B51EC100B31
:103A9000FCF78DFC53EC192BFCF789FCC4E9000101
:103AA0000120C8E7FCF7E2FB41EC100BBD4208D057
:103AB00053EC1B2B51EC100BFCF7D8FBC4E90001B5
:103AC0000BE053EC182B51EC100BFCF7CFFB53EC35
:103AD000192BFCF7CBFBC4E900014FF0FF30AAE73C
:103AE000C348A84279DB9DED1E0B51EC100B00F092
:103AF000DBFE41EC180B9FEDC00B53EC102BFCF7D9
:103B00005CFC9FEDBF1B53EC112BFCF7AFFBFCF7EC
:103B100053FD0746FCF732FD41EC190B53EC1A2B11
:103B2000FCF74BFC53EC182BFCF744FC41EC180B56
:103B300053EC1B2B51EC190BFCF73FFCDFF8C8A230
:103B400041EC100B4FEA15580125FA4453EC102BA9
:103B500051EC180BFCF72BFC032DC4E900013DD000
:103B6000C1F30A5005EB4511A8EB00001139814261
:103B700034DA0AEB051BB0EE48AA9BED000BF0EE21
:103B800068AA53EC102B51EC190BFCF716FC41EC16
:103B90001B0B51EC1A0B53EC1B2BFCF708FC41ECF4
:103BA000180B51EC1A0B53EC182BFCF700FC53ECE0
:103BB0001B2BFCF7FCFB9BED020B41EC1A0B53ECAF
:103BC000102B51EC190BFCF7F8FB53EC1A2BFCF7FC
:103BD000EEFB41EC100B6D1CB8E70EE0002EA8BF09
:103BE0003846BFF628AF94ED000B51EC100B81F076
:103BF0000041C4E9000178421DE7C6F3130040F418
:103C0000801005901E980E90C6F30A50A0F2F53071
:103C100000F01F07411100200C900D907B48C7F168
:103C20002008784400EB810000F114030DA806265B
:103C300019685A68B94022FA08F21143059AD0F877
:103C400000A0A1FB02C50E9AA1FB022192448C4464
:103C5000924534BF4FF0010B4FF0000B50F8042C8D
:103C60000CEB0B0E72448C4534BF0121002129441A
:103C7000BBF1000F02D0624502D904E0624502D2D6
:103C80004FF0010C01E04FF0000C40F808A961442E
:103C9000E0E801121B1F761ECAD1089800F10050FF
:103CA000850F0898DDE909678000DDF82C80FCF7B6
:103CB00065FC41EC1B0B3046FCF771FC9FED541B7F
:103CC00053EC112BFCF779FB41EC180B3846FCF751
:103CD00066FC9FED511B53EC112BFCF76EFB41EC86
:103CE000190B4046FCF75BFC9FED4D1B53EC112B71
:103CF000FCF763FB41EC1A0B51EC190B53EC1A2B3C
:103D0000FCF7B4FA53EC182BFCF7B0FA53EC1B2B6E
:103D1000FCF7ACFACDE90401002004909DED040B02
:103D200053EC1B2B51EC100BFCF741FB53EC182B05
:103D3000FCF73DFB53EC192BFCF739FB53EC1A2B2A
:103D4000FCF738FB9FED381B53EC112BFCF735FBD0
:103D50009FED370B41EC180B53EC102B9DED040B32
:103D600051EC100BFCF729FB53EC182BFCF77EFAF7
:103D70009FED310B41EC180B53EC102B9DED040B18
:103D800051EC100BFCF719FB53EC182BFCF76EFAF7
:103D900041EC100B1F9810F0004F06D06D4251EC13
:103DA000100B81F0004141EC100B284684ED000B14
:103DB00041E60000000000000000000000000000DC
:103DC000FB21E93F7CD9024000004054FB21F93F30
:103DD0003163621A61B4D03DFB21F93F000000005D
:103DE0000000601A61B4D03D7370032E8A19A33BA2
:103DF000FB2139410000000083C8C96D305FE43FFA
:103E0000000000000000E03FDA0F0000320F000069
:103E1000000000000000103E000000000000103C08
:103E2000000000000000103A182D4454FB21F93D19
:103E30003326A611460B113C00000054FB21F93D2E
:103E400010B52DED040B2DED088B82B0B0EE419A2C
:103E5000F0EE619A0B9820F000449FED4BABB4F16B
:103E6000795F11DA9DED0A0B51EC100BFCF7A4FB06
:103E7000002801BFB0EE4A0AF0EE6A0A02B0BDECBB
:103E8000088B04BF04B010BD9DED0A0B53EC102B42
:103E900051EC100BFCF791FA41EC180B3C48062151
:103EA000B0EE480AF0EE680A784400F081F853EC6E
:103EB000182B51EC100BFCF780FA9DED0A0B41EC2E
:103EC0001B0B53EC192B51EC100BFCF776FA41EC61
:103ED000190B53EC1B2B51EC180BFCF76EFA53EC3F
:103EE000192BFCF764FA9FED2C0B41EC190B53ECEA
:103EF000102B51EC180BFCF760FA41EC100B284822
:103F0000844210DA53EC192B51EC100BFCF74FFAEA
:103F100053EC1A2BFCF74EFA41EC100B02B0BDEC3F
:103F2000088B04B010BD1F48A042BCBF9FED1E1BF4
:103F30008DED001B06DBA4F5001001900020009021
:103F40009DED001B51EC100B53EC112BFCF72FFADD
:103F50009DED000B41EC180B53EC102B51EC1A0BA0
:103F6000FCF725FA41EC1A0B53EC192B51EC180B0A
:103F7000FCF71DFA53EC1A2BFCF71CFA41EC100B62
:103F8000CCE7000000000000000000000000F03F4F
:103F90004C0C000000000000000000000000E03FAA
:103FA0003333D33F0000E93F000000000000D23F60
:103FB00070B504462DED028B4D1E00EBC500B0EE32
:103FC000408AF0EE608A90ED000B35F0060017D0C5
:103FD00053EC182B51EC100BFCF7EFF941EC100BE4
:103FE0006D1E04EBC50090ED001B51EC100B53EC63
:103FF000112BFCF73BF941EC100B35F00600E7D133
:10400000022D36D0042D1CD0062D1CBFBDEC028B1A
:1040100070BD53EC182B51EC100BFCF7CEF994ED5E
:104020000A1B53EC112BFCF721F953EC182BFCF76E
:10403000C4F994ED081B53EC112BFCF717F941EC74
:10404000100B53EC182B51EC100BFCF7B6F994ED58
:10405000061B53EC112BFCF709F953EC182BFCF75A
:10406000ACF994ED040B53EC102BFCF7FFF841EC8A
:10407000100B53EC182B51EC100BFCF79EF994ED40
:10408000021B53EC112BFCF7F1F853EC182BFCF747
:1040900094F994ED001B53EC112BFCF7E7F8BDEC01
:1040A000028B41EC100B70BD31B504462DED040BB5
:1040B0002DED0A8BB0EE41BAF0EE61BA0B989DED92
:1040C0000A0B20F00040B0F1795F0DDA51EC100BD3
:1040D000FFF758FB042808BF00F07EF89DED0A0B9F
:1040E000BDEC0A8B05B030BD53EC102B51EC100B1E
:1040F000FCF763F941EC180B9DED0A0B53EC182B00
:1041000051EC100BFCF759F941EC190B2C48B0EEAF
:10411000480AF0EE680A05217844FFF749FF9FED51
:104120002ACBB0EE40AAF0EE60AA9CB353EC1C2B55
:1041300051EC190BFCF741F941EC1C0B53EC1A2B19
:1041400051EC190BFCF739F99FED210B41EC190BE0
:1041500053EC102B51EC1B0BFCF72FF953EC192BE4
:10416000FCF725F953EC182BFCF727F953EC1B2B24
:10417000FCF71DF953EC1C2BFCF719F99DED0A1BFC
:1041800053EC112BFCF716F9BDEC0A8B05B041EC92
:10419000100B30BDFFE753EC1A2B51EC180BFCF75A
:1041A0000CF953EC1C2BFCF761F853EC192BFCF7C2
:1041B00004F99DED0A1B53EC112BFCF757F8E3E7CC
:1041C000D40A000000000000495555555555C5BF9B
:1041D000000000000000E03F9FED050B10B553EC20
:1041E000102B51EC100BFCF7E8F841EC100B10BD54
:1041F000000000000000001002E008C8121F08C103
:10420000002AFAD170477047002001E001C1121F57
:10421000002AFBD170470000014908607047000088
:10422000A4000020094808B5C168009190E80E007C
:10423000074800F02BF80648FEF7C2FC05488168E5
:104240004068BDE80840FEF76FBE0000F4000020A3
:104250004C03002000000020094808B5C168009107
:1042600090E80E00074800F0DDF80648FEF7A8FCCD
:10427000054881684068BDE80840FEF755BE00006B
:10428000F40000204C030020000000200FB470B5A3
:1042900004462DED088B5A48B0F9000000EE100AD4
:1042A000F8EEC00A9FED571A80EE810ADFED560A3C
:1042B0000F9E304680EE208AFCF79DF941EC100BF2
:1042C000FFF78AFABDF93A50B0EE409AF0EE609AE4
:1042D0002846FCF753F953EC192BFCF76EF8FCF762
:1042E0006BF9C4F8000130468834FCF784F941ECDE
:1042F000100BFFF7DDFAB0EE409AF0EE609A6842DC
:10430000FCF73CF953EC192BFCF757F8FCF754F980
:104310009FED3EAA9FED3E0AE06768EE0A0A20EE96
:10432000808A94ED1E0ADFED3B0AB8EEC00AF0EE7B
:10433000488A00EE208A04ED148AFCF71FF99FEDED
:1043400036BB41EC190BB0EE4B0AF0EE6B0AFFF7EF
:104350001BFB53EC192B51EC100BFCF72EF853EC14
:104360001B2BFCF79CF894ED1E0AB0EE688A41EC1A
:10437000190BB8EEC00A00EE4A8A18EE100AFCF7D4
:104380003AF953EC192BFCF712F8FCF747F944F80B
:10439000100CE06FFCF7F2F841EC190BB0EE4B0A91
:1043A000F0EE6B0AFFF7F0FA53EC192B51EC100BFF
:1043B000FCF703F853EC1B2BFCF771F894ED1E0A85
:1043C00041EC190BB8EEC00A40EE4A8A18EE900A8A
:1043D000FCF711F953EC192BFBF748FFFCF71EF91A
:1043E00020630F4834F9881CC16034F9481C01610E
:1043F00034F9081C4161BDEC088B70BC5DF814FBFE
:10440000680000200000C842BC74933DABAAAA3EDD
:1044100000009643ABAA2A3F0000000000000840BD
:104420000000002010B51249124CD1E90023216888
:104430009A4200DD79B19A4200DA79B19A4209D103
:104440009FED0D0A80ED0E0A80ED1E0A80ED2E0A0A
:104450000120206010BD9FED090A01E09FED080AD0
:1044600080ED0E0A80ED1E0A80ED2E0A10BD0000C0
:10447000940400200000002000000000000048C359
:10448000000048430FB49FED3D1A10B504462DEDD2
:10449000068B0020C4F80001C4F804019DED0C0A4D
:1044A000DFED338A9FED38AB9FED359B60EE280A38
:1044B0009FED300A20EE808A9FED2F0AF0EE480A29
:1044C00040EE010AB0EE4A0AC4ED0E0AF0EE6A0AA6
:1044D0008834FFF759FA53EC192B51EC100BFBF70A
:1044E0006CFF53EC1A2BFBF7DAFF94ED1E0AB0EECB
:1044F000481A41EC190BB8EEC00A00EE681A11EE2A
:10450000100AFCF778F853EC192BFBF750FFFCF777
:1045100085F844F8100CE06FFCF730F841EC190B0B
:10452000B0EE4A0AF0EE6A0AFFF72EFA53EC192BA6
:1045300051EC100BFBF741FF53EC1A2BFBF7AFFFCD
:1045400094ED1E0A41EC190BB8EEC00A00EE688A21
:1045500018EE100AFCF74FF853EC192BFBF786FE08
:10456000FCF75CF82063BDEC068B10BC5DF814FB17
:10457000ABAAAA3E0000964300000000ABAA2A3F67
:1045800000000000000000000000000000000840E3
:104590000FB4002210B504462DED068B40F2F23127
:1045A000C0F8042140480068884202DD3F4BC4F84F
:1045B000003142F20673984203DA4FF4FA73C4F8FA
:1045C000003103DD884201DAC4F800219DED0C0AB8
:1045D000DFED378A9FED381A9FED3A9B60EE280A8F
:1045E0009FED340A9FED35AB20EE808A94ED400AB2
:1045F000F8EEC00AB0EE480A00EE810AF0EE690A51
:1046000084ED0E0AB0EE490AFFF7BEF953EC1A2BFF
:1046100051EC100BFBF7D1FE53EC192BFBF73FFFCE
:1046200094ED400AB0EE481A41EC1A0BB8EEC00AFD
:1046300000EE681A11EE100AFBF7DDFF53EC1A2B9F
:10464000FBF7B5FEFBF7EAFFA067D4F80401FBF720
:1046500095FF41EC1A0BB0EE490AF0EE690AFFF73C
:1046600093F953EC1A2B51EC100BFBF7A6FE53EC0D
:10467000192BFBF714FF94ED400A41EC190BB8EE2F
:10468000C00A00EE688A18EE100AFBF7B4FF53EC7C
:10469000192BFBF7EBFDFBF7C1FFC4F8B800BDEC2D
:1046A000068B10BC5DF814FB940400200CFEFFFF89
:1046B000ABAAAA3E00009643ABAA2A3F0000000026
:1046C0000000000000000000000008400FB40022BD
:1046D00070B504462DED068B40F2F233C0F8002190
:1046E00042488068984202DD4149C4F8041142F210
:1046F0000671884203DA4FF4FA75C4F804519842FF
:1047000003DA884201DDC4F804219DED0E0ADFEDD5
:10471000398A9FED3B1A60EE280A9FED370A20EE9A
:10472000808A9FED360AF0EE480A40EE010AC4ED99
:104730000E0AD4F804018834FBF720FF9FED31AB5B
:1047400041EC190BB0EE4A0AF0EE6A0AFFF71CF9C9
:1047500053EC192B51EC100BFBF72FFE53EC1A2BDB
:10476000FBF79DFE94ED1E0AB0EE481A41EC190BC2
:10477000B8EEC00A00EE681A11EE100AFBF73BFF14
:1047800053EC192BFBF713FEFBF748FF44F8100C12
:10479000E06FFBF7F3FE41EC190BB0EE4A0AF0EEC6
:1047A0006A0AFFF7F1F853EC192B51EC100BFBF7E9
:1047B00004FE53EC1A2BFBF772FE94ED1E0A41EC3B
:1047C000190BB8EEC00A00EE688A18EE100AFBF763
:1047D00012FF53EC192BFBF749FDFBF71FFF20637A
:1047E000BDEC068B70BC5DF814FB00009404002047
:1047F0000CFEFFFFABAAAA3E00009643000000009B
:10480000ABAA2A3F0000000000000840094808B594
:10481000C168009190E80E000748FFF733FE064894
:10482000FEF7CEF9054881684068BDE80840FEF70C
:104830007BBB0000F40000204C030020000000209F
:10484000094808B5C168009190E80E000748FFF7D5
:104850009FFE0648FEF7B4F9054881684068BDE848
:104860000840FEF761BB0000F40000204C0300206C
:1048700000000020094808B5C168009190E80E00CA
:104880000748FFF723FF0648FEF79AF905488168B5
:104890004068BDE80840FEF747BB0000F400002078
:1048A0004C0300200000002082B0CDE9000121F07F
:1048B000004001909DED000B02B051EC100B7047D1
:1048C00010B5FBF7AFFCFBF759FE9FED0A1B53EC4D
:1048D000112BFBF7E4FD9FED091B53EC112BFBF7AC
:1048E00066FD9FED081B53EC112BFBF766FD41ECB9
:1048F000100B10BD0000C0FFFFFFDF4100000000F3
:104900000000E03F00000000000000402DE9F04101
:1049100004462DED088BDFED2D9A9FED2D9AFFF7C4
:10492000CFFF9FED2C8B51EC100B53EC182BFBF7AA
:1049300044FD41EC1A0B2046FBF731FE0E4646ECD7
:10494000110B074653EC1A2B51EC110BFBF78EFCA5
:10495000FBF764FE214C0025F7EE00BAC4F808000E
:1049600094ED030A94ED02AA70EE29AA3AEE890AA0
:104970008AEE80BAFFF7A4FF53EC182B51EC100B12
:10498000FBF71BFD41EC100B46EC117B53EC102B9D
:1049900051EC110BFBF76AFCFBF740FE00EE900AAE
:1049A000B0EE4A0A6D1C70EECA0A142D0BEE200AF6
:1049B0007BEECB0A60EEAA0AC4ED030A84ED020A7C
:1049C000CEDBBDEC088BBDE8F0810000BC74933CED
:1049D00083C00A3FB81E85EB51B89E3F740000208B
:1049E000FCF79CFEFEF75EFA194800219FED190ABC
:1049F00041808180C18080ED020AFDF787FFFDF7CD
:104A000057FFFDF733FFFEF71DF8FEF791F8FEF7AD
:104A10006DF8FDF7CDFFFBF7C1FF0F48FCF7CAFBB0
:104A200002210D48FCF770F80C48FBF739FFFEF740
:104A300071FE0B48FDF774FA00210948FDF7E9FB08
:104A40000848FDF76DFA00210648FDF7E2FBFEE796
:104A5000F400002000000000040100204C030020AE
:104A60006C0100202C010020F0B50B30154D20F01A
:104A700007010024144A0FE003688B420BD38B42DA
:104A800005D95E1A43184768C3E9006700E0436828
:104A9000136002C004E0021D10680028ECD120461B
:104AA000002802D1286808B10020F0BD064A074856
:104AB0001060074A121A22F00702C0E90024012000
:104AC0002860D7E7A00000209C000020AC04002054
:104AD000A8060020000610160006101600000000B0
:104AE000000000000102030406070809000000009E
:104AF00001020304000000004C5555555555A53FD3
:104B00007751C1166CC156BF9015CB19A001FA3E62
:104B1000AD529C804F7E92BEC4B1B4BD9EEE213E8C
:104B2000D43888BEE9FAA8BD00004054FB21F93F03
:104B30003163621A61B4D03D0000601A61B4D03DA7
:104B40007370032E8A19A33B0000002E8A19A33B21
:104B5000C14920259A837B39000000000000000035
:104B60006E83F9A22915444ED15727FCC0DD34F5D8
:104B7000999562DB4190433CAB6351FE61C5BBDE5E
:104B80003A6E24B7E0D24D42EA2E49061C92D10972
:104B90001CEB1DFE3EA729B1F53582E88444BB2EEF
:104BA00026709CE9417E5FB439D69139F43953833C
:104BB0008B5F849C3B28F9BDFF97F81F0F9805DE9B
:104BC0008B112FEF1F6D0A5ACF7E366DB709CB2799
:104BD000663F464F2DEA5F9EC7BA27757BF1E5EB2E
:104BE000F739073DEA92528AB15FFB6B085D8D1F72
:104BF000A6F810111111813FD561C119A0012ABF7A
:104C00007DFEB157E31DC73EEB9C2B8AE6E55ABEFD
:104C10007CD5CF5A3AD9E53D384C00080000002039
:104C2000A8000000F8410008E04C0008A80000209F
:104C3000000A000008420008000000000000000018
:104C40000000000000000000000000000000000064
:104C50000004000400040004020200000000000040
:104C60000000000000000000000000000000000044
:104C70000000000000000000000000000000000034
:104C80000000000000000000000000000000000024
:104C90000000000000000000000000040000000010
:104CA0000000000000000000000000000000000004
:104CB00000000000000000000AD7A33C0000000034
:104CC0000100000010000000000000000024F400BB
:104CD00000000000000000000000000000000000D4
:040000050800018965
:00000001FF
