:020000040800F2
:10000000B84900205D0200080F28000855250008A7
:10001000ED270008B50900081732000800000000AD
:100020000000000000000000000000009D0100082A
:10003000F10A000800000000F9010008B52A0008D4
:1000400077020008770200087702000877020008AC
:100050007702000877020008F50A00087702000816
:10006000770200087702000877020008770200088C
:10007000770200087702000877020008770200087C
:10008000290A0008350A00087702000877020008EC
:10009000B909000877020008770200087702000813
:1000A000770200087702000877020008770200084C
:1000B00077020008E52C00087702000877020008A4
:1000C000770200087702000877020008770200082C
:1000D0007702000879310008A13100087702000892
:1000E000770200087702000877020008770200080C
:1000F00077020008770200087702000877020008FC
:1001000077020008770200087702000877020008EB
:1001100077020008770200087702000877020008DB
:100120007702000877020008410A000877020008F9
:1001300077020008000000000000000077020008BD
:1001400077020008770200087702000877020008AB
:10015000770200087702000877020008770200089B
:10016000770200087702000877020008770200088B
:10017000770200087702000800000000000000007D
:100180007702000877020008DFF80CD000F0ACFB23
:1001900000480047F1340008B84900202C4B19688A
:1001A0000868B0E8F04F80F30988BFF36F8F4FF015
:1001B000000080F3118870470000000008480068C4
:1001C000006880F308884FF0000080F3148862B65E
:1001D00061B6BFF34F8FBFF36F8F00DF00BF00BF6B
:1001E00008ED00E0DFF80C00016841F470010160E7
:1001F000704700BF88ED00E0EFF30980BFF36F8F19
:10020000134B1A681EF0100F08BF20ED108A20E96A
:10021000F04F106009B44FF0500080F31188BFF325
:100220004F8FBFF36F8F03F051FD4FF0000080F34D
:10023000118809BC19680868B0E8F04F1EF0100F6B
:1002400008BFB0EC108A80F30988BFF36F8F704746
:100250007C000020EFF305807047000006488047CF
:1002600006480047FEE7FEE7FEE7FEE7FEE7FEE79B
:10027000FEE7FEE7FEE7FEE7C92C0008890100085B
:100280002DE9F05F0546002092469B4688460646CB
:10029000814640241BE0284641464746224600F05E
:1002A0001BFA53465A46C01A914110D311461846BC
:1002B000224600F002FA2D1A67EB01084F4622464B
:1002C0000120002100F0F9F917EB00094E41201E32
:1002D000A4F10104DFDC484631462A464346BDE826
:1002E000F09F40EA01039B0703D009E008C9121FF1
:1002F00008C0042AFAD203E011F8013B00F8013BE0
:10030000521EF9D27047D2B201E000F8012B491E0B
:10031000FBD270470022F6E710B513460A460446A2
:100320001946FFF7F0FF204610BD2DE9FE4F80462D
:1003300081EA0300C00F0C46009021F0004123F039
:100340000045B8EB0200A94105D24046214690463F
:100350001C460B46024623F00040104347D0270DB1
:10036000C7F30A00C3F30A510290401A01904028D3
:100370006BDAC3F3130040F4801B0098924620B15F
:100380000023D2EB030A63EB0B0B01985946C0F133
:100390004002504600F091F906460D465046594637
:1003A000019A00F0A9F910EB08006141002487EAE6
:1003B000115284EAE7731A4340D0009A62B3019A5B
:1003C000012A4FEA075215DC001B61EB02014FF0D6
:1003D000004202EA0752CDE90042001C41F58011BB
:1003E00032462B4600F0E0F903B0BDE8F08F4046FE
:1003F0002146F9E7001B61EB0201001C41F5801367
:1004000000185B412018A2F5001747EB030140EAF2
:10041000D570B6196D4111E06D084FEA360645EA10
:10042000C0754FEA0752001B61EB0201001C41F549
:10043000801149084FEA30000019514132462B46DD
:1004400003B0BDE8F04F00F0A0B9009801224000D1
:100450000023D0EB020263EBE073009821464FEAE1
:10046000E074B8EB000061EB0401E9E783F00043BE
:100470005BE781F0004158E72DE9FE4F81EA030474
:1004800004F0004421F0004100944FF0000B23F0F1
:10049000004350EA01045ED052EA03045BD0C3F388
:1004A0000A54C1F30A552C44A4F2F3340194A0FB7E
:1004B0000254C1F3130141F48011C3F3130343F455
:1004C000801301FB024400FB034E840A970A44EAAE
:1004D000815447EA8357A4FB076802958D0A05FB00
:1004E00007854FEA932C04FB0C542705029D4FEA25
:1004F000065847EA1637B5EB08056EEB070C870E72
:10050000920E47EA811742EA8312A7FB0201B6EB7B
:100510000B0164EB00042B0D43EA0C335E1844EB33
:100520001C50DA465146E7FB0201C5F313044FEABB
:100530000B3343EA14534FEA0432019C43EA0603A7
:10054000A4F10C040294009CCDE900B400F02CF955
:1005500003B0BDE8F08F00200146F9E72DE9F04D2A
:1005600081EA030404F0004B21F0004514464FF0EB
:10057000000A23F0004150EA050220D054EA0102AB
:100580001DD0C5F30A570246C5F31303C1F3130088
:10059000C1F30A5640F4801543F48013A7EB060814
:1005A000101BD64608F2FD3873EB050002D308F1A4
:1005B000010801E092185B41B8F1000F03DA002056
:1005C0000146BDE8F08D00204FF4801106468446B8
:1005D0000EE0171B73EB050705D3121B63EB050336
:1005E00006434CEA010C49084FEA300092185B417F
:1005F00050EA0107EDD152EA030012D082EA04006A
:1006000083EA0501084305D0101BAB4106D2012245
:10061000002306E000224FF0004302E06FF00102E9
:1006200053101AEB06004CEB085110EB0A0041EB9B
:100630000B01BDE8F04D00F0A8B80EB5C10F80EA7F
:10064000E0700844CA07002140F233438DE80E00F1
:100650000A460B4600F0A8F803B000BD00F00042C7
:1006600030F000400AD0C10D01F56071C0F31600F2
:1006700042EA0151C2084007114370470020014679
:10068000704701F0004330B421F0004150EA01020C
:1006900006D00A0DA2F56072C1F31301002A02DC34
:1006A00030BC00207047440F44EAC104C100E01888
:1006B00030BC00EBC25000F031B8202A04DB203AF5
:1006C00000FA02F1002070479140C2F1200320FAA5
:1006D00003F3194390407047202A04DB203A21FAA3
:1006E00002F00021704721FA02F3D040C2F120024B
:1006F0009140084319467047202A06DBCB17203A61
:1007000041FA02F043EAE07306E041FA02F3D04016
:10071000C2F1200291400843194670470029A8BF42
:100720007047401C490008BF20F00100704710B41A
:10073000B0FA80FC00FA0CF050EA010404BF10BCCF
:10074000704749B1CCF1200421FA04F411FA0CF1FC
:1007500018BF012121430843A3EB0C01CB1D4FEA35
:1007600000614FEA102042BF002010BC704700EB30
:10077000C35010440029A4BF10BC7047401C49005E
:1007800008BF20F0010010BC704710B5141E73F1B3
:10079000000408DA401C41F1000192185B411A4341
:1007A00001D120F0010010BD2DE9F04D92469B468D
:1007B00011B1B1FA81F202E0B0FA80F22032904633
:1007C000FFF77BFF04460F4640EA0A0041EA0B01AF
:1007D00053465A46084313D0114653EA010019D034
:1007E000C8F140025046FFF777FF05460E465046D7
:1007F00059464246FFF761FF084305D0012004E057
:1008000020463946BDE8F08D0020054346EAE076F3
:100810002C4337430A986305E40AA0EB0800002242
:10082000FD0A44EA47540A3002D500200146E9E7B0
:10083000010510196941DDE9084500196941BDE864
:10084000F04DA2E72DE9F04D00231A461B1A8A410C
:1008500003DB00200146BDE8F08DC1F30A52C1F36D
:10086000130141F480154FF0000BD10702D100189D
:100870006D41521E0027044640F2FF11384601EB3D
:10088000620A3E468046024600204FF48011FFF780
:1008900023FFC2197141BB1846EB0100B4EB030CF6
:1008A00075EB000C04D3E41A65EB000517460E4601
:1008B000241908F101006D4180463428E3DDF9195F
:1008C00046EB0600091BA84103D24FF0FF32134646
:1008D00001E0002213461BEB070046EB0A51BDE87E
:1008E000F04DFFF752BF0000064C074D06E0E068F0
:1008F00040F0010394E8070098471034AC42F6D367
:10090000FFF746FC1041000830410008DFED263AB1
:100910009FED264ADFED234A9FED255A00B501469B
:10092000B0EE643AF0EE632AB0EE442AF0EE631AB9
:10093000B0EE441AF0EE450AB1EE0C0A083001F0B0
:1009400067FF002081F83C0001F14002B0EE643AFC
:10095000F0EE632AB0EE442AF0EE631AB0EE441AC9
:10096000F0EE450AB1EE0C0A01F1480001F050FF2B
:10097000012082F83C008031B0EE643AF0EE632A48
:10098000B0EE442AF0EE631AB0EE441AF0EE450AD7
:10099000B1EE0C0A01F1080001F03AFF022081F8E3
:1009A0003C0000BD00409C4500803B45000000002D
:1009B000CDCCCC3DFEE7000010B58EB00B4800F06A
:1009C00044FA0B4B6A461C460021084800F0C9F95E
:1009D00021460848009A01F00AFF9DF8302007A937
:1009E000054801F075FD0EB010BD00004803002061
:1009F0007406002050050020F003002000B58BB0E5
:100A00000020012101900290089105900490CDE909
:100A100006010090039009906946024800F01AF917
:100A20000BB000BD48030020014800F023BC0000CB
:100A300090040020014800F01DBC0000F0040020DC
:100A4000014800F017BC00003004002001681823A2
:100A5000CAB2103AB2FBF3F2054B6FF30901032A55
:100A60009B5CC36500D9091D81650846704700007D
:100A7000D840000810B5014600208B698A6A4FF003
:100A8000C07453B1B3F5005F15D072B1012A0CD018
:100A9000022A0AD0032A09D104E01AB1012A06D099
:100AA000022A03D1C96AC90100D5012010BDC96A53
:100AB000A142FAD010BD002AF7D0012AF2D0022AB2
:100AC000F3D0032AF3D010BD30B50468256825F4AF
:100AD00080252560046863608368402B036803D029
:100AE00099600068C26030BD9A600068C16030BD26
:100AF0007047000010B5012000F02EFD01490120D3
:100B0000086010BD5C0000207047000010B5064C66
:100B100001220221204600F007FE20460022BDE807
:100B20001040012100F000BE0008024010B50C4C3E
:100B300000220121204600F0F7FD0A4864210068E8
:100B4000B0FBF1F201FB12000A2801D8012200E0FB
:100B500000222046BDE81040022100F0E5BD000063
:100B6000000802405800002090F82020012A07D0F9
:100B7000022A05D0416A41F4802141620120704778
:100B8000006842690A43426100207047F0B590F85E
:100B900020500468A468012D05D0022D03D0416ABD
:100BA00041F4802153E014F0406F01D1E5004BD5B2
:100BB000C4F30164022C03D9416A41F4000146E008
:100BC0000125A5401D608D684FF4C0739DB1CE68AE
:100BD00035434E6845EAC605066803EB0417F55130
:100BE0004FF4C275076805EB04150E697E51097D47
:100BF000012905D009E00E88CD6845EA4655EBE7A6
:100C000001684E5946F480764E511179D2F805505C
:100C10004FF4C67641EA0525016806EB04168D51AE
:100C20001178D2F801204FF4C47541EA022102681C
:100C300005EB04155151006803EB0411425842F0D2
:100C4000010242500020F0BD416A41F400114162AE
:100C50000120F0BD10B590F82020012A07D0022A0B
:100C600005D0416A41F480214162012010BD3B481A
:100C7000D0F8002242F00102C0F80022D0F8002291
:100C800022F47C52C0F80022D0F800224B6A42EADB
:100C90000322C0F800220A7D02F01F0301229A40BD
:100CA000D0F81C329343C0F81C32CB69B3B9D0F8EA
:100CB0000C329343C0F80C328C894B6864F31F43A9
:100CC0004C6900EBC404C4F840320C890B6864F32F
:100CD0001F434C6900EBC404C4F84432CB69012BB8
:100CE00016D1D0F80C321343C0F80C320C884B6884
:100CF00064F31F434C6900EBC404C4F840320C8910
:100D0000CB6864F31F434C6900EBC404C4F844325D
:100D10008B69002BD0F804320ED01343C0F8043294
:100D20000B69002BD0F8143208D01343C0F81432EA
:100D3000096A012904D008E09343EFE79343F5E7FC
:100D4000D0F81C121143C0F81C12D0F8001221F088
:100D50000101C0F80012002010BD00000064004036
:100D6000704730B590F82040012C05D0022C03D0FC
:100D7000416A41F480215DE00468002955D024696E
:100D8000A40754D04FF4D874056804EB01142D590E
:100D900015F00405956005682D594ED0ED08556095
:100DA00005682C5904F00204D4604FF4DA74056825
:100DB00004EB01142D5905F00F05156105682D5937
:100DC000C5F30725956105682C59240C54614FF42F
:100DD000DC72046802EB0112A4581C700468A45869
:100DE000240A5C700468A458240C9C700468A258FF
:100DF000120EDA704FF4DE72046802EB0112A4588E
:100E00001C710468A458240A5C710468A458240C5A
:100E10009C710468A258120EDA71006881B10169F0
:100E200041F020010161002030BDE468A8E7416A7B
:100E300041F400114162012030BD6D0D1560AFE736
:100E4000C16841F02001C160EDE72DE9F05F054682
:100E5000006800244669D0F804908768D0F80CB088
:100E6000D0F810A0D0F81880F10748D0F90714D0B6
:100E700001218160B80703D5284600F0E2F90CE0B3
:100E8000780702D54FF4006407E0380702D54FF425
:100E9000805402E0284600F0D3F9F80516D52968F9
:100EA0004FF480708860B80503D5284600F0CBF970
:100EB0000CE0780502D544F4005407E0380502D56B
:100EC00044F4804402E0284600F0BCF9F80316D54B
:100ED00029684FF480308860B80303D5284600F0B5
:100EE000B4F90CE0780302D544F4004407E0380379
:100EF00002D544F4803402E0284600F0A5F930071A
:100F000007D55FEACB6004D52968102044F400744B
:100F1000C86070074FF0080707D55FEA0B7004D56B
:100F20002868C760284600F059F9B00706D5286838
:100F3000C068800702D0284600F051F9700607D536
:100F40005FEACA6004D52968102044F4806408610F
:100F5000B00607D55FEA0A7004D5286807612846FD
:100F600000F03EF9F00606D528680069800702D037
:100F7000284600F036F9B00308D55FEAC96005D508
:100F8000296810204860284600F02CF9F00307D5A6
:100F90005FEA097004D528684760284600F056F9D2
:100FA000300446D55FEA497040D5F00504D55FEAC4
:100FB000C87001D044F00104B00504D55FEA887020
:100FC00001D544F00204700504D55FEA487001D5EC
:100FD00044F00404300529D518F0700F26D008F02D
:100FE0007000402815D006DC102809D020280AD02F
:100FF000302816D10AE050280ED0602811D10EE01A
:1010000044F008040DE044F010040AE044F0200429
:1010100007E044F0400404E044F0800401E044F4BC
:1010200080742868816921F0700181612968042039
:101030004860002C05D0686A204368622846FFF7A4
:101040008FFEBDE8F09F70B5040003D094F8200037
:1010500010B104E0012070BD204600F081F8206846
:10106000016821F00201016000F064FB05460526DD
:1010700004E000F05FFB401B0A2811D8206840689C
:101080008007F6D42068016841F00101016000F09A
:1010900051FB05460BE000F04DFB401B0A2806D92A
:1010A000606A40F40030606284F82060D2E7206813
:1010B0004068C007EFD0207E0128206801683DD03D
:1010C00021F080010160607E01282068016838D02D
:1010D00021F040010160A07E01282068016833D022
:1010E00021F020010160E07E0128206801682ED0F7
:1010F00041F010010160207F01282068016829D09B
:1011000021F008010160607F01282068016824D077
:1011100021F004010160D4E902010843D4E904127A
:10112000114308436168491E08432168C8610020D3
:101130006062012084F82000002070BD41F0800131
:10114000C0E741F04001C5E741F02001CAE721F0C6
:101150001001CFE741F00801D4E741F00401D9E7DD
:1011600010B586B0044614216846FFF7D3F8184935
:101170002068884229D117480021026842F0007295
:101180000260006800F00070059012481038026894
:1011900042F001020260006800F0010005904FF487
:1011A000C05000900220CDE90101032003900920E6
:1011B00004906946084800F0DBF90022052114205C
:1011C00000F02AFB142000F019FB06B010BD00004F
:1011D0000064004040380240000002407047704701
:1011E000704770477047000070B5044690F82000C3
:1011F000012804D0606A40F40020606218E00220F8
:1012000084F820002068016821F00101016000F0ED
:1012100091FA05460EE000BF00F08CFA401B0A2848
:1012200008D9606A40F400306062052084F820002C
:10123000012070BD20684068C007EDD1606270BDBC
:10124000704770477047704770477047704790F815
:101250003510022903D08021416501207047052106
:1012600080F835100068016821F00101016000205C
:10127000704700002DE9F84304464FF00009CDF80F
:10128000009063484FF41651A56D0068B0FBF1F76C
:101290002E6894F85C10082000FA01F131420FD05A
:1012A00021680A6852070BD50A6822F004020A6016
:1012B00094F85C108840A860606D40F001006065A3
:1012C00094F85C104FF0010808FA01F0304208D0A1
:1012D00021684969090604D5A860606D40F00200E4
:1012E000606594F85C1004208840304208D0216882
:1012F0000968890704D5A860606D40F00400606546
:1013000094F85C1010208840304218D02168096899
:10131000090714D5A86020680168490304D500684E
:10132000000308D5A16C07E00168C90503D4016872
:1013300021F008010160216C09B12046884794F82A
:101340005C1020208840304231D021680968C906ED
:101350002DD5A86094F8350005282068016806D0CE
:10136000490347D5006800031DD4616C1CE021F0DF
:10137000160101602068416921F080014161206C03
:1013800008B9A06C20B12068016821F00801016053
:1013900094F85C103F208840A86084F8349084F86A
:1013A0003580216D1FE0E16B09B120468847606DF3
:1013B00000282BD0606DC00714D0052084F83500BC
:1013C0002068016821F0010101600098401C009034
:1013D000B84203D820680068C007F6D184F834907A
:1013E00084F83580E16C002910D001B02046BDE8BA
:1013F000F04308470168C905D5D4016821F0100100
:10140000016084F8349084F83580CCE7BDE8F88337
:10141000780000202DE9F041044600F08BF90646E3
:101420005CB1002584F83450022084F8350020682F
:10143000016821F0010101600DE00120BDE8F081AB
:1014400000F078F9801B052805D92020606503206D
:1014500084F83500F2E720680068C007F0D1226800
:10146000116820480140D4E901031843D4E9033648
:101470003343184363691843A3691843E369184366
:10148000236A18430843616A042903D1D4E90B1382
:1014900019430843106020684069666A20F007011C
:1014A00030460E43012704280CD1A06A0643E06AA7
:1014B00040B12046FFF7DEFA20B14020606584F895
:1014C0003570BAE7206846612046FFF7BFFA94F806
:1014D0005C203F2191408160656584F83570002073
:1014E000ACE700003F8010F02DE9F0410446866D26
:1014F00090F83400002501280DD0012084F8340034
:1015000094F835700020012F07D084F834000225AC
:101510002846BDE8F0810220FBE7022784F83570F9
:1015200060652046FFF7D0FA94F85C103F208840B1
:10153000B0602068016841F016010160206C20B1A4
:101540002068016841F0080101602068016841F0ED
:1015500001010160DCE77047044910B50A680242E6
:1015600002D00860FFF7F7FF10BD0000143C0140F7
:101570002DE9F84F00224FF0010803254FF00F0E20
:101580000B6808FA02F42340A3426ED14E68012E84
:1015900005D0022E03D0112E01D0122E12D1866852
:1015A0004FEA420C05FA0CF7BE43CF6807FA0CF776
:1015B000374387604668A6430C79C4F3001494400F
:1015C00034434460C668570005FA07FC8C6826EA75
:1015D0000C06BC403443C4604C68022C01D0122C71
:1015E00013D1D40800EB8404A346D4F82090540708
:1015F0004FEAD46A0EFA0AF629EA06090E6906FAD3
:101600000AF646EA0906CBF8206006680C7926EA55
:101610000C0604F00304BC40344304604C68E4004E
:1016200065D5364C266846F480462660246822F04C
:10163000030604F480440094314C3444A446D4F8A6
:1016400008489607370F0EFA07F6B4432D4EB042FE
:1016500001D1002624E02C4EB04201D101261FE02A
:101660002A4EB04202D102261AE040E0284EB04293
:1016700001D1032614E0274EB04201D104260FE029
:10168000254EB04201D105260AE0244EB04201D1D8
:10169000062605E0224EB04201D1072600E00826CA
:1016A000BE402643CCF808681E4E34684F689C4301
:1016B000FF0300D51C4334601A4C241D26684F6874
:1016C0009E43BF0300D51E432660164E083634687D
:1016D0004F689C43FF0200D51C433460114E0C360A
:1016E00034684F689C43BF0200D51C433460521CD1
:1016F000102AFFF445AFBDE8F88F000044380240DF
:101700000030014000000240000402400008024096
:10171000000C024000100240001402400018024079
:10172000001C0240003C01400AB18161704709047D
:10173000FBE7000001488068704700006C00002053
:101740000248816802781144816070476C00002073
:101750000B4810B5016841F400710160016841F463
:1017600080610160016841F480710160032000F034
:1017700073F80F2000F006F800F024F8002010BDE8
:10178000003C024070B50D4D04464FF47A71287844
:10179000B1FBF0F00A490968B1FBF0F000F006FB7C
:1017A00048B9102C07D200222146501E00F034F810
:1017B00000206C6070BD012070BD00006C00002036
:1017C000780000200C4882B0016841F4804101603B
:1017D000006800F4804000900748001F016841F055
:1017E000805101600068002200F0805000900F21BD
:1017F000901E02B000F010B844380240002809DB07
:1018000000F01F02012191404009800000F1E0201A
:10181000C0F8001170470000F0B40E4B1B680C4676
:10182000C3F30223C3F10705042D00D90425191DB4
:10183000072901D2002300E0DB1E012606FA05F18C
:10184000491E214099409E40761E16403143F0BC0F
:1018500001F01ABD0CED00E0064900F0070208682F
:101860004FF6FF03184040EA0220034A1043086085
:10187000704700000CED00E00000FA052DE9F0478C
:101880000E46050065D0DFF81481D8F80000F7B2E5
:1018900000F00F00B04207D288F80070D8F80000BE
:1018A00000F00F00B04254D128683D4C810712D59A
:1018B000400703D5206840F4E050206028780007F6
:1018C00003D5206840F4604020602068A96820F0BB
:1018D000F000084320602878C0072DD030496868A0
:1018E0000839012812D0022813D0032811D0096822
:1018F000890700292DDA216821F0030101432160C5
:10190000FFF718FF814641F2883A0EE00968890323
:10191000EFE709688901ECE7FFF70CFFA0EB09018D
:10192000514502D90320BDE8F0872068696800F0BE
:101930000C00B0EB810FEFD1D8F80010404601F059
:101940000F01B14207D90770006800F00F00B042E4
:1019500001D00120E7E72878400705D52068E9682D
:1019600020F4E050084320602878000706D520685E
:10197000296920F4604040EAC100206000F038F896
:101980002168084AC1F30311515CC8400649086048
:1019900006480068FFF7F6FE0020C4E7003C02405E
:1019A00008380240E0400008780000207000002065
:1019B0000448054900680968044AC1F38221515C62
:1019C000C84070477800002008380240F040000806
:1019D0000448054900680968044AC1F34231515C72
:1019E000C84070477800002008380240F0400008E6
:1019F000154810B5006810F00C02144813D04110BF
:101A0000042A0FD0082A0ED10F4C241F2268236805
:101A100002F03F025B0207D52068C0F38810A0FBEC
:101A2000010106E0084610BD2168C1F38811A1FB41
:101A300000010023FEF724FC2168C1F30141491C89
:101A40004900B0FBF1F010BD083802400024F4005A
:101A50002DE9F84F04006ED02078DFF83C93C007E2
:101A6000A9F104054AD009F104000168C1F381011C
:101A7000012908D00068C0F3810002280AD1D9F8F2
:101A80000000400206D52868800337D5606800282A
:101A9000E1D033E06068B0F5803F10D0B0F5A02F02
:101AA000286810D020F480302860286820F4802036
:101AB00028606068A8B1FFF73DFE06460DE0286883
:101AC00040F48030F4E740F480202860F7E700BF5E
:101AD000FFF730FE801B642873D828688003F7D591
:101AE0000CE0FFF727FE064605E000BFFFF722FEE9
:101AF000801B6428F0D828688003F7D42078DFF8AA
:101B00009C8280074FF0000A3ED5A348001D016863
:101B100011F00C0F08D00068C0F3810002280BD12F
:101B2000D9F80000400207D42868800716D5E0687D
:101B3000012800D112E02BE1E068B8B10120C8F81B
:101B40000000FFF7F7FD064605E000BFFFF7F2FDD6
:101B5000801B0228C0D828688007F7D5286821692B
:101B600020F0F80040EAC10028600DE0C8F800A0AD
:101B7000FFF7E0FD064604E0FFF7DCFD801B0228CE
:101B80001FD828688007F7D42078000722D5824E16
:101B900083486169703671B101210160FFF7CAFDA8
:101BA000074604E0FFF7C6FDC01B022809D83068CD
:101BB0008007F7D50EE0C0F800A0FFF7BBFD074691
:101BC00005E082E0FFF7B6FDC01B02287DD8306833
:101BD0008007F7D42078400768D5DFF8BCB100272C
:101BE0000BF13C0BDBF80000C0000BD4DBF800105D
:101BF00041F08051CBF80010DBF80000012700F025
:101C000080500090674E3068C00510D4306840F4B2
:101C100080703060FFF78EFD009005E0FFF78AFDD1
:101C20000099401A022850D83068C005F6D55A4E9F
:101C3000A0686C3601280FD00528306810D020F03D
:101C400001003060306820F004003060A068B8B156
:101C5000FFF770FD00900FE0306840F00100F4E7FE
:101C600040F004003060F7E7FFF764FD0099411A87
:101C700041F28830814266D830688007F4D50EE0A2
:101C8000FFF758FD009007E0FFF754FD0099411A57
:101C900041F28830814256D830688007F4D42FB1A1
:101CA000DBF8001021F08051CBF80010A069C8B318
:101CB0003949091D0968C1F3810102294AD0022866
:101CC000504607D0C8F8600000E03CE0FFF732FD66
:101CD00004463BE04746C8F86000FFF72BFD064688
:101CE00005E000BFFFF726FD801B02282BD82868DF
:101CF0008001F7D4D4E907010843A16A2A4A4908B8
:101D000002EB0141626A41EA8211084394F82C1007
:101D100040EA0161C9F8001001203866FFF70AFDAA
:101D2000044606E036E000BFFFF704FD001B022872
:101D300009D828688001F7D52CE000BFFFF7FAFC2E
:101D4000001B022802D90320BDE8F88F2868800113
:101D5000F4D41FE00128F7D0D9F80000E26900F4BC
:101D60008001914214D1226A00F03F0191420FD1CB
:101D700047F6C071626A0140914209D1A26A00F43B
:101D80004031914204D1E16A00F07060884201D094
:101D90000120D9E70020D7E704380240000047427D
:101DA000800E4742007000400000FFFF10B5401E4B
:101DB000B0F1807F01D3012010BD4FF0E0246061BD
:101DC0000F21601701F060FA0020A0610720206158
:101DD000002010BD7047704770B590F83C20012A74
:101DE00032D0012480F83C40022280F83D20036874
:101DF0005A689D6822F070060A6832435A60134B95
:101E000002689A4214D0B2F1804F11D0104B9A421E
:101E10000ED0104B9A420BD00F4B9A4208D00F4B6A
:101E20009A4205D00E4B9A4202D00E4B9A4204D1F0
:101E3000496825F080031943916080F83D400021F6
:101E400080F83C10084670BD022070BD00000140C3
:101E50000004004000080040000C00400004014065
:101E6000004001400018004010B5040003D094F871
:101E70003D0010B107E0012010BD002084F83C00B7
:101E8000204600F00DF8022084F83D00211D206856
:101E900000F044FF012084F83D00002010BD000048
:101EA00008B500680B49884212D10B48016841F01F
:101EB000020101600068002200F00200009005218C
:101EC0001D20FFF7A9FCBDE808401D20FFF796BCC8
:101ED00008BD000000040040403802400168CA68A4
:101EE00042F00102CA600068816801F0070106291A
:101EF00003D0016841F0010101600020704770B516
:101F0000044690F83C00012817D0012584F83C5085
:101F1000022084F83D002068826822F0770222F4D3
:101F20007F4282600868502830D00DDC20284DD0D8
:101F300005DC98B310283BD148E0022070BD302862
:101F400044D0402834D139E0602828D0702806D009
:101F5000B0F5805F2CD0B0F5005F29D10AE0CB68E6
:101F6000D1E90121206800F03DFF2068816841F03F
:101F7000770109E0CB68D1E90121206800F032FF48
:101F80002068816841F48041816011E0CA68496835
:101F9000206800F039FF5021206807E016E0CA6889
:101FA0004968206800F041FF6021206800F024FFAC
:101FB00084F83D50002084F83C0070BDCA68496830
:101FC000206800F021FF40212068EFE722680146E9
:101FD0001046EBE7704770B50446006801694FF0A2
:101FE0000005C943890715D4C168C943890711D4BD
:101FF000E91E016101202077206880698007204662
:1020000002D0FFF7E7FF04E000F098F8204600F068
:1020100096F8257720680169C943490717D4C16834
:10202000C943490713D46FF00401016102202077EE
:102030002068806910F4407F204602D0FFF7CAFF75
:1020400004E000F07BF8204600F079F8257720685E
:102050000169C943090716D4C168C943090712D4E5
:102060006FF008010161042020772068C0698007B3
:10207000204602D0FFF7AEFF04E000F05FF82046F4
:1020800000F05DF8257720680169C943C90617D4B7
:10209000C168C943C90613D46FF01001016108205B
:1020A00020772068C06910F4407F204602D0FFF7F7
:1020B00091FF04E000F042F8204600F040F8257758
:1020C00020680169C943C90708D1C168C943C90764
:1020D00004D1891E0161204600F032F820680169B0
:1020E000C943090609D4C168C943090605D46FF07C
:1020F000800101612046FFF76DFE20680169C94338
:10210000490609D4C168C943490605D46FF04001A6
:102110000161204600F015F820680169C94389066D
:102120000BD4C168C943890607D46FF0200101614F
:102130002046BDE87040FFF74EBE70BD7047704747
:10214000704770477047000070B502680446106819
:10215000D168536910F00F0F53D003F0010501F45B
:1021600090762E435FD0C20705D0CA0503D5E26B37
:1021700042F00102E263420705D5DA0703D0E26BC1
:1021800042F00202E263820705D5DA0703D0E26B70
:1021900042F00402E263020707D501F020022A435D
:1021A00003D0E26B42F00802E263E26B002A34D013
:1021B000800604D5880602D5204600F0CBFE2068B4
:1021C0004069E16BC0F3801001F008010143204633
:1021D00024D000F0A8FE2068416949061AD541695B
:1021E00021F040014161606BA0B11B490165606B4A
:1021F000FFF72DF8002810D0606B016DBDE870402E
:10220000084783060FD58B060DD52046BDE87040E4
:1022100000F0A0BE2046FFF795FF70BDFFF792FFCC
:102220000020E06370BD030606D50B0604D52046EA
:10223000BDE8704000F06EBF4006F3D54806F1D50A
:10224000D168204621F04001D160202184F8391066
:1022500000F07EF970BD00004F2E000870B504003C
:1022600004D094F83900002510B106E0012070BDBB
:1022700084F83850204600F023F8242084F83900F0
:102280002068C16821F40051C160204600F0AEFE14
:102290002068016921F4904101612068416921F0C1
:1022A0002A0141612068C16841F40051C160E563C1
:1022B000202084F8390084F83A00002070BD000026
:1022C0002DE9F04387B0064614216846FEF722F850
:1022D000DFF844C102223168504803230725DFF8A4
:1022E0004081002497064FF48069614539D14B49FC
:1022F0001431D1F800C04CF0100CC1F800C00968CE
:1023000001F010010591016841F0010101600068D0
:10231000694600F00100059058028DE81500CDE9EE
:1023200003354046FFF724F93F4D3E482860C5E994
:102330000174C5E903496C614FF44030AC61C5E9F3
:10234000074028466C62FFF765F808B1FEF7DCFB32
:102350007563002205212520AE63FFF75DFA252075
:1023600054E0DFF8C8C0614552D12C491031D1F892
:1023700000C04CF4003CC1F800C0096801F4003111
:102380000591016841F0010101600068694600F0B3
:10239000010005900C208DE81500CDE9033540467D
:1023A000FFF7E6F8204D22486035B8462860C5E9B9
:1023B0000174C5E903496C61AC61EC612C624F4664
:1023C00028466C62FFF726F808B1FEF79DFB75639F
:1023D000AE63154D1648C0351830E5E802084020B8
:1023E00091C5114845F81449C030AC61EC612C62CC
:1023F0006C62FFF70FF808B1FEF786FB3563002229
:1024000005212620AE63FFF707FA2620FFF7F6F92D
:1024100007B0BDE8F08300000010014030380240F2
:1024200000000240406402403004002000440040AC
:1024300088600240F8B5044690F83A0020283CD164
:10244000C1B3BAB394F83800012836D0012084F81B
:102450003800A162A2850025E563222084F83A00B5
:10246000636B1748D863636B16481864636B164830
:10247000D864606B134605650846666B21680246A2
:102480003046091DFFF730F8206801684168009167
:1024900084F83850C16841F48071C1602068416996
:1024A00041F0010141612068416941F04001416111
:1024B0000020F8BDFFE70120FBE70220F9E700005C
:1024C000A92E0008E52E00085F2E0008704770470F
:1024D00070B5044690F83900202830D169B362B352
:1024E00094F8380001282AD0012084F838002162AD
:1024F000A284E2840025E563212084F83900236B5F
:102500001048D863236B10481864236B0F48D864B5
:10251000206B134605652668206B321DFEF7E4FF2D
:1025200021686FF04000086084F8385020684169E5
:1025300041F080014161002070BD012070BD02208A
:1025400070BD0000EF2E00081D2F00085F2E000850
:1025500070477047FEE70000012203210148FFF7A2
:10256000E3B800000008024038B1012807D0022873
:1025700007D0032807D1FEF7D9BAFFF7EDBFFEF762
:10258000C5BA00F01DBA70470F4810B50D4901607B
:102590000321416000214FF4C0228160C0E9031291
:1025A0004FF4A0024261017641768176C1760177CF
:1025B0004177FEF748FD002803D0BDE81040FEF744
:1025C000A3BA10BD0064004048030020154808B5B8
:1025D000016841F400110160016801F400110091EB
:1025E000016841F4800101600068002200F480006D
:1025F000009005211020FFF70FF91020FFF7FEF8DB
:10260000002205211120FFF707F91120FFF7F6F846
:10261000002205213A20FFF7FFF8BDE808403A20E4
:10262000FFF7ECB83038024010B58EB01C220B49D1
:102630006846FDF756FE0021684600F0CDFF084CC5
:1026400006491C2220601C3107A8FDF74AFE002124
:1026500007A800F0C1FF60600EB010BDA0400008E8
:102660006000002070B586B014216846FDF752FE68
:1026700021480025016841F080010160016801F0F6
:1026800080010591016841F004010160016801F0D9
:1026900004010591016841F001010160016801F048
:1026A00001010591016841F0020101600068134ECB
:1026B00000F002000590012203213046FFF734F8B4
:1026C00001240320CDE9000469463046CDE90245E6
:1026D000FEF74EFF0A486946CDE9004002950948D9
:1026E000FEF746FF002205210620FFF795F8062099
:1026F000FFF784F806B070BD303802400008024091
:10270000000011100004024010B586B000241748E4
:102710000094019402940394049413490594016075
:102720005321C0E9011440F2E731C0E903148021CC
:102730008161FFF799FB08B1FEF7E6F94FF480508D
:10274000009069460948FFF7DAFB08B1FEF7DCF9AB
:10275000049404A905480594FFF73EFB002801D026
:10276000FEF7D2F906B010BD00040040700300204F
:102770000E4810B50C4901600D4941604FF480517D
:10278000816000214FF48062C0E903120422C0E995
:102790000521C161FFF762FD002803D0BDE81040AC
:1027A000FEF7B2B910BD000000100140B0030020D8
:1027B000A08601000C4810B50A4901604FF4E131D0
:1027C0004160002181600C22C160C0E90412816176
:1027D000C161FFF743FD002803D0BDE81040FEF7BC
:1027E00093B910BD00440040F0030020FEE7A2F5BD
:1027F0000072013A04D0012A06D0022A06D18030A4
:10280000002803D000F043B94030F9E77047704723
:10281000C0ED051A80ED0B3A80ED062AC0ED082ABE
:1028200080EC030A9FED060A80ED030A80ED040A9E
:1028300080ED070A80ED090A80ED0A0A7047000062
:102840000000000070B500F58A7104460D4600F0E6
:1028500013F804F14000294600F00EF804F180005E
:10286000294600F009F82946BDE87040014800F00B
:10287000F7B8000048030020B0F90020D0ED0E0AA0
:1028800000EE102AB8EEC00A70EEC00AC0ED050ACC
:1028900090ED070AF4EEC00AF1EE10FA01DD80EDCA
:1028A000050AD0ED050AB1EE400AF4EEC00AF1EED9
:1028B00010FA01D280ED050AD0ED050A9FED3F0A1E
:1028C000F5EEC00AF1EE10FA08DD90ED081AF4EE0C
:1028D000C10AF1EE10FA01D280ED050AD0ED050A29
:1028E000F5EEC00AF1EE10FA08D290ED081AF4EEF7
:1028F000C10AF1EE10FA01DD80ED050AD0ED090AFA
:1029000090ED050A30EE801A80ED091AD0ED0A0A22
:10291000B4EEE01AF1EE10FA01DDC0ED090A90ED17
:10292000091AF1EE600AB4EEE01AF1EE10FA01D2E3
:10293000C0ED090AD0ED060A70EE600AC0ED0B0A80
:1029400080ED060A90ED021AD0ED091A21EE000A78
:1029500090ED031A01EE210A90ED041A01EE200A0F
:1029600080ED0C0AD0ED0D0AB4EEE00AF1EE10FA9B
:1029700001DDC0ED0C0A90ED0C1AB1EE600AB4EE68
:10298000C01AF1EE10FA02D3B0EE410A01E080ED78
:102990000C0ABDEEC00A10F83C3F10EE102A1212CD
:1029A00001F8132010ED030A0078BDEEC00A01EB18
:1029B000400010EE102A4270704700000000000036
:1029C00010B5064C012211462046FEF7ADFE20460A
:1029D0000022BDE810400221FEF7A6BE000802401A
:1029E00000283AD00188C1F30A021C490A804278C3
:1029F0008378D20842EA4312C2F30A024A808278FC
:102A0000C378920942EA8302037942EA8322C2F33D
:102A10000A028A8002794379520842EAC312C2F359
:102A20000A02CA80427992090A724279C2F30112FB
:102A30004A72C2884A8102898A814289CA81027B9C
:102A40000A74427B4A74827BCA82C27B0A83008AF0
:102A5000A1F84A00012081F84C00704708000020CE
:102A600000B587B04FF40072009200230822049250
:102A7000039302938DF814300A4606AB6946FEF7BD
:102A800085F8002801D0FEF73FF807B000BD4A885E
:102A900052BA02808A8852BA8280897981707047DE
:102AA000042000F08DFDFBE700F050FC042000F056
:102AB00087FDF9E710B5FEF743FE01F01DFA012886
:102AC00003D0BDE8104001F0A9B910BD30B593B0F6
:102AD00030216846FDF71EFC14210CA8FDF71AFCF6
:102AE00019480025016841F080510160006800F03C
:102AF000805011901548016841F4804101600068E0
:102B0000022400F480401190012000900004019004
:102B10008001CDE9064008AA0420A82182E813001C
:102B20000B906846FEF794FF0CA90F2081E8310056
:102B30004FF4A0500F90E002109005210CA8FEF772
:102B40009DFE13B030BD00004038024000700040D0
:102B5000F0B586B000265B4A012730240A258DF89F
:102B600014604FF02D0E6B46002806DA8DF800E059
:102B70008DF81470C0F1000005E004D18DF800401C
:102B80008DF8147036E090FBF2F72FB390FBF2F75C
:102B90009DF814C007F130074FF0010603F80C70E0
:102BA0009DF8147007F101078DF8147090FBF2F78F
:102BB00007FB1200D0B992FBF5F00AE09DF8142053
:102BC00090FBF5F09C549DF8142002F101028DF861
:102BD00014200028F2D10DE046B19DF81470DC55A8
:102BE0009DF8147007F101078DF8147092FBF5F24F
:102BF000002AC8D19DF814204FF0200000299854D5
:102C00009DF814004FF0000200F10100C6B28DF8EB
:102C1000146042F210700ADA03F806E09DF81460BE
:102C2000C1F1000106F101068DF8146008E007D13A
:102C30009C559DF8140000F101008DF8140032E05D
:102C400091FBF0F60EB391FBF0F69DF8147006F1CF
:102C500030064FF00102DE559DF8146006F10106C2
:102C60008DF8146091FBF0F606FB1011B9B900BFA6
:102C700090FBF5F0B8B19DF814105C549DF8141059
:102C800001F101018DF81410F2E742B19DF81460D2
:102C90009C559DF8146006F101068DF8146090FBB8
:102CA000F5F00028CCD19DF814104FF00D005854C9
:102CB0009DF8140000F10100C0B28DF814001D54FD
:102CC00006B0F0BD40420F000548016841F47001B4
:102CD000016003494FF000608039086070470000D0
:102CE00088ED00E010B50948FFF775F90848094A72
:102CF0000168491C0160914201D900210160064828
:102D00000078BDE81040FFF72FBC000070030020E2
:102D10005800002040420F0068000020F0B5026813
:102D2000254C264D264E274F274B4FF0804CA04276
:102D300009D0604507D0A84205D0B04203D0B842C0
:102D400001D0984204D122F0700E4A6842EA0E0285
:102D5000A0421BD0604519D0A84217D0B04215D070
:102D6000B84213D0984211D0184DA8420ED0184D39
:102D7000A8420BD0174DA84208D0174DA84205D045
:102D8000164DA84202D0164DA84203D122F4407538
:102D9000CA682A434D6922F080022A4302608A6889
:102DA000C2620A688262A04201D0984201D10969D8
:102DB000016301214161F0BD0000014000040040B9
:102DC00000080040000C00400004014000400140A9
:102DD000004401400048014000180040001C004031
:102DE0000020004010B5846842EA032224F47F44A6
:102DF0000A432243826010BD826822F070020A43B7
:102E000042F007018160704710B5036A046A24F03C
:102E100001040462846924F0F00444EA021423F0FB
:102E20000A020A438461026210BD10B5036A23F0EE
:102E3000100303628369046A23F4704343EA023295
:102E400024F0A00343EA01118261016210BD10B5B4
:102E5000806B0021C185C184FFF774F910BD70B586
:102E6000846B2068406994F83910C0F3C0100025C5
:102E7000212904D118B1E584204600F062F82068C9
:102E8000406994F83A10C0F38010222904D118B197
:102E9000E585204600F047F8E06B40F01000E06365
:102EA0002046FFF74FF970BD10B50146806B0968E9
:102EB0000968C90513D40021C1850168CA6822F4D4
:102EC0008072CA6001684A6922F001024A610168A1
:102ED0004A6922F040024A61202180F83A10FFF747
:102EE000F5FA10BD10B5806BFFF7F1FA10BD10B503
:102EF0000146806B09680968C9050CD40021C184AA
:102F000001684A6922F080024A610068C16841F0A4
:102F10004001C16010BDFFF71BFB10BD10B5806BF9
:102F2000FFF717FB10BD0168CA6822F49072CA60EF
:102F300001684A6922F001024A61202180F83A10B2
:102F400070470168CA6822F0C002CA60202180F878
:102F50003910704710B590F83A10222901D002209C
:102F600010BD8168B1F5805F11D001690029016849
:102F70001FD0496801F07F03816A4A1C82620B708E
:102F8000C18D491E0904090CC18518D02BE00269C6
:102F9000816A002A0268526805D0D2B20A80816A2A
:102FA000491C8162ECE7C2F308020A80816A891C2D
:102FB000F7E74A68816A4B1C83620A70E0E70168A0
:102FC000CA6822F02002CA600168CA6822F48072CE
:102FD000CA6001684A6922F001024A61202180F832
:102FE0003A10FFF773FA002010BD00002DE9F04100
:102FF000044600680169E26821F44051114301610F
:103000002169A068E26908436169114308432168A6
:10301000CA6849F20C639A430243CA602068416956
:10302000A26921F4407111434161E06919276425C7
:103030003226B0F5004F354A354920684FF0000878
:1030400006D0884201D0904236D1FEF7C1FC35E06F
:10305000884201D0904202D1FEF7BAFC01E0FEF7AF
:10306000A7FC61684A18A0FB070148EB0803FDF7BD
:1030700007F90146B0FBF5F00201B1FBF5F06FF086
:103080001803584301EB800006EBC000B0FBF5F0DD
:1030900000F0F80002EB4002B1FBF5F0584301EB01
:1030A000800006EBC000B0FBF5F000F007002168DF
:1030B00010448860BDE8F081FEF77AFC61688B0FF0
:1030C0008A00A0FB0701FDF7DBF80146B0FBF5F035
:1030D0006FF01802504301EB800006EB0010B0FBCC
:1030E000F5F000F0F002B1FBF5F002EB0012B1FBDD
:1030F000F5F06FF01803584301EB800006EB001069
:10310000B0FBF5F000F00F00D1E700000014014023
:103110000010014090F83910212901D00220704799
:103120008168B1F5805F016A0BD04A1C02620268B7
:1031300009785160C18C491E0904090CC1840ED064
:1031400017E009880268C1F308015160016900298C
:10315000016A02D0491C0162ECE7891CFBE70168A7
:10316000CA6822F08002CA600068C16841F040016C
:10317000C16000207047000010B5054B054A0649A4
:10318000064800F013F8BDE810400448FEF7DCBF25
:10319000E1290008BC06002030040020B003002014
:1031A0000148FEF7D1BF0000F0030020F8B5144637
:1031B00002681D461268D243D2062BD40A681368EF
:1031C00023F001031360026800231668526800921E
:1031D000096862894968511ACEB2217A51B12372C5
:1031E0002168FFF727F96089B04213D1002D11D073
:1031F00060680AE0012121726168FFF71BF96089AC
:10320000B04207D1002D05D0206801B0AC46BDE822
:10321000F0406047F8BDFEE770B5142000F09AF961
:10322000164C2060142000F095F960601448006886
:10323000C16841F01001C160002514202572608131
:1032400002460F482168FFF7F5F8122000F082F9D6
:103250000C342060122000F07DF96060094800689D
:10326000C16841F01001C16012202572608121689F
:10327000BDE8704002460348FFF7DCB8B006002006
:10328000F0030020B00300200907090E002804DB2A
:1032900000F1E02080F80014704700F00F0000F10A
:1032A000E02080F8141D704700B52DED048BB0EEC2
:1032B000409AF0EE609A83B051EC190BFDF7C2FA18
:1032C00041EC180B18EE100A18EE901A8DED008BD9
:1032D000002818BF0120084320F00040C0F17F60A3
:1032E00000F1E040C00F14D019EE101A19EE900A48
:1032F0008DED009B002918BF0121084320F00040FC
:10330000C0F17F6000F1E040C00F04BF012000F079
:1033100017F8B0EE480A03B0F0EE680ABDEC048B73
:1033200000BD02E008C8121F08C1002AFAD1704788
:103330007047002001E001C1121F002AFBD1704735
:103340000149086070470000E400002000B5A5B006
:1033500042220D496846FCF7C4FF0B494E220C3946
:1033600011A8FCF7BEFF0DF1440C08489CE80E00C4
:1033700000F010F80548FFF765FA054803C825B0C6
:103380005DF804EBFFF7E4BB1400002050050020BB
:103390000000002070B5044688B2A0F5806000EE01
:1033A000100A2DED068BB8EEC00ADFED490A20EEBB
:1033B000200A9FED481A080CA0F58060C0EE011AA3
:1033C000454DBDEEE10A01EE900A84ED400AF8EEAB
:1033D000E11A61EEA00AC0EE811AFDEEE10A10EEDC
:1033E000900AC4F80401D5ED020A9FED3C8ADFED96
:1033F0003C8AB8EEC00A60EE880A9FED3A1A60EE89
:10340000A80A40EE010AC4ED0E0A8834FDF715F94A
:103410009FED35AB41EC190BB0EE4A0AF0EE6A0AAB
:10342000FFF742FF53EC192B51EC100BFDF724F87A
:1034300053EC1A2BFDF792F895ED020AD4ED1E0A13
:1034400041EC190B20EE080AF8EEE00A20EE280AFB
:1034500000EEC80A10EE100AFDF700F953EC192B24
:10346000FDF704F8FDF70DF944F8100CE06FFDF7D7
:10347000E4F841EC190BB0EE4A0AF0EE6A0AFFF7E5
:1034800013FF53EC192B51EC100BFCF7F5FF53EC29
:103490001A2BFDF763F895ED020AD4ED1E0A41ECF4
:1034A000190B20EE080AF8EEE00A20EE280A00EEDA
:1034B000C80A10EE100AFDF7D1F853EC192BFCF7EF
:1034C00034FFFDF7DEF82063BDEC068B70BD000015
:1034D00000007A4500002544E8000020ABAAAA3E7F
:1034E00000009643ABAA2A3F0000000000000840FD
:1034F000FEF72EF9FFF7EAFAFFF7B4F8FFF766F8E0
:10350000FFF742F8FFF700F9FFF754F9FFF730F93A
:10351000FDF774FA0948FEF7E1FC0948FDF764FE7F
:1035200002210748FDF720FB0648FDF7EFF9FFF7FA
:1035300073FEFFF779F800F04AF8FEE77003002009
:10354000480300205005002001460020842900D0B7
:10355000C81C7047F0B50B30154D20F00701002452
:10356000144A0FE003688B420BD38B4205D95E1AD5
:1035700043184768C3E9006700E04368136002C06E
:1035800004E0021D10680028ECD12046002802D17A
:10359000286808B10020F0BD064A07481060074AB5
:1035A000121A22F00702C0E9002401202860D7E7A0
:1035B000E0000020DC000020BC430020B8450020D3
:1035C00010B500B9012000F01DFB002010BD10B5A2
:1035D00000F03EFB002010BD7FB50D46044641695A
:1035E000B0F9080081B1A16971B1FFF7ADFFD4E96D
:1035F00005128DE80700D4E900102B46226900F07F
:1036000050FC039004B070BDFFF79EFF03A9CDE905
:103610000001208A2B4682B2D4E9001000F014FC8D
:10362000012801D00020EDE70398EBE72DE9F041F8
:10363000184C0F46054666692068001D00F01EFA0A
:1036400038B9206890F82C1001208840A169814386
:10365000A161681C07D137B12168BDE8F0410E486F
:10366000091D00F04FBA20683544B5424560216815
:1036700005D2A068BDE8F041091D00F02BBA6068D2
:10368000091D00F027FA206B854200D22563BDE8B2
:10369000F08100007C000020A40700202DE9F0410B
:1036A000054600F03BFA2E4C2069401C2061206842
:1036B0002C4F10B1E06940B32DE02560206901284E
:1036C00029D1002606EB860007EB800000F0F4F914
:1036D000761C072EF6D323488C3000F0EDF92148F4
:1036E000A03000F0E9F91F48B43000F0E5F91D48BA
:1036F000C83000F0E1F91B48DC3000F0DDF9194872
:103700008C3060601430A06005E02068E96AC06A0F
:10371000884200D82560E06A401CE062E96A012026
:10372000A26988401043A06101EB810007EB800093
:10373000291D00F0E7F900F011FAE06900280CD02B
:103740002068E96AC06A884207D207494FF0805072
:103750000860BFF34F8FBFF36F8FBDE8F0810000AB
:103760007C000020C806002004ED00E010B50446EF
:1037700090F8510058B101280CD002280FD05020E9
:1037800080F31188BFF34F8FBFF36F8FFEE7206B7D
:1037900000F0F8F92046BDE8104000F0F3B910BD84
:1037A00010484FF47051420706D0C01D0D4920F05B
:1037B0000700411AC1F570510B4A00230144C2E9C8
:1037C00000030839103A21F0070111604B600B60CB
:1037D0000B1AC0E9001393604FF000405360D060B3
:1037E00070470000B8070020C8000020144E154C98
:1037F000A6F1C8074FF08058DFF84C9012E000BFE8
:1038000000F08CF9F068C568281D00F037F92069D0
:10381000401E2061E068401EE06000F09FF92846ED
:10382000FFF7A4FFE0680028EAD138680128F9D939
:10383000C9F80080BFF34F8FBFF36F8FF2E700002E
:10384000900700207C00002004ED00E02DE9F04707
:103850009A46DDE9098481466FF00303206B03EB90
:1038600082021044089E20F00707780707D05020F6
:1038700080F31188BFF34F8FBFF36F8FFEE70025F2
:1038800061B1002023180A5C83F834200A5C12B16D
:10389000401C1028F6D384F8435001E084F83450DB
:1038A000072E00D30626E662C4E91165201D00F04C
:1038B0000EF904F1180000F00AF92461C6F10700BE
:1038C0006462A061E56484F8505052464946384627
:1038D00000F0BEF82060B8F1000F01D0C8F8004039
:1038E000BDE8F08730B5114900E011460A68824210
:1038F000FBD34B685C18844203D14068184448608D
:10390000084643681C18944209D1084C103C2468AE
:10391000A24209D052681A4442600A6812680260E2
:10392000814200D0086030BD0460F9E7C800002083
:1039300006484168096829B14168C968C968496889
:10394000016370474FF0FF31FAE700007C00002070
:1039500008484068401C4FF0500080F3118804D0A4
:10396000BFF34F8FBFF36F8FFEE7BFF34F8FBFF3F0
:103970006F8FFEE7D00000202DE9F04105460027BB
:1039800000F09CF9314E306808B9FFF709FFF06884
:1039900005424BD1C5B3083568070ED005F00700C6
:1039A000C0F108000544680707D0502080F3118853
:1039B000BFF34F8FBFF36F8FFEE72DB37068854263
:1039C00034D82248103001460C6801E020460C46ED
:1039D0006168A94202D221680029F7D131688C427E
:1039E00024D007682168016060680837411B1029EE
:1039F0000FD96019420708D0502080F31188BFF317
:103A00004F8FBFF36F8FFEE710E041606560FFF7F7
:103A100069FF61687068401A7060B268904200D2B5
:103A2000B060F06801430020C4E9000100F0D6FA5C
:103A3000780707D0502080F31188BFF34F8FBFF372
:103A40006F8FFEE73846BDE8F0810000B800002027
:103A500010B5031F4FF080741C601B1F21F0010183
:103A60001960191F044B0B6014390A60091F6FF0AD
:103A7000020244380A6010BD51390008D0E9013211
:103A800001699A60D0E901235A604A68824201D1F3
:103A900082684A60002202610868401E0860086867
:103AA00070470000034B036003F15400086080205E
:103AB00010607047F400002000F108014FF0FF3261
:103AC000C0E90112C160016100210160704700215D
:103AD0000161704730B50B685A1C02D000F1080232
:103AE00002E0026904E02246546825689D42FAD942
:103AF00053684B6099608A60516008610168491C95
:103B0000016030BD42684A6093688B609368596079
:103B1000916008610168491C01607047502080F382
:103B20001188BFF34F8FBFF36F8F0A494868401C5D
:103B3000486001280CD10848006810F0FF0F07D03A
:103B4000502080F31188BFF34F8FBFF36F8FFEE7D4
:103B500070470000D000002004ED00E008494868EC
:103B600028B1401E486001D180F311887047502071
:103B700080F31188BFF34F8FBFF36F8FFEE7000014
:103B8000D000002070B5002827D0144DA0F1080403
:103B90006168E868014207D1502080F31188BFF3C3
:103BA0004F8FBFF36F8FFEE722683AB1502080F34A
:103BB0001188BFF34F8FBFF36F8FFEE781436160C2
:103BC00000F07CF860686968084468602046FFF788
:103BD00089FEBDE8704000F001BA70BDB800002059
:103BE0004FF0E02000210161816105494FF47A72B4
:103BF0000968B1FBF2F1491E41610721016170477B
:103C00007800002010B5020014D00F48806B38B146
:103C1000502080F31188BFF34F8FBFF36F8FFEE703
:103C200000F04CF800211046FFF700FD00F0D6F937
:103C3000002807D105494FF080500860BFF34F8F2F
:103C4000BFF36F8F10BD00007C00002004ED00E08A
:103C500010B586B00024039405AA04A903A804940F
:103C6000FFF720FFDDE903010094CDE901100023F7
:103C70000EA11048059A00F014F90F490028486376
:103C800011D0502080F31188BFF34F8FBFF36F8F97
:103C90004FF0FF3008630120C8614C6106B0BDE8F9
:103CA000104000F041B806B010BD000049444C453A
:103CB00000000000ED3700087C0000200248816B06
:103CC000491C8163704700007C0000201448816B10
:103CD00011B1012141627047002141628169B1FA4D
:103CE00081F1C1F11F0101EB81020E4951F822302F
:103CF0006BB101EB820101F108034A6852684A6026
:103D00009A4201D152684A60D168016070475020E0
:103D100080F31188BFF34F8FBFF36F8FFEE7000072
:103D20007C000020C80600201CB537480168374ACF
:103D3000914207D1502080F31188BFF34F8FBFF31A
:103D40006F8FFEE700683149491E884207D1502035
:103D500080F31188BFF34F8FBFF36F8FFEE72C49BD
:103D600008780190FF20087008788DF800009DF811
:103D700000009DF8002000F0F000904207D0502095
:103D800080F31188BFF34F8FBFF36F8FFEE79DF86D
:103D90000000204B00F0500018700720986005E0EC
:103DA0009DF8002052008DF80020401E9DF8002054
:103DB0001206F5D49860032807D0502080F31188AC
:103DC000BFF34F8FBFF36F8FFEE74FF440709860E3
:103DD000019808700C482030016841F470010160BE
:103DE000016841F070410160FFF7FAFE0020586061
:103DF000FCF7F8F90848016841F040410160FCF720
:103E0000DDF900201CBD000000ED00E071C20F4193
:103E100000E400E0D000002034EF00E010B55020B6
:103E200080F31188BFF34F8FBFF36F8F00F072F8EC
:103E300018B104494FF080500860002080F31188C9
:103E400010BD000004ED00E02DE9FF5F8346DDE9D1
:103E50000E87994616468A469000FFF78DFD0500AD
:103E60001CD05420FFF788FD040014D000202563E7
:103E700084F85100CDE90240CDE900874B46324637
:103E800051465846FFF7E2FC2046FFF707FC0120A9
:103E900004B0BDE8F09F2846FFF774FE4FF0FF30F6
:103EA000F6E7F0B585B0DDE90B640A9DA6B1DCB19B
:103EB000542700972663022684F85160002604AF39
:103EC000CDE90246CDE90057FFF7C0FC2046FFF7D9
:103ED000E5FB049805B0F0BD502080F31188BFF3D6
:103EE0004F8FBFF36F8FFEE7502080F31188BFF331
:103EF0004F8FBFF36F8FFEE70548C16919B1806B23
:103F000018B1002070470120704702207047000060
:103F10007C0000202DE9F0412E4C0027A06B40B121
:103F2000206A401C2062606A00B101273846BDE863
:103F3000F0816669761C666113D16068006838B1EB
:103F4000502080F31188BFF34F8FBFF36F8FFEE7D0
:103F50006068A1686160A060A06A401CA062FFF771
:103F6000E7FC206BDFF87080864209D36068006848
:103F700080B16068C068C568686886420DD22063F9
:103F80002068C06A00EB800158F821000128CAD9D6
:103F90000127C8E74FF0FF30F1E7281DFFF76EFD5E
:103FA000A86A18B105F11800FFF768FDE86A012159
:103FB000A26981401143A16100EB800108EB8100FF
:103FC000291DFFF79FFDE86A2168C96A8842CDD3A1
:103FD0000127CBE77C000020C80600202DE9F04730
:103FE0002C4D00242746A86B38B1FFF797FDA86B2E
:103FF000401EA863A86B40B146E0502080F31188B2
:10400000BFF34F8FBFF36F8FFEE72969224E012068
:10401000D1B3A6F1B40980463068E8B1F068C4684D
:1040200004F11800FFF72AFD201DFFF727FDE06AC5
:10403000AA6908FA00F11143A96100EB800109EBBC
:104040008100211DFFF75EFDE06A2968C96A884288
:10405000E2D3C5F82480DFE70CB1FFF769FC2C6AD6
:1040600044B14646FFF756FF00B16E62641EF9D1B7
:1040700000202862686A38B10849012738070860BB
:10408000BFF34F8FBFF36F8FFFF768FD3846BDE872
:10409000F08700007C0000207C07002004ED00E099
:1040A00004410008A12A0008FDFF000000000000F4
:1040B000800000000000000000000000F840000840
:1040C000A92A000800000000000000008000000095
:1040D0000000000000000000000610160006101688
:1040E00000000000000000000102030406070809A8
:1040F000000000000102030473746172745F546174
:10410000736B000064656661756C745461736B0059
:104110003041000800000020E800000022330008C1
:1041200018420008E8000020D048000032330008A0
:10413000000000000000000000040004000400046F
:10414000020200000000000000000000000000006B
:10415000000000000000000000000000000000005F
:10416000000000000000000000000000000000004F
:10417000000000000000000000000000000000003F
:10418000000000040000000000000000000000002B
:10419000000000000000000000000000010000001E
:1041A00010000000000000000024F40000000000E7
:1041B00000000000000000000000000000000000FF
:1041C00000000000000000000000000000000000EF
:1041D00000000000000000000000000000000000DF
:1041E00000000000000000000000000000000000CF
:1041F00000000000000000000000000000000000BF
:1042000000000000AAAAAAAA000000000000000006
:084210000000000000000000A6
:040000050800018965
:00000001FF
