:020000040800F2
:10000000480700209D0100082F1F00087B1D0008E5
:100010002D1F0008610700080B25000800000000E4
:10002000000000000000000000000000C5220008E1
:100030004F090008000000000522000819230008ED
:10004000B7010008B7010008B7010008B7010008B0
:10005000B7010008B7010008B7010008B7010008A0
:10006000B7010008B7010008B7010008B701000890
:10007000B7010008B7010008B7010008B701000880
:10008000B7010008B7010008B7010008B701000870
:1000900065070008B7010008B7010008B7010008AC
:1000A000B7010008B7010008B7010008B701000850
:1000B000CD230008B7010008B7010008B701000808
:1000C000B7010008B7010008B7010008B701000830
:1000D000B7010008B7010008B7010008B701000820
:1000E00051090008B7010008B7010008B70100086E
:1000F000B7010008B7010008B7010008B701000800
:10010000B7010008B7010008B7010008B7010008EF
:10011000B7010008B7010008B7010008B7010008DF
:10012000B7010008B7010008B7010008B7010008CF
:10013000B70100080000000000000000B70100083F
:1001400071070008B7010008B7010008B7010008EF
:10015000B7010008B7010008B7010008B70100089F
:10016000B7010008B7010008B7010008B70100088F
:10017000B7010008B70100080000000000000000FF
:10018000B7010008B7010008DFF80CD000F0D6FA7C
:1001900000480047512B00084807002006488047C8
:1001A00006480047FEE7FEE7FEE7FEE7FEE7FEE75C
:1001B000FEE7FEE7FEE7FEE7B1230008890100083D
:1001C0002DE9F05F0546002092469B46884606468C
:1001D000814640241BE0284641464746224600F01F
:1001E000F6F953465A46C01A914110D311461846A3
:1001F000224600F0DDF92D1A67EB01084F46224632
:100200000120002100F0D4F917EB00094E41201E17
:10021000A4F10104DFDC484631462A464346BDE8E6
:10022000F09FD2B201E000F8012B491EFBD27047CB
:100230000022F6E710B513460A4604461946FFF7B2
:10024000F0FF204610BD2DE9FE4F804681EA0300F5
:10025000C00F0C46009021F0004123F00045B8EBA0
:100260000200A94105D24046214690461C460B4655
:10027000024623F00040104347D0270DC7F30A0081
:10028000C3F30A510290401A019040286BDAC3F37D
:10029000130040F4801B0098924620B10023D2EB5B
:1002A000030A63EB0B0B01985946C0F1400250461C
:1002B00000F07EF906460D4650465946019A00F078
:1002C00096F910EB08006141002487EA115284EA94
:1002D000E7731A4340D0009A62B3019A012A4FEAA9
:1002E000075215DC001B61EB02014FF0004202EAED
:1002F0000752CDE90042001C41F5801132462B46E1
:1003000000F0CDF903B0BDE8F08F40462146F9E793
:10031000001B61EB0201001C41F5801300185B41DA
:100320002018A2F5001747EB030140EAD570B61973
:100330006D4111E06D084FEA360645EAC0754FEA97
:100340000752001B61EB0201001C41F580114908B6
:100350004FEA30000019514132462B4603B0BDE848
:10036000F04F00F08DB90098012240000023D0EB3F
:10037000020263EBE073009821464FEAE074B8EBA9
:10038000000061EB0401E9E783F000435BE781F0E3
:10039000004158E72DE9FE4F81EA030404F00044D0
:1003A00021F0004100944FF0000B23F0004350EA8D
:1003B00001045ED052EA03045BD0C3F30A54C1F3D4
:1003C0000A552C44A4F2F3340194A0FB0254C1F367
:1003D000130141F48011C3F3130343F4801301FBB1
:1003E000024400FB034E840A970A44EA815447EA18
:1003F0008357A4FB076802958D0A05FB07854FEA22
:10040000932C04FB0C542705029D4FEA065847EA3B
:100410001637B5EB08056EEB070C870E920E47EA10
:10042000811742EA8312A7FB0201B6EB0B0164EBD2
:1004300000042B0D43EA0C335E1844EB1C50DA46E3
:100440005146E7FB0201C5F313044FEA0B3343EABD
:1004500014534FEA0432019C43EA0603A4F10C044E
:100460000294009CCDE900B400F019F903B0BDE896
:10047000F08F00200146F9E72DE9F04D81EA0304F1
:1004800004F0004B21F0004514464FF0000A23F021
:10049000004150EA050220D054EA01021DD0C5F304
:1004A0000A570246C5F31303C1F31300C1F30A56FA
:1004B00040F4801543F48013A7EB0608101BD646C2
:1004C00008F2FD3873EB050002D308F1010801E0E2
:1004D00092185B41B8F1000F03DA00200146BDE835
:1004E000F08D00204FF48011064684460EE0171B65
:1004F00073EB050705D3121B63EB050306434CEAB8
:10050000010C49084FEA300092185B4150EA01079C
:10051000EDD152EA030012D082EA040083EA050119
:10052000084305D0101BAB4106D20122002306E090
:1005300000224FF0004302E06FF0010253101AEB6B
:1005400006004CEB085110EB0A0041EB0B01BDE833
:10055000F04D00F095B80EB5C10F80EAE070084488
:10056000CA07002140F233438DE80E000A460B46CD
:1005700000F095F803B000BD01F0004330B421F065
:10058000004150EA010206D00A0DA2F56072C1F3E3
:100590001301002A02DC30BC00207047440F44EAFB
:1005A000C104C100E01830BC00EBC25000F031B80B
:1005B000202A04DB203A00FA02F100207047914023
:1005C000C2F1200320FA03F3194390407047202A18
:1005D00004DB203A21FA02F00021704721FA02F3ED
:1005E000D040C2F120029140084319467047202AAA
:1005F00006DBCB17203A41FA02F043EAE07306E04B
:1006000041FA02F3D040C2F120029140084319465A
:1006100070470029A8BF7047401C490008BF20F060
:100620000100704710B4B0FA80FC00FA0CF050EAF8
:10063000010404BF10BC704749B1CCF1200421FA79
:1006400004F411FA0CF118BF012121430843A3EB74
:100650000C01CB1D4FEA00614FEA102042BF002081
:1006600010BC704700EBC35010440029A4BF10BC5D
:100670007047401C490008BF20F0010010BC7047C3
:1006800010B5141E73F1000408DA401C41F100019A
:1006900092185B411A4301D120F0010010BD2DE9F1
:1006A000F04D92469B4611B1B1FA81F202E0B0FAE8
:1006B00080F220329046FFF77BFF04460F4640EA67
:1006C0000A0041EA0B0153465A46084313D011462B
:1006D00053EA010019D0C8F140025046FFF777FFF6
:1006E00005460E46504659464246FFF761FF08430D
:1006F00005D0012004E020463946BDE8F08D0020F9
:10070000054346EAE0762C4337430A986305E40A3A
:10071000A0EB08000022FD0A44EA47540A3002D543
:1007200000200146E9E7010510196941DDE90845A6
:1007300000196941BDE8F04DA2E70000064C074DE5
:1007400006E0E06840F0010394E8070098471034A1
:10075000AC42F6D3FFF71CFDE02B0008002C00088C
:10076000FEE70000014800F09EBA0000640000208F
:10077000014800F098BA00008C00002000B50C4A37
:1007800000218BB0904202D10591099102E00E2226
:1007900005920992012201910291CDE9061203917D
:1007A000009104910892694600F06CF90BB000BD0D
:1007B0006400002000B5014600F1F802DFED544A64
:1007C000B0EE643ADFED533AF0EE632AB0EE632AFE
:1007D0009FED514AB0EE631AF0EE630AF0EE441A50
:1007E000B6EE000A00F5867001F0A2FB022082F846
:1007F00078009FED4A5AF0EE632AB0EE632AB0EE1D
:10080000453AF0EE441AB0EE631AF0EE630AB3EE26
:10081000010A02F1440001F08BFB01F5BA729FED71
:10082000403AF0EE442AB0EE632AF0EE441AB0EEFD
:10083000631AF0EE630AB6EE000A01F5C47001F027
:1008400077FB032082F87800B0EE453AF0EE442AB8
:10085000B0EE632AF0EE441AB0EE631AF0EE630ACB
:10086000B3EE010A02F1440001F062FBB0EE643A1B
:10087000F0EE632AB0EE632AF0EE441AB0EE631A8B
:10088000F0EE630AB6EE000A01F1140001F050FB2D
:10089000012081F87800B0EE443AF0EE632AB0EE21
:1008A000632AF0EE441AB0EE631AF0EE630AB2EE79
:1008B000040A01F1440001F03BFB7C31B0EE643AE4
:1008C000F0EE632AB0EE632AF0EE441AB0EE631A3B
:1008D000F0EE630AB6EE000A01F1140001F028FB05
:1008E000002081F87800B0EE443AF0EE632AB0EED2
:1008F000632AF0EE441AB0EE631AF0EE630AB2EE29
:10090000040A01F144005DF804EB01F011BB0000A2
:1009100000007A440000000000409C4500C0DA4519
:1009200000004844A2F50072013A0BD0012A05D01C
:10093000022A09D0032A09D100F5BA70002805D08F
:1009400001F062BC7C30F9E7F830F7E77047704798
:1009500070B50A2000F008FC0C4E4FF400542146FC
:10096000304600F0FDFC0A4D10B10120C5F8100220
:100970002146304600F0F4FC10B90020C5F8100202
:100980002046BDE8704000F003BC000000080240B3
:10099000F400002072B6FEE790F82020012A07D06C
:1009A000022A05D0416A41F480214162012070474A
:1009B000006842690A43426100207047F0B590F830
:1009C00020500468A468012D05D0022D03D0416A8F
:1009D00041F4802153E014F0406F01D1E5004BD584
:1009E000C4F30164022C03D9416A41F4000146E0DA
:1009F0000125A5401D608D684FF4C0739DB1CE6880
:100A000035434E6845EAC605066803EB0417F55101
:100A10004FF4C275076805EB04150E697E51097D18
:100A2000012905D009E00E88CD6845EA4655EBE777
:100A300001684E5946F480764E511179D2F805502E
:100A40004FF4C67641EA0525016806EB04168D5180
:100A50001178D2F801204FF4C47541EA02210268EE
:100A600005EB04155151006803EB0411425842F0A4
:100A7000010242500020F0BD416A41F40011416280
:100A80000120F0BD10B590F82020012A07D0022ADD
:100A900005D0416A41F480214162012010BD3B48EC
:100AA000D0F8002242F00102C0F80022D0F8002263
:100AB00022F47C52C0F80022D0F800224B6A42EAAD
:100AC0000322C0F800220A7D02F01F0301229A408F
:100AD000D0F81C329343C0F81C32CB69B3B9D0F8BC
:100AE0000C329343C0F80C328C894B6864F31F437B
:100AF0004C6900EBC404C4F840320C890B6864F301
:100B00001F434C6900EBC404C4F84432CB69012B89
:100B100016D1D0F80C321343C0F80C320C884B6855
:100B200064F31F434C6900EBC404C4F840320C89E1
:100B3000CB6864F31F434C6900EBC404C4F844322F
:100B40008B69002BD0F804320ED01343C0F8043266
:100B50000B69002BD0F8143208D01343C0F81432BC
:100B6000096A012904D008E09343EFE79343F5E7CE
:100B7000D0F81C121143C0F81C12D0F8001221F05A
:100B80000101C0F80012002010BD00000064004008
:100B9000704730B590F82040012C05D0022C03D0CE
:100BA000416A41F480215DE00468002955D0246940
:100BB000A40754D04FF4D874056804EB01142D59E0
:100BC00015F00405956005682D594ED0ED08556067
:100BD00005682C5904F00204D4604FF4DA740568F7
:100BE00004EB01142D5905F00F05156105682D5909
:100BF000C5F30725956105682C59240C54614FF401
:100C0000DC72046802EB0112A4581C700468A4583A
:100C1000240A5C700468A458240C9C700468A258D0
:100C2000120EDA704FF4DE72046802EB0112A4585F
:100C30001C710468A458240A5C710468A458240C2C
:100C40009C710468A258120EDA71006881B10169C2
:100C500041F020010161002030BDE468A8E7416A4D
:100C600041F400114162012030BD6D0D1560AFE708
:100C7000C16841F02001C160EDE70246002092F812
:100C80002010012901D002290CD111688A68520173
:100C900000D501208A68120100D5401C8968C9006E
:100CA00000D5401C70472DE9F05F05460068002420
:100CB0004669D0F804908768D0F80CB0D0F810A03E
:100CC000D0F81880F10748D0F90714D001218160CD
:100CD000B80703D5284600F040FA0CE0780702D5A3
:100CE0004FF4006407E0380702D54FF4805402E067
:100CF000284600F031FAF80516D529684FF48070BF
:100D00008860B80503D5284600F029FA0CE078057C
:100D100002D544F4005407E0380502D544F4804479
:100D200002E0284600F01AFAF80316D529684FF4B5
:100D300080308860B80303D5284600F012FA0CE032
:100D4000780302D544F4004407E0380302D544F4A4
:100D5000803402E0284600F003FA300707D55FEA46
:100D6000CB6004D52968102044F40074C860700773
:100D70004FF0080707D55FEA0B7004D52868C760F5
:100D8000284600F09BF9B00706D52868C0688007A0
:100D900002D0284600F094F9700607D55FEACA60D1
:100DA00004D52968102044F480640861B00607D592
:100DB0005FEA0A7004D528680761284600F09CF9AC
:100DC000F00606D528680069800702D0284600F0A2
:100DD00094F9B00308D55FEAC96005D529681020E9
:100DE0004860284600F08AF9F00307D55FEA0970E9
:100DF00004D528684760284600F0B4F9300446D589
:100E00005FEA497040D5F00504D55FEAC87001D0AB
:100E100044F00104B00504D55FEA887001D544F0C0
:100E20000204700504D55FEA487001D544F004045B
:100E3000300529D518F0700F26D008F07000402832
:100E400015D006DC102809D020280AD0302816D169
:100E50000AE050280ED0602811D10EE044F00804BA
:100E60000DE044F010040AE044F0200407E044F0F0
:100E7000400404E044F0800401E044F480742868F5
:100E8000816921F070018161296804204860002C8B
:100E900005D0686A204368622846FFF779FEBDE8FE
:100EA000F09F70B5040003D094F8200010B104E066
:100EB000012070BD204600F081F82068016821F013
:100EC0000201016000F056FA0546052604E000F034
:100ED00051FA401B0A2811D8206840688007F6D4D0
:100EE0002068016841F00101016000F043FA054605
:100EF0000BE000F03FFA401B0A2806D9606A40F474
:100F00000030606284F82060D2E720684068C00743
:100F1000EFD0207E0128206801683DD021F08001BB
:100F20000160607E01282068016838D021F040010E
:100F30000160A07E01282068016833D021F02001E3
:100F40000160E07E0128206801682ED041F0100188
:100F50000160207F01282068016829D021F0080164
:100F60000160607F01282068016824D021F004011D
:100F70000160D4E902010843D4E904121143084393
:100F80006168491E08432168C86100206062012031
:100F900084F82000002070BD41F08001C0E741F0DE
:100FA0004001C5E741F02001CAE721F01001CFE779
:100FB00041F00801D4E741F00401D9E7F0B587B06A
:100FC000044614216846FFF733F9374B3748DFF8FA
:100FD000D4E01968D4F800C0344A02250326092752
:100FE00010300024491CF44524D11960012907D18F
:100FF000016841F000710160006800F00070059028
:10100000106840F001001060106802AB00F00100B1
:1010100005904FF4C050CDE9000583E8D000694643
:10102000234800F0C1F800221146142000F012FA03
:10103000142032E0DFF87CE0F44530D1D0F800C075
:101040004CF0806CC0F800C0D0F800C001290CF052
:10105000806CCDF814C0196007D1016841F00071AF
:101060000160006800F000700590106840F0020018
:101070001060106802AB00F0020005906020CDE91E
:10108000000583E8D00069460B4800F08DF8002287
:101090001146402000F0DEF9402000F0CDF907B005
:1010A000F0BD000000640040040000203038024021
:1010B0000000024000680040000402407047000049
:1010C00010B50068084988B088420BD1074B6A46C2
:1010D0001C4600210648FFF75CFD21460548009AA2
:1010E000FFF720FC08B010BD00680040EC020020B3
:1010F0008C000020F400002070477047704700000B
:1011000070B5044690F82000012804D0606A40F4CD
:101110000020606218E0022084F820002068016846
:1011200021F00101016000F025F905460EE000BF45
:1011300000F020F9401B0A2808D9606A40F400300A
:101140006062052084F82000012070BD206840689E
:10115000C007EDD1606270BD70477047704770473F
:10116000704770477047000070B5044600F002F900
:101170000546601C02D004480078044400F0FAF8E8
:10118000401BA042FAD370BD080000207047000049
:10119000044910B50A68024202D00860FFF7F6FF62
:1011A00010BD0000143C01402DE9F84F00224FF023
:1011B000010803254FF00F0E0B6808FA02F42340D4
:1011C000A3426ED14E68012E05D0022E03D0112EFF
:1011D00001D0122E12D186684FEA420C05FA0CF7A4
:1011E000BE43CF6807FA0CF7374387604668A643CB
:1011F0000C79C4F30014944034434460C66857002B
:1012000005FA07FC8C6826EA0C06BC403443C4602F
:101210004C68022C01D0122C13D1D40800EB8404AA
:10122000A346D4F8209054074FEAD46A0EFA0AF67F
:1012300029EA06090E6906FA0AF646EA0906CBF813
:10124000206006680C7926EA0C0604F00304BC4012
:10125000344304604C68E40065D5364C266846F497
:1012600080462660246822F0030604F4804400943B
:10127000314C3444A446D4F808489607370F0EFA88
:1012800007F6B4432D4EB04201D1002624E02C4E87
:10129000B04201D101261FE02A4EB04202D10226FF
:1012A0001AE040E0284EB04201D1032614E0274E58
:1012B000B04201D104260FE0254EB04201D10526EF
:1012C0000AE0244EB04201D1062605E0224EB0428B
:1012D00001D1072600E00826BE402643CCF8086866
:1012E0001E4E34684F689C43FF0300D51C43346096
:1012F0001A4C241D26684F689E43BF0300D51E4329
:101300002660164E083634684F689C43FF0200D5AD
:101310001C433460114E0C3634684F689C43BF0246
:1013200000D51C433460521C102AFFF445AFBDE8C1
:10133000F88F0000443802400030014000000240B5
:101340000004024000080240000C0240001002406D
:101350000014024000180240001C0240003C014002
:101360000069084000D0012070470AB181617047D0
:101370000904FBE70148806870470000080000206E
:10138000024881680278114481607047080000209B
:101390000B4810B5016841F400710160016841F427
:1013A00080610160016841F480710160032000F0F8
:1013B00071F8002000F006F800F024F8002010BDBD
:1013C000003C024070B50D4D04464FF47A71287808
:1013D000B1FBF0F00A490968B1FBF0F000F0E4FA63
:1013E00048B9102C07D200222146501E00F032F8D6
:1013F00000206C6070BD012070BD0000080000205E
:10140000140000200B4882B0016841F48041016063
:10141000006800F4804000900648001F016841F019
:1014200080510160006800F080500090052002B0FB
:1014300000F030B844380240002809DB00F01F02F9
:10144000012191404009800000F1E020C0F8001126
:1014500070470000F0B40E4B1B680C46C3F3022328
:10146000C3F10705042D00D90425191D072901D250
:10147000002300E0DB1E012606FA05F1491E21408B
:1014800099409E40761E16403143F0BC01F040BBAF
:101490000CED00E0064900F0070208684FF6FF0374
:1014A000184040EA0220034A1043086070470000D9
:1014B0000CED00E00000FA052DE9F0470E460500AE
:1014C00065D0DFF81481D8F80000F7B200F00F0003
:1014D000B04207D288F80070D8F8000000F00F0082
:1014E000B04254D128683D4C810712D5400703D53E
:1014F000206840F4E05020602878000703D5206879
:1015000040F4604020602068A96820F0F0000843A3
:1015100020602878C0072DD0304968680839012834
:1015200012D0022813D0032811D009688907002996
:101530002DDA216821F0030101432160FFF71AFF32
:10154000814641F2883A0EE009688903EFE70968AD
:101550008901ECE7FFF70EFFA0EB0901514502D925
:101560000320BDE8F0872068696800F00C00B0EB4C
:10157000810FEFD1D8F80010404601F00F01B142C1
:1015800007D90770006800F00F00B04201D00120B9
:10159000E7E72878400705D52068E96820F4E0509F
:1015A000084320602878000706D52068296920F4C0
:1015B000604040EAC100206000F018F82168084A45
:1015C000C1F30311515CC840064908600648006831
:1015D000FFF7F8FE0020C4E7003C02400838024054
:1015E000D02B0008140000200C000020154810B576
:1015F000006810F00C02144813D04110042A0FD0D8
:10160000082A0ED10F4C241F2268236802F03F02E3
:101610005B0207D52068C0F38810A0FB010106E03B
:10162000084610BD2168C1F38811A1FB0001002309
:10163000FEF7C6FD2168C1F30141491C4900B0FB1A
:10164000F1F010BD083802400024F4002DE9F84FF5
:1016500004006ED02078DFF83C93C007A9F10405A0
:101660004AD009F104000168C1F38101012908D0C1
:101670000068C0F3810002280AD1D9F800004002B6
:1016800006D52868800337D560680028E1D033E0AC
:101690006068B0F5803F10D0B0F5A02F286810D05A
:1016A00020F480302860286820F48020286060685A
:1016B000A8B1FFF75FFE06460DE0286840F48030D1
:1016C000F4E740F480202860F7E700BFFFF752FE00
:1016D000801B642873D828688003F7D50CE0FFF7D7
:1016E00049FE064605E000BFFFF744FE801B642864
:1016F000F0D828688003F7D42078DFF89C82800730
:101700004FF0000A3ED5A348001D016811F00C0FF0
:1017100008D00068C0F3810002280BD1D9F800007E
:10172000400207D42868800716D5E068012800D158
:1017300012E02BE1E068B8B10120C8F80000FFF723
:1017400019FE064605E000BFFFF714FE801B0228C5
:10175000C0D828688007F7D52868216920F0F800EC
:1017600040EAC10028600DE0C8F800A0FFF702FEC3
:10177000064604E0FFF7FEFD801B02281FD82868FC
:101780008007F7D42078000722D5824E834861690C
:10179000703671B101210160FFF7ECFD074604E0EE
:1017A000FFF7E8FDC01B022809D830688007F7D58D
:1017B0000EE0C0F800A0FFF7DDFD074605E082E07F
:1017C000FFF7D8FDC01B02287DD830688007F7D40A
:1017D0002078400768D5DFF8BCB100270BF13C0B3F
:1017E000DBF80000C0000BD4DBF8001041F08051A2
:1017F000CBF80010DBF80000012700F080500090CB
:10180000674E3068C00510D4306840F48070306096
:10181000FFF7B0FD009005E0FFF7ACFD0099401A1E
:10182000022850D83068C005F6D55A4EA0686C36EC
:1018300001280FD00528306810D020F0010030605A
:10184000306820F004003060A068B8B1FFF792FD66
:1018500000900FE0306840F00100F4E740F0040031
:101860003060F7E7FFF786FD0099411A41F28830B2
:10187000814266D830688007F4D50EE0FFF77AFD24
:10188000009007E0FFF776FD0099411A41F2883099
:10189000814256D830688007F4D42FB1DBF80010AD
:1018A00021F08051CBF80010A069C8B33949091D57
:1018B0000968C1F3810102294AD00228504607D0A5
:1018C000C8F8600000E03CE0FFF754FD04463BE050
:1018D0004746C8F86000FFF74DFD064605E000BF2B
:1018E000FFF748FD801B02282BD828688001F7D419
:1018F000D4E907010843A16A2A4A490802EB0141D9
:10190000626A41EA8211084394F82C1040EA0161AE
:10191000C9F8001001203866FFF72CFD044606E0E8
:1019200036E000BFFFF726FD001B022809D8286813
:101930008001F7D52CE000BFFFF71CFD001B02283B
:1019400002D90320BDE8F88F28688001F4D41FE095
:101950000128F7D0D9F80000E26900F48001914233
:1019600014D1226A00F03F0191420FD147F6C071B5
:10197000626A0140914209D1A26A00F44031914269
:1019800004D1E16A00F07060884201D00120D9E7FB
:101990000020D7E70438024000004742800E47424B
:1019A000007000400000FFFF10B5401EB0F1807FC6
:1019B00001D3012010BD4FF0E02460610F216017BA
:1019C00001F0A6F80020A06107202061002010BDD2
:1019D0007047704770B590F83C20012A32D001243E
:1019E00080F83C40022280F83D2003685A689D68D8
:1019F00022F070060A6832435A60134B02689A421A
:101A000014D0B2F1804F11D0104B9A420ED0104B2F
:101A10009A420BD00F4B9A4208D00F4B9A4205D0F6
:101A20000E4B9A4202D00E4B9A4204D1496825F0DF
:101A300080031943916080F83D40002180F83C10FC
:101A4000084670BD022070BD000001400004004047
:101A500000080040000C004000040140004001402C
:101A60000018004010B5040003D094F83D0010B1F8
:101A700007E0012010BD002084F83C00204600F063
:101A80000DF8022084F83D00211D206800F0A4FC20
:101A9000012084F83D00002010BD000008B500685A
:101AA000B0F1804F12D10A48016841F00101016094
:101AB0000068002200F00100009002211C20FFF7C6
:101AC000C9FCBDE808401C20FFF7B6BC08BD0000FB
:101AD000403802400168CA6842F00102CA600068EA
:101AE000816801F00701062903D0016841F0010176
:101AF00001600020704770B5044690F83C00012852
:101B000017D0012584F83C50022084F83D0020685D
:101B1000826822F0770222F47F42826008685028AF
:101B200030D00DDC20284DD005DC98B310283BD1F7
:101B300048E0022070BD302844D0402834D139E03C
:101B4000602828D0702806D0B0F5805F2CD0B0F582
:101B5000005F29D10AE0CB68D1E90121206800F0BB
:101B60009FFC2068816841F0770109E0CB68D1E9EA
:101B70000121206800F094FC2068816841F48041D4
:101B8000816011E0CA684968206800F09BFC502120
:101B9000206807E016E0CA684968206800F0A3FCE6
:101BA0006021206800F086FC84F83D50002084F815
:101BB0003C0070BDCA684968206800F083FC402181
:101BC0002068EFE7226801461046EBE7704770B5E2
:101BD0000446006801694FF00005C943890715D420
:101BE000C168C943890711D4E91E0161012020772A
:101BF000206880698007204602D0FFF7E7FF04E0F5
:101C000000F098F8204600F096F8257720680169E2
:101C1000C943490717D4C168C943490713D46FF0B2
:101C200004010161022020772068806910F4407F60
:101C3000204602D0FFF7CAFF04E000F07BF8204600
:101C400000F079F8257720680169C943090716D49F
:101C5000C168C943090712D46FF00801016104206B
:101C600020772068C0698007204602D0FFF7AEFFCA
:101C700004E000F05FF8204600F05DF8257720686A
:101C80000169C943C90617D4C168C943C90613D439
:101C90006FF010010161082020772068C06910F4FE
:101CA000407F204602D0FFF791FF04E000F042F8A9
:101CB000204600F040F8257720680169C943C9072C
:101CC00008D1C168C943C90704D1891E01612046F2
:101CD00000F032F820680169C943090609D4C168D7
:101CE000C943090605D46FF0800101612046FFF762
:101CF0006FFE20680169C943490609D4C168C94318
:101D0000490605D46FF040010161204600F034F827
:101D100020680169C94389060BD4C168C943890693
:101D200007D46FF0200101612046BDE87040FFF745
:101D300050BE70BD7047704710B50C490068096807
:101D4000884212D10A4842F21072B0F906110948CD
:101D5000914201DA012100E00021016000F0D6FB90
:101D6000BDE81040024800F027BA10BDB4000020C2
:101D7000F4000020000000207047FEE7104810B576
:101D80000E4901600321416000214FF4C0228160AF
:101D9000C0E903124FF4A0024261017641768176D8
:101DA0000122C27601774177FFF77BF8002803D044
:101DB000BDE81040FEF7EEBD10BD0000006400401D
:101DC00064000020104810B50E49016003214160F5
:101DD00000214FF4C0228160C0E903124FF4A00239
:101DE00042610176417681760122C27601774177A0
:101DF000FFF757F8002803D0BDE81040FEF7CABD32
:101E000010BD0000006800408C000020F0B587B0D5
:101E100014216846FEF70CFA26480025016841F0B7
:101E200004010160016801F004010591016841F0BD
:101E300080010160016801F080010591016841F0B5
:101E400002010160016801F002010591016841F0A1
:101E5000010101600068184F00F0010005900022A8
:101E600003213846FFF781FA4FF4005000901348E1
:101E7000CDE9010569463846FFF796F901240320AC
:101E8000CDE900040226CDE9024669463846FFF74F
:101E90008BF98DE8700069460948FFF785F9002243
:101EA00001212820FFF7D6FA2820FFF7C5FA07B04E
:101EB000F0BD000030380240000802400000311040
:101EC0000004024010B586B0002417480094019425
:101ED0000294039404944FF08041059401605321CF
:101EE000C0E9011440F2E731C0E9031480218161A7
:101EF000FFF7B8FD08B1FEF74DFD4FF4805000909C
:101F000069460948FFF7F7FD08B1FEF743FD049461
:101F100004A905480594FFF75DFD002801D0FEF7F0
:101F200039FD06B010BD0000B4000020FEE7FEE75A
:101F3000C0ED051A80ED0B3A80ED062AC0ED082AA7
:101F400080EC030A9FED060A80ED030A80ED040A87
:101F500080ED070A80ED090A80ED0A0A704700004B
:101F60000000000090ED010AD0ED1D0AB8EEC00A95
:101F700070EEC00AC0ED080A90ED0A0AF4EEC00A3D
:101F8000F1EE10FA01DD80ED080AD0ED080AB1EE9D
:101F9000400AF4EEC00AF1EE10FA01D280ED080A10
:101FA000D0ED080A9FED830AF5EEC00AF1EE10FAB3
:101FB00008DD90ED0B1AF4EEC10AF1EE10FA01D231
:101FC00080ED080AD0ED080AF5EEC00AF1EE10FA2D
:101FD00008D290ED0B1AF4EEC10AF1EE10FA01DD11
:101FE00080ED080A90ED0C1AD0ED080A71EE201A67
:101FF000C0ED0C1A90ED0D1AF4EEC11AF1EE10FAC4
:1020000001DD80ED0C1AD0ED0C1AB1EE411AF4EEA0
:10201000C11AF1EE10FA01D280ED0C1A90ED091AF6
:1020200030EEC11A80ED0E1AC0ED090AD0ED051A86
:1020300090ED0C2A61EEA00AD0ED061A41EE820A5C
:10204000D0ED071A41EE810AC0ED0F0A90ED101A8B
:10205000F4EEC10AF1EE10FA01DD80ED0F1AD0EDB9
:102060000F1AF1EE410AF4EEE01AF1EE10FA01D285
:10207000C0ED0F0AB0F9002090ED0F1A00EE902A83
:10208000F8EEE00A31EE601A80ED141AD0ED160A6F
:10209000B4EEE01AF1EE10FA01DDC0ED140A90ED95
:1020A000141AF1EE600AB4EEE01AF1EE10FA02D35F
:1020B000F0EE410A01E0C0ED140AF5EEC00AF1EEBF
:1020C00010FA08DD90ED171AF4EEC10AF1EE10FADD
:1020D00001D280ED140AD0ED140AF5EEC00AF1EE3B
:1020E00010FA08D290ED171AF4EEC10AF1EE10FAC8
:1020F00001DD80ED140AD0ED180A90ED140A30EEDF
:10210000801A80ED181AD0ED190AB4EEE01AF1EE3B
:1021100010FA01DDC0ED180A90ED181AF1EE600A10
:10212000B4EEE01AF1EE10FA01D2C0ED180AD0EDCB
:10213000150A70EE600AC0ED1A0A80ED150A90EDDE
:10214000111AD0ED181A21EE000A90ED121A01EEC4
:10215000210A90ED131A01EE200A80ED1B0AD0ED42
:102160001C0AB4EEE00AF1EE10FA01DDC0ED1B0A24
:1021700090ED1B1AB1EE600AB4EEC01AF1EE10FA3F
:1021800002D3B0EE410A01E080ED1B0ABDEEC00AA9
:1021900010F8783F10EE102A121201F8132010EDFB
:1021A000030A0078BDEEC00A01EB400010EE102AD1
:1021B000427070470000000070B504460F48006888
:1021C00000281AD004F5027120460D46FFF7CAFE1A
:1021D00004F17C002946FFF7C5FE04F1F80029460A
:1021E000FFF7C0FE04F5BA702946FFF7BBFE29468B
:1021F000BDE87040024800F067B870BD1C030020C5
:102200008C0000207047000010B504462DED048BB3
:10221000088842BA6280488840BA00B220808B8821
:102220005BBAE3818979217388B1208A101A01B2DF
:10223000606811F5805F0844606002DA00F50050C4
:1022400004E0B1F5805F02DDA0F5005060602282FD
:1022500060689FED188B9FED199B4FF4902100282B
:102260000EDB90FBF1F201FB1200FEF774F953EC68
:10227000182BFEF78FF853EC192BFEF7FDF812E040
:10228000404290FBF1F201FB1200FEF764F953ECBF
:10229000182BFEF77FF853EC192BFEF7EDF853ECF3
:1022A000182BFEF774F8FEF767F9A060BDEC048BFD
:1022B00010BD00000000000000807640000000001B
:1022C000000012417047000030B587B005460C464B
:1022D00000204FF400710091039002908DF81400DB
:1022E000082004902846FEF7C8FC09490028086029
:1022F00007DD06AB224669462846FEF75FFB07B0BE
:1023000030BD012211460348FFF72FF8F7E7000020
:102310001800002000080240FFF732B830B593B033
:1023200030216846FDF784FF14210CA8FDF780FFDB
:102330001D480025016841F080510160006800F0EF
:10234000805011901948016841F480410160006893
:10235000022400F4804011900120009000040190BC
:102360008001CDE9064008AA0420A82182E81300D4
:102370000B906846FFF76AF908B172B6FEE70CA940
:102380000F2081E831004FF4A0500F904FF480509F
:10239000109005210CA8FFF78FF8002801D072B625
:1023A000FEE713B030BD000040380240007000402E
:1023B0000548016841F47001016003494FF0006075
:1023C000803908607047000088ED00E00148FFF7A1
:1023D000FEBB0000B4000020F0B50268254C264D7D
:1023E000264E274F274B4FF0804CA04209D0604526
:1023F00007D0A84205D0B04203D0B84201D09842DD
:1024000004D122F0700E4A6842EA0E02A0421BD0AC
:10241000604519D0A84217D0B04215D0B84213D0A9
:10242000984211D0184DA8420ED0184DA8420BD09A
:10243000174DA84208D0174DA84205D0164DA84206
:1024400002D0164DA84203D122F44075CA682A432F
:102450004D6922F080022A4302608A68C2620A68DB
:102460008262A04201D0984201D109690163012131
:102470004161F0BD00000140000400400008004040
:10248000000C0040000401400040014000440140B5
:102490000048014000180040001C0040002000409F
:1024A00010B5846842EA032224F47F440A4322439D
:1024B000826010BD826822F070020A4342F0070178
:1024C0008160704710B5036A046A24F00104046255
:1024D000846924F0F00444EA021423F00A020A4357
:1024E0008461026210BD10B5036A23F01003036219
:1024F0008369046A23F4704343EA023224F0A003A0
:1025000043EA01118261016210BDFEE72DE9F84F37
:10251000FE4E4FF0000937789FEDFD0ADFEDFD1A02
:102520009FEDFD2ADFF8F4A3DFEDFD0A9FEDFD1A14
:10253000FD4C0AF1100C4FF00108B4F9F820B4F981
:102540007411DCF81830DCF824000093B4F9003082
:10255000D4F880E06568DAF800B0B4F97C40DCF8C3
:102560000CA00D2F30D2DFE807F00711315397C8C8
:10257000FAF8F7F6F5F4F300EB4880ED1D0A80ED6C
:102580003C0A80ED5B0A80ED7A0A90E2E34C0B2373
:102590001034A360E44B83ED1D0A83ED3C0AC3EDC8
:1025A0005B1A83ED7A0AC4F8008073685B1C736061
:1025B000002A09D1002907D1642B05DD002803D1A9
:1025C00002203070C6F80490BDE8F88FD34C0C237D
:1025D0001034A360D44B83ED1D0A83ED3C0AC3ED98
:1025E0005B1A83ED7A2AC4F80080B3685B1CB36081
:1025F000002AE9D10029E7D1642BE5DD0028E3D1E9
:1026000000980128E0D103203070C6F80890DBE77D
:10261000C2481030C0F80880016A49B10420307007
:10262000C14880ED1D0A80ED3C0AC6E910E5CBE704
:10263000BD4A416892ED1D1AB84A0029BA49D2ED47
:10264000010AF8EEE00A13D071EE200AC1ED1D0A6E
:1026500081ED3C0AC0F80080F268521CF260002B49
:10266000B2D1032AB0DDC0F80490C1F80490ABE702
:1026700071EE600AC1ED1D0A81ED3C0AC0F80080D0
:102680003269521C3261002B9ED1032A9CDDC0F8B6
:102690000480C1F8049097E7A04AA3481032C2F81A
:1026A0000880D0F81012012914D000298CD1022101
:1026B0009160C0F80490C0F88090C2F800900522A4
:1026C000327080ED1D0A80ED3C0AC6F84090C6F8D5
:1026D000449079E796ED110AB8EEC00A80ED1D0A24
:1026E00000EE10BAD0ED3C0AB8EEC00A30EE800A17
:1026F00080ED3C0AC2F8008066E7884D032710355C
:10270000DFED8A0AAF60884FC7ED3C0A87ED1D0AEE
:10271000C7ED5B1A87ED7A2AC5F8008077697F1CC0
:102720007761002CA3D1002BA1D1002A9FD10029D1
:102730009DD1642F9BDD002899D10621C5F8149006
:102740003170C6F840E0C6F81490C5F818903BE721
:10275000B3E1A3E1B9E085E061E038E0FFE76F4F66
:102760001037D7F814C0BCF1000F94D0DDF800C0CA
:10277000BCF1010F8FD1D7F808C0BCF1040F8AD18A
:10278000DFF8A4C1002C8CED3C0A8CED1D0ACCEDC9
:102790005B1ACCED7A0AC7F80080D6F818C00CF1A5
:1027A000010CC6F818C094D1002B92D1002A90D108
:1027B00000298ED1BCF1640F8BDD002889D109205E
:1027C0003070C6F818907564C7F81490FCE6534D45
:1027D0000B271035AF60544F87ED3C0A87ED1D0A7B
:1027E000C7ED5B1AC7ED7A0AC5F80080F7697F1C50
:1027F000F761002CABD1002BA9D1002AA7D1002969
:10280000A5D1642FA3DD0028A1D1E86900289ED0BE
:1028100009203070C6F81C90C5F81C90D4E63F4FD4
:102820000B251037BD60404D85ED3C0A85ED1D0A36
:1028300085ED5B1AC5ED7A0AC7F80080356A6D1C14
:102840003562002CC2D1002BC0D1002ABED1002994
:10285000BCD1642DBADD0028B8D107203070C6F88D
:102860002090B1E6776A4FF0050C7F1C77622B4F02
:10287000DFED2F0A1037002CC7F808C0DFF8A8C01A
:10288000CCED1D0A8CED3C0AC7F80080D6F828C0B4
:102890000CF1010CC6F828C098D1002B96D1002A63
:1028A00094D1002992D1BCF1640F8FDD00288DD125
:1028B000BAF1000F8AD0C7F81490C7E903980A202C
:1028C000C6F82890307075647EE6DFF850E04FF06F
:1028D000060C0EF1100ECEF808C0DEF81070012FB5
:1028E00052D0022F7CD0032F79D0042F96D1074FDE
:1028F0009FED100ABE6B761CBE6300960A4E86EDF5
:102900001D0A3F6C5F4400EE107A15E01C000020A9
:102910000000000000854FC900B808480C030020E3
:1029200000401CC6007C12C8F4000020007C124944
:102930000047864980618CC9B8EEC00A002C86ED3C
:102940003C0A86ED5B1AC6ED7A0A7646CEF8008020
:1029500087D1002B85D1002AB6D10029B4D1009AA5
:102960006549642AB0DD0028AED1BAF1000FABD0C2
:1029700005203061C1F838904D640B22C6F80C90E8
:102980000A70CEF814901FE6D6F82CC00CF1010C9A
:10299000DFED5A1A5A4FC6F82CC0002CC7ED1D1A8D
:1029A00087ED3C0A87ED5B1AC7ED7A0A7746CEF8C9
:1029B000008089D1002B87D1002A85D10029E2D15E
:1029C000BCF1640FDFDD0028DDD1BAF1000FDAD0F1
:1029D000022038614846C6F82C905DE000E032E005
:1029E000454F3E6B761C3E639FED460A0096444E73
:1029F000002C86ED1D0A3F6C5F4400EE107AB8EEA5
:102A0000C00A86ED3C0A86ED5B1AC6ED7A0A764668
:102A1000CEF80080B7D1002BB5D1002AB3D1002960
:102A2000B1D1009A3449642AADDD0028ABD1BAF1A6
:102A3000000FA8D003203061C1F8309048464D64A3
:102A4000CEF80C00C0E5D6F834C02D4F0CF1010CC7
:102A5000DFED2D1AC6F834C0C7ED1D1A87ED3C0A0C
:102A600087ED5B1AC7ED7A0A7746CEF80080002C16
:102A700089D1002B87D1002A85D10029E2D1BCF170
:102A8000640FDFDD0028DDD1BAF1000FDAD00420B9
:102A900038614846C6F834907564D1E7184880ED2F
:102AA0001D0A80ED3C0A80ED5B1AC0ED7A0A1748DA
:102AB000C0F8008086F8008086E5144C0B23A360E4
:102AC0000F4B83ED1D0A83ED3C0AC3ED5B1AC3ED8A
:102AD0007A0AC4F80080F36B5B1CF363002AB1D15F
:102AE0000029AFD1642BADDD0028ABD102203070BE
:102AF000C6F83C9068E500001C00002000606A48B1
:102B0000F400002000401C46005043491C030020F4
:102B10000907090E002804DB00F1E02080F800140A
:102B2000704700F00F0000F1E02080F8141D70479E
:102B300002E008C8121F08C1002AFAD17047704786
:102B4000002001E001C1121F002AFBD170470000E4
:102B50001A480121C0F81412C0F8101218490020B8
:102B6000486048618861C86108624862FEF710FCED
:102B7000FFF7D4FBFFF74AF9FFF700F9FFF7A2F9D7
:102B8000FFF720F90F48FDF7F9FD0E48FEF7B8FAF8
:102B900002210C48FDF700FF0B48FDF7EFFD0A4846
:102BA000FEF7AEFA02210848FDF7F6FE0748FEF7E9
:102BB00091FF0248FDF7FEFDFEE70000F400002053
:102BC0001C030020640000208C000020B4000020C2
:102BD00000000000000000000102030406070809CD
:102BE000002C00080000002064000000302B0008CA
:102BF000642C000864000020E4060000402B00085C
:102C000001000000000000000100000010000000B2
:102C1000000000000024F40000000000000000009C
:102C200000000000000000000000000000000000A4
:102C30000000000000000000000000000000000094
:102C40000000000000000000000000000000000084
:102C50000000000000000000000000000000000074
:042C60000000000070
:040000050800018965
:00000001FF
